:02000004000FEB
:1080000078CF0020D5830F00DD830F00DF830F00C2
:10801000E1830F00E3830F00E5830F000000000001
:10802000000000000000000000000000C1830F00FD
:10803000E9830F0000000000EB830F00ED830F00C9
:10804000EF830F00EF830F00EF830F00EF830F002C
:10805000EF830F00EF830F00EF830F00EF830F001C
:10806000EF830F00EF830F00EF830F00EF830F000C
:10807000EF830F00EF830F00EF830F00EF830F00FC
:10808000B19B0F00EF830F00EF830F00EF830F0012
:10809000EF830F00EF830F00DD990F00EF830F00D8
:1080A000EF830F00EF830F00EF830F00EF830F00CC
:1080B000EF830F00EF830F000000000000000000BE
:1080C000EF830F00EF830F00EF830F00EF830F00AC
:1080D00069990F00EF830F00EF830F00EF830F000C
:1080E000EF830F00EF830F00BD840F00000000003E
:1080F00000000000EF830F0000000000EF830F007E
:10810000000000000000000000000000000000006F
:10811000000000000000000000000000000000005F
:10812000000000000000000000000000000000004F
:10813000000000000000000000000000000000003F
:10814000000000000000000000000000000000002F
:10815000000000000000000000000000000000001F
:10816000000000000000000000000000000000000F
:1081700000000000000000000000000000000000FF
:1081800000000000000000000000000000000000EF
:1081900000000000000000000000000000000000DF
:1081A00000000000000000000000000000000000CF
:1081B00000000000000000000000000000000000BF
:1081C00000000000000000000000000000000000AF
:1081D000000000000000000000000000000000009F
:1081E000000000000000000000000000000000008F
:1081F000000000000000000000000000000000007F
:10820000DFF80CD000F048F90048004771AD0F00CE
:1082100078CF002030B450E8012F93B2C4892344B2
:108220008489A34228BF1B1B0489A34202BFBFF35A
:108230002F8F002007E0C3EA020340E80134002C3E
:10824000E9D14FF001000A6030BC704750E8012FBF
:10825000C2EA024240E801210029F7D1704730B458
:1082600050E8022F1FFAA2F3C488A34202BFBFF353
:108270002F8F00200DE0C48923448489A34228BFA6
:108280001B1BC2EA034340E80234002CE8D14FF044
:1082900001000A6030BC704750E8022FC2EA224257
:1082A00040E802210029F7D17047034653E8022F26
:1082B000D988B2EB324F4FF0000017BF92B241EABB
:1082C000014142EA014104E05A68B2EB324F08BF73
:1082D000012043E80212002AE8D1704730B4044676
:1082E00054E8000F0D4644E80053002BF8D1156008
:1082F00030BC704730B4044654E8000F40EA010532
:1083000044E80053002BF7D1156030BC704730B4FF
:10831000044654E8000F00EA010544E80053002B2E
:10832000F7D1156030BC704730B4044654E8000FF4
:1083300080EA010544E80053002BF7D1156030BCFA
:10834000704730B4044654E8000F00EB010544E8E0
:108350000053002BF7D1156030BC704730B4044691
:1083600054E8000FA0EB010544E80053002BF7D1BF
:10837000156030BC704770B404464FF0000054E8FC
:10838000006F0D68AE4207BF44E80023012044E8B7
:1083900000630E60002B1CBF0020F0E770BC70472C
:1083A00030B4044654E8000F88422CBF451A0546F5
:1083B00044E80053002BF5D1156030BC7047000035
:1083C0001EF0040F0CBFEFF30880EFF3098004F0F8
:1083D00029B800000648804706480047FEE7FEE748
:1083E000FEE7FEE7FEE7FEE7FEE7FEE7FEE7FEE765
:1083F000E1990F0001820F00202A04DB203A00FAE5
:1084000002F1002070479140C2F1200320FA03F3EB
:1084100019439040704710B5441A0346944209D25C
:108420008418114403E011F8013D04F8013D521E87
:10843000F9D210BD40EA0104A40703D009E010C935
:10844000121F10C3042AFAD203E011F8014B03F8FB
:10845000014B521EF9D210BDD2B201E000F8012B3F
:10846000491EFBD270470022F6E710B513460A46B4
:1084700004461946FFF7F0FF204610BD30B504460C
:108480000020034600E05B1C934203D2E05CCD5C1D
:10849000401BF8D030BD0000064C074D06E0E068F8
:1084A00040F0010394E8070098471034AC42F6D33B
:1084B000FFF7AAFE48DE0F0068DE0F00054B4FF005
:1084C000FF321A6053F8042C034B1A601A68034BEE
:1084D0001A60704704BA0250708F002008BA025028
:1084E00001EB820204388A4201D10020704752F821
:1084F000043D1BBA40F8043FF5E70000354B8EB051
:1085000019461A680092009AD207FAD5324B334ABC
:108510001A600A680192019AD007FAD5304A1A60A7
:108520000A680292029AD207FAD52E4A1A600A689D
:108530000392039AD007FAD52B4A1A600A6804926C
:10854000049AD207FAD5294A1A600A680592059A50
:10855000D007FAD5264A1A600A680692069AD20708
:10856000FAD5244A1A600A680792079AD007FAD502
:10857000214A1A600A680892089AD207FAD51F4A57
:108580001A600A680992099AD007FAD51C4A1A603B
:108590000A680A920A9AD207FAD51A4A1A60086833
:1085A0000B900B98C007FAD51A600A680C920C9AC7
:1085B000D007FAD5144A1A600A680D920D9AD207AC
:1085C000FAD5124A1A600E210D230F2200200EB098
:1085D00000F090BDB0B0025080B00250804301293D
:1085E00040633921807001298020542100D13490CA
:1085F000C0403490C0302029C0530D9000413890C5
:10860000832308C880E3102100413821CF4308C8E4
:1086100010B5504B96B01C461A680192019AD207C9
:10862000FAD54D4B4D4A1A6022680292029AD2073F
:10863000FAD54B4A1A604B4A42EA804022680392BC
:10864000039AD207FAD5186022680492049AD007D8
:10865000FAD5454A1A60A2F5800242EA81412268B1
:108660000592059AD207FAD5196022680692069AF1
:10867000D007FAD53D4A1A6022680792079AD107B7
:10868000FAD53B4A1A6022680892089AD207FAD5AE
:10869000384A1A6022680992099AD007FAD5364AF0
:1086A0001A6022680A920A9AD107FAD5334A1A60E8
:1086B00022680B920B9AD207FAD5314A1A602268C7
:1086C0000C920C9AD007FAD52E4A1A6022680D92A5
:1086D0000D9AD107FAD52C4A1A6022680E920E9A8A
:1086E000D207FAD5294A1A6022680F920F9AD0074A
:1086F000FAD5274A1A60216810911099C907FAD54E
:108700001A60144B1A46196811911199C807FAD5C5
:10871000114B20491960116812911299C907FAD5B5
:108720001D491960116813911399CC07FAD50B49AB
:108730001960116814911499C807FAD5174919607E
:10874000116815911599C907FAD5154A1A6016B01E
:1087500010BD00BFB0B0025080B002504004419044
:1087600000862929D81001C84014419040142129BD
:10877000401465210034409000310C90C0400C90B2
:10878000C030202940960D9000416090031645C8E6
:108790000086112100416021594644C8401445908B
:1087A00040142D902DE9F041484B88B01C461D68BF
:1087B0000195019DEF07FAD5454BDFF820E1454FC4
:1087C00013449B000A181B681E2A88BFC0F11E01B3
:1087D0001F330A185B095A43B2F5806F88BF4FF404
:1087E00080614FF0000203F1010588BFB1FBF3F196
:1087F000944688BF091A25F001058000914233DCB8
:1088000022680492049AD207FAD5334A1268216882
:1088100005910599CF07FAD530482E49026000220C
:1088200015469A4246D15A1C2A4D194622F0010299
:1088300000268A4241D8216806910699CE07FAD5CA
:108840002749096825680795079DED07FAD5016056
:10885000002120480C46994232D11E4900209A42FC
:1088600031D808B0BDE8F08126680296029EF6076E
:10887000FAD500F1A04606F52C363668D4F800800B
:10888000CDF80C80DDF80C8018F0010FF6D0CEF892
:10889000006000269E4205D11E46B54206D8013230
:1088A0000430ABE7C7F800C00136F3E7C7F800C0F3
:1088B0000136F2E70D600132B3E72E600131B8E70F
:1088C00004600131C7E708600133C8E7B4B0025063
:1088D00024AC0014D8B002507CB00250D4B0025086
:1088E00078B00250F0B52A4D85B02C462E6800961F
:1088F000009EF707FAD500F1A05000F52C4080004B
:108900000568206801900198C607FAD5214E2248D3
:10891000356002EB8307BA422BD15A1C1E4822F065
:10892000010200279A4229D823680293029BD807A4
:10893000FAD51A4B0B449B0018681F30B2EB501F3E
:108940004FEA501313D2216803910399C907FAD54E
:10895000154400219B1A104A356008468B4210D8F6
:108960005A1C0D4922F0010200209A420CD805B091
:10897000F0BD52F804CBC0F800C0CCE7076001336B
:10898000D0E710600131E9E708600133EDE700BF8F
:10899000B4B00250D4B00250D8B0025024AC00148D
:1089A00010B5494B94B019461A680092009AD20744
:1089B000FAD5464B464A1A600A680192019AD407D2
:1089C000FAD5444A1A600A680292029AD007FAD588
:1089D000414818600A680392039AD207FAD53F4AC1
:1089E0001A600A680492049AD407FAD53C4A1A60BD
:1089F0000A680592059AD207FAD53A4A1A600A68B7
:108A00000692069AD407FAD5374A1A600A6807927E
:108A1000079AD207FAD5354A1A600A680892089A66
:108A2000D407FAD5324A1A600A680992099AD2071D
:108A3000FAD5304A1A600A680A920A9AD407FAD517
:108A40002D4A1A600A680B920B9AD207FAD52B4A64
:108A50001A600A680C920C9AD407FAD5284A1A6050
:108A60000A680D920D9AD207FAD5264A1A600A684A
:108A70000E920E9AD407FAD5234A1A600A680F920A
:108A80000F9AD207FAD5214A1A600F4B19461C6873
:108A90001094109CE407FAD50C4B186008681190EC
:108AA0001198C407FAD51A600A681292129AD00770
:108AB000FAD5174A1A600A681392139AD207FAD5A0
:108AC000144A1A6014B010BDB0B0025080B0025009
:108AD0008090652100040990409665908080612116
:108AE0008020082180206490008161900046102140
:108AF000008111210041442180202029024610C814
:108B00000086092180206021402128294096652186
:108B100040962529594614C810B5544B98B01946AB
:108B20001A680192019AD207FAD5514B514A1A603C
:108B30000A680292029AD407FAD54F4A1A600A6864
:108B40000392039AD007FAD54C4818600A68049239
:108B5000049AD207FAD54A4A1A600A680592059A19
:108B6000D407FAD5474A1A600A680692069AD207CD
:108B7000FAD5454A1A600A680792079AD407FAD5C7
:108B8000424A1A600A680892089AD207FAD5404AFF
:108B90001A600A680992099AD407FAD53D4A1A6000
:108BA0000A680A920A9AD207FAD53B4A1A600A68FA
:108BB0000B920B9AD407FAD5384A1A600A680C92BD
:108BC0000C9AD207FAD5364A1A600A680D920D9AA5
:108BD000D407FAD5334A1A600A680E920E9AD20761
:108BE000FAD5314A1A600A680F920F9AD407FAD55B
:108BF0002E4A1A600A681092109AD207FAD52C4AA7
:108C00001A601A4B19461C681194119CE407FAD596
:108C1000174B1860086812901298C407FAD51A60AA
:108C20000A681392139AD007FAD5124A1A600A6892
:108C30001492149AD207FAD51E4A1A600A6815923D
:108C4000159AD407FAD51C4A1A600A681692169A21
:108C5000D007FAD5194A1A600A681792179AD207EC
:108C6000FAD5174A1A6018B010BD00BFB0B0025054
:108C700080B00250009365210004319040966590C9
:108C80000083612100C3302100C3649000816190A2
:108C900000461021008111210041442100C32029F8
:108CA0000C4610C80086312100C3602140C128292C
:108CB000409665210013319040962529594614C8E5
:108CC000400432492DE9F041834B1D6898682033F8
:108CD000A0B01E461A680192019AD207FAD57F4CBD
:108CE0007F4B236033680293029BDF07FAD57D4BED
:108CF00023607D4B1F461A680392039AD107FAD569
:108D00007A4B1968C1F3402132680492049AD20761
:108D1000FAD5774A22603A680592059AD207FAD5C1
:108D20001A68C2F34022002900F0D180002A00F026
:108D3000CE8032680692069AD107FAD56D4A226033
:108D40003A680792079AD207FAD51A68C2F3402206
:108D5000316808910899C907FAD5674921603968CF
:108D600009910999C907FAD51B68C3F34023002A62
:108D700000F0AF80002B00F0AC8033680A930A9BB0
:108D8000DA07FAD5564B236033680B930B9BDB074E
:108D9000FAD55A4A226033680C930C9BDF07FAD548
:108DA000574B236033680D930D9BD907FAD5554B6C
:108DB000236033680E930E9BDB07FAD5524B23607A
:108DC00033680F930F9BDF07FAD5504B2360504B4E
:108DD0001E46196810911099C907FAD53F4C4D4BA2
:108DE000236033681193119BDB07FAD54A4B23604C
:108DF00033681293129BDF07FAD5484B23603A4B36
:108E00009846196813911399C907FAD5324F3860FB
:108E100033681493149BDB07FAD5226033681593EB
:108E2000159BD807FAD53E4B236033681693169BE3
:108E3000D907FAD53B4B236033681793179BDA07A2
:108E4000FAD5394B236033681893189BDB07FAD5A2
:108E5000364B236033681993199BD807FAD5344BE6
:108E6000236033681A931A9BD907FAD5314B2360D4
:108E700033681B931B9BDA07FAD52F4B236000F056
:108E8000D3F908BBD8F800301C931C9BDB07F9D53D
:108E90003D6033681D931D9BD907FAD5274B23608E
:108EA00033681E931E9BDA07FAD5254B2360D8F84A
:108EB00000301F931F9BDB07F9D50C4B1B6813F485
:108EC000805F204B08BF184620B0BDE8F0811E48E7
:108ED000FAE71E48F8E700BF90B0025080B0025099
:108EE00000100251C01F7229B4B0025088B0025065
:108EF000C0CF0129C01F0E29C03F002940010249EF
:108F0000003184A800001649400108A18044088867
:108F1000B0B00250C044708880077A41C0077E41DB
:108F200000006A498006164940006E49000200218F
:108F300000822021408220218082242140A161A141
:108F400000C861510308F1000108F1000208F100B6
:108F500008B540B1202801464FF0070228BF202164
:108F60000020FFF71FFC024B00221A6008BD00BF63
:108F70001CB80250F0B51D6885B001F01F040DB992
:108F80001F2C25D1154D2E462F680197019FFF07F5
:108F9000FAD500F1A05000F52C408000006835683B
:108FA0000395039DED07FAD50D4D00EB6110286088
:108FB0000C48006802901F2C18BFC94302980FBFCD
:108FC000106001F01F0100FA01F111600021196029
:108FD00010684300C00F136005B0F0BDB4B002507C
:108FE000E4B00250DCB0025030B51F4B85B01A46D9
:108FF000196800910099CC07FAD500F1A05000F54E
:109000002C408000016813680193019BD807FAD5B2
:10901000164B174C1B68174D13F11F0048BF03F187
:109020003E0040110138002810DA002301304001D1
:1090300053B1A0F120014FF00042134204D1013896
:1090400088424FEA5202F8D105B030BD136803934D
:10905000039BDB07FAD5431823602B680293029B1E
:10906000002BE3D10138DEE7B4B00250ACB00250BF
:10907000E4B00250DCB002500A460021AFF3008099
:1090800038B5A0F12003B3F5426F05462CD88F28E0
:1090900026D800F1470300F16604DB064FEA5414BA
:1090A00000D0013464013F34A409013411B18C4271
:1090B0001AD80C46E3004FF48050B0FBF3F02028A0
:1090C00028BF202002B11060084B01221A602146FF
:1090D00000F068F82846214600F088F8002038BDE6
:1090E00000F11F046409DDE70148F8E71CB80250ED
:1090F0002221F00070B5264888B005460468009427
:10910000009CE607FAD52348234C0460234C44EA2C
:1091100083432C680194019CE407FAD50360930112
:1091200043EA824242F0104444F4C0442B68029364
:10913000029BDE07FAD504602B680393039BDB07D1
:10914000FAD5174B03608B0143EA814141F010438C
:1091500043F4C0432E680496049EF607FAD50360D4
:109160002B680593059BDE07FAD5046041F0584152
:109170002B680693069BDC07FAD5016042F0584243
:109180002B680793079BDB07FAD5026008B070BD18
:10919000B0B0025080B00250C02102298071009806
:1091A00080611890002230B549001346023840F61D
:1091B000FC75940004F1A04404F52C34904202F1B3
:1091C0000102CABF236025605B181E2AF1D1044A40
:1091D00013600B445360034B034A1A6030BD00BF59
:1091E00078B0025084B0025020F80F000C4B186089
:1091F0003F3020F03F008901403058609960D960CD
:109200001961596199610748D9611C3382B00268BC
:109210000192019AD207FAD5196002B0704700BFD7
:1092200090B00250B4B002502DE9F041012392B049
:10923000CDE90333624B1E461A680592059AD107A1
:10924000FAD5604C604B2360604B19461A68069251
:10925000069AD207FAD55E4B1A68D70400F1A880A7
:1092600032680792079AD507FAD55A4A22600A68E7
:109270000892089AD007FAD51B68DA04C3F30037BE
:1092800000F198801220FFF7AFFE05461320FFF78C
:10929000ABFE85428CBF12201320FFF7A5FE451EB2
:1092A000FFF72CF903AB01AA29461220FFF762FE53
:1092B00004AB804602AA29461320FFF75BFE00EBB1
:1092C0004800022832D003283ED0012874D13368E8
:1092D0000993099BDB07FAD53F4B236033680A9358
:1092E0000A9BD807FAD53D4B236033680F930F9B39
:1092F000D907FAD53A4B236033681093109BDA07ED
:10930000FAD5384B236033681193119BDB07FAD5EC
:10931000354B2360013D25D510231922182100204B
:10932000FFF7E8FE384612B0BDE8F08133680B93D2
:109330000B9BD907FAD52D4B236033680C930C9BFC
:10934000DA07FAD52A4BCFE733680D930D9BDB077D
:10935000FAD5284B236033680E930E9BD807FAD5B5
:10936000254BC1E703AB01AA29461220FFF702FEF5
:1093700004AB044602AA29461320FFF7FBFD10EBBD
:10938000440402D1FFF7C8FBC4E7FFF709FB022C36
:1093900008D0032C09D0012C10D117211620FFF77B
:1093A00037F9B7E715211420F9E70F210E20F6E76A
:1093B000124FB7E7124FB5E7124FB3E7124FB1E7BD
:1093C000B0B0025080B0025000084A51B4B0025010
:1093D00088B0025000084E5100065A4940065E49C6
:1093E000000442410014424940042E4900065249FB
:1093F0004006564900063A4940063E490608F10033
:109400000708F1000408F1000508F100014B18609D
:10941000704700BF08BA0250014B1860704700BF88
:1094200004BA0250094BC2431A60043B82B01B6865
:109430000193074B019A024204D0064A1060186853
:1094400002B0704720BF1A680192F3E704BA0250D5
:10945000708F002008BA0250FEF7DDBFFFF705B895
:109460000A460021FFF701B82DE9F74305460E46ED
:109470001F46114600F058FA0446002840F082804A
:10948000002E00F08380002900F08280202F40F021
:10949000818005F14404082205F104092046FFF704
:1094A0001FF805F12408082231464846FFF718F84E
:1094B00006F1200108224046FFF712F801A94FF4F7
:1094C00080700197FFF7D8FD002865D1334A4FF42B
:1094D0008073136001219360314A0823FFF702FA79
:1094E000012108462F4A0523FFF7FCF908234A46C5
:1094F00001211C20FFF7F6F9082342460121032031
:10950000FFF7F0F92246082301210220FFF7EAF9CC
:10951000254A082301211A20FFF7E4F9234A0523ED
:1095200001211B20FFF7DEF9214A08230121142025
:10953000FFF7D8F91F4A082301211520FFF7D2F9B8
:10954000082305F1640201211620FFF7CBF9082357
:1095500005F1840201211720FFF7C4F90823164AF8
:1095600001210B20FFF7BEF9FFF7ACFB0446019881
:10957000FFF7EEFC114B002C18BF1C46A421284617
:10958000FFF76EFF204603B0BDE8F0830C4CF9E70F
:109590000C4CF7E70C4CF5E7084CEFE790B00250A5
:1095A000BCDD0F0034DE0F007CDD0F0020DE0F007D
:1095B000E0DD0F0000DE0F009CDD0F008408F000EE
:1095C0007608F0008008F0008108F00038B50D46FC
:1095D0000446B0B1A02200210430FFF73FFF95B14F
:1095E0000822294604F16400FEF77AFF082205F1FB
:1095F000200104F18400FEF773FF044B2360002078
:1096000038BD0348FCE70348FAE700BFDD55AABBB5
:109610007108F0008308F00037B50193069B0093B2
:1096200004461546FFF7D2FF40B9DDE9003229466E
:10963000204603B0BDE83040FFF716BF03B030BD91
:109640002DE9FF41144B04460D460FCBE84688E850
:109650000F00204600F078F90746B0B9CDB1636A33
:10966000261D01963BB90123226F636204F130018C
:10967000404600F081F83346043D243453F8042B6F
:1096800012BAA34245F8042FF8D1384604B0BDE819
:10969000F081024FF9E700BF4CDD0F000502F0003A
:1096A00013B5044670B1043070210190FFF7D8FE65
:1096B000019805492022FFF7CFFE044B23600020CC
:1096C00002B010BD0248FBE75CDD0F00DD55AABB10
:1096D0000002F0002DE9FF47254B04460F461546D2
:1096E0000FCBE84688E80F0025B90026304604B0C5
:1096F000BDE8F087204600F027F906460028F5D19E
:10970000666A231D01938EBB206FC0B1C0F1400972
:10971000A94528BFA94604F1300A4A4639465044B3
:10972000FFF79AFE226F4A44402A4F442267A5EB76
:10973000090504D15146404600F01EF8266705F0A1
:109740003F0935F03F0505D039462A46404600F02E
:1097500013F82F44B9F1000FC7D04A46394604F137
:109760003000FFF779FEC4F87090BFE7014EBDE707
:109770004CDD0F000C02F0002DE9F74F314B44682F
:10978000054691469A461A68002AFCD12E4B9B4604
:109790001A68002AFCD14FF0FF300191FFF736FE26
:1097A0008020FFF739FE294E294ADFF8B880294F7B
:1097B000012307203360A2F59E72C2F83C011360BA
:1097C000636AC8F80030A36A3B602B6842F8043C27
:1097D000AB68204698470199DAF80030002BFBD19E
:1097E000B9F1000F20D11C4B04221A60DAF80030C6
:1097F000002BFBD1DBF80090B9F1000FFAD1EB6838
:1098000020469847D8F8003063623B68A362134B48
:10981000C3F80090C3F84491DAF80030002BFBD174
:10982000336003B0BDE8F08F236A012B04BF0B4AFD
:1098300013600B4B40201960C3F80490FFF7F2FD52
:10984000D4E700BF10B9025020BC025018B8025033
:1098500000B90250D0B70250C8B7025084B60250C7
:1098600028BC0250CCB70250084B1B681B0EF02BD3
:1098700008D1074B1A68074B9A4205D1064B0020C6
:1098800018607047052070470620704728B90250BD
:1098900024BA02500000E0200CBA02500C4B1B68A6
:1098A000C3610C4B1B6883610B4B1B6843610B4B03
:1098B0001B6803610A4B1B68C3600A4B1B6883600B
:1098C000094B1B684360094B1B680360704700BF6E
:1098D0005CB6025058B6025054B6025050B6025010
:1098E0004CB6025048B6025044B6025040B6025040
:1098F0000C4BC2691A60826943F8042C426943F830
:10990000082C026943F80C2CC26843F8102C8268BA
:1099100043F8142C426843F8182C026843F81C2CB6
:10992000704700BF5CB6025030B10268034B044878
:109930009A4208BF0020704702487047DD55AABB15
:109940008208F0007108F00030B10268034B04484F
:109950009A4208BF0020704702487047DD55AABBF5
:109960000202F0000002F0002DE9F041194E4FF420
:109970008271D6F8040130B11748C268521CC26027
:10998000304602F0E7FB00254FF4A07707EB850196
:109990008AB23046B258BAB189B202F0DBFB0E4847
:1099A000103000EB0514204603F0A2FE616819B1E7
:1099B000204603F025FE07E0A16811B1204603F020
:1099C0001FFE206800B180476D1C022DDED3BDE86C
:1099D000F0810000004002408459002002F0B6BC33
:1099E00030B54FF080520023D2E94C10082906D13F
:1099F000CC06C4F80C31C4F81031614C236008293E
:109A000055D1604B1B68604C23605E4B1B1D1B686F
:109A1000241D23605B4B08331B68241D2360594BB6
:109A20000C331B68241D2360564B10331B68241D08
:109A30002360544B14331B68241D2360514B18338F
:109A40001B68514C203423604E4B1C331B68241D73
:109A500023604C4B20331B68241D2360494B243367
:109A60001B68241D2360474B28331B68241D23607B
:109A7000444B2C331B68241D2360424B30331B683E
:109A8000414C403423603F4B34331B68241D23601A
:109A90003C4B38331B68241D23603A4B3C331B6816
:109AA000241D2360374B40331B68241D2360082985
:109AB00004D1030002D1364C344B2360082904D171
:109AC000030002D1334CFB232360082908D1030093
:109AD00006D1314B92F858521C6865F303041C60A0
:109AE000082904D1030002D12C4C8B0123600829E2
:109AF00006D12B480168C90702D06FF0010101604F
:109B00002848016841F470010160BFF34F8FBFF333
:109B10006F8FD2E94C104FF01022082906D103288C
:109B200004D9D2F80802164920310860D2F80002A0
:109B3000002803DBD2F8040200281FDA012002F01B
:109B4000A7FC1221C2F8001217480368002BFCD0B2
:109B5000C2F8041201680029FCD0002002F098FC31
:109B6000BFF34F8F0F487C380168104A01F4E06161
:109B700011430160BFF34F8F00BFFDE730BD000010
:109B8000380500400404001020C50040488103004F
:109B90008C56004018F50040E40E0040409602400C
:109BA0000004004088ED00E000E401400400FA05F4
:109BB000034808B5002101600068009008BD00005E
:109BC0000001014002E008C8121F08C1002AFAD1B2
:109BD00070477047002001E001C1121F002AFBD12D
:109BE000704700000121202803DA81400548014028
:109BF00003E0402802DA2038814009B10120704793
:109C000000207047FC06FFBD800701D00020704790
:109C100001207047C3688B4206D811440069491E71
:109C2000814201D8012070470020704730B585B0CF
:109C30000D46164C1621ADF800101ECC0DF1040C8B
:109C40008CE81E00124C0221012221706270A0706B
:109C50000320E070217159206071FE20A0716946D7
:109C600004F109007DDF00280ED1BDF800002A466E
:109C7000411CE17109212172BDF808100844ADF8BA
:109C8000080001A9034872DF05B030BD00DB0F00FA
:109C9000586E0020C059002010B586B00624182246
:109CA00008496846FEF7B7FB69462046FFF7BEFF46
:109CB000002805D1044C207874DF0121207873DF5F
:109CC00006B010BD10DB0F00C059002070B5104C5D
:109CD000A66C656A01F0E0FB216B08446A1A314406
:109CE000814200D10022082300F07CFF06000DD144
:109CF00001F0D2FB0022294600F09EFCA16A8142BD
:109D000003D10121A561C4E90701304670BD0000FF
:109D1000F085002002F0BCFC02F0BAFC2DE9F84FFF
:109D2000254C8146924660880E46814241D80027E4
:109D30004FF6FF788DF80070684600F075F82278CD
:109D40006078A188884201DA401C00E00020C0B29F
:109D5000904204D19DF8000000F08AF827E0657871
:109D60006078884201DA401C00E0002060709DF8B5
:109D7000000000F07DF8454519D0A068B9F1000F4A
:109D800040F835A00DD066B16188E068324605FB29
:109D900001004946FEF73FFBA06800EBC500868046
:109DA00002E000EBC50087800020BDE8F88F0420AA
:109DB000FBE70920F9E70000005A002010B50E4C1F
:109DC00003E0401C00E00020207020786178814290
:109DD00010D022786188E068A36802FB010003EBE1
:109DE000C20153F83220898890472078A1888842A0
:109DF000E9DAE6E710BD0000005A002030B5CB00DC
:109E000008339DB293074FF0000401D0072030BD06
:109E1000044B9A602A44DA605C701C705880998008
:109E2000002030BD005A002030B5EFF3108172B62B
:109E30000D4A9468012324B10370002900D162B651
:109E400030BD93604FF0E023D3F88051074C25409C
:109E50001560C3F88041D3F8844154605A17C3F8A1
:109E6000842100220270E8E7648D0020FC06FFBD1B
:109E70000B498A68002A11D000280FD1EFF3108017
:109E800072B60B684FF0E022C2F800314B68C2F89E
:109E9000043100228A60002800D162B670470000B9
:109EA000648D002070B510480146456AC06A8C6C0C
:109EB000AC2801D024B106E0486B04442D1A02E01E
:109EC00001F0FEFA04462A4621460848FEF7D6FA73
:109ED000002807D001F044F929462046BDE870402B
:109EE00001F012BC70BD0000F085002000800F0062
:109EF00030B504462C4995B04FF6FF7048800120DC
:109F00008DF812004FF65960ADF81000224604A9F2
:109F10000120A8DF002844D1244B0FCB8DE80F008F
:109F2000A11C684662DF00283BD120491C22603911
:109F30000BA8FEF770FA1E4D142205F1C401A868A3
:109F40001290A0788DF84A002868139006A8FEF7B2
:109F500062FA12A8069013A807902088231D06AA6B
:109F60000BA9AADF00281CD11C2205F1D8010BA8DF
:109F7000FEF751FAE8681290A0788DF84A006868F8
:109F80001390142205F1F40106A8FEF744FA12A872
:109F9000069013A80790208804F10C0306AA0BA9C9
:109FA000AADF15B030BD0000C0590020D8DB0F007B
:109FB000D0DA0F00F0B585B0044614216846FEF7EC
:109FC00052FA2078032308280BD12748C188491E5C
:109FD00089B2C1808288002A3ED000293CD1C2804B
:109FE00023702178607860228DF800208DF80110B0
:109FF0008DF802006078032101280AD00B2828D1AF
:10A0000000F07AFD8DF80300002000F07DFD0421B2
:10A010001FE0207809281CD2DFE800F01B1B1B2062
:10A020001B1B051B2000D4E902706D46E91C666805
:10A0300003F068FB044629193046C91C03F062FB93
:10A04000044429193846C91C03F05CFB2044C01C99
:10A05000C1B2684603F020F905B0F0BDD4E90112A1
:10A06000684603F008F9F2E7C05900202DE9F041F5
:10A070001349034600208A68D4071ED0114CA3421E
:10A080001BD04888A0F57F43FF3B10D042F004026C
:10A090008A60132176DF00280FD10B4EC8254FF4BC
:10A0A0007A47741C3846A0476D1EFAD101E0087843
:10A0B00074DFBDE8F04102F0E5B8BDE8F0810000D2
:10A0C000C059002070DE0F00E0DA0F0038B5214CD7
:10A0D0000021227AD20701D0084638BDE0601E4830
:10A0E00000F0F5FE0020009001F01AFB88B91B4833
:10A0F00013DF70B902F0F0F858B9684602F030F892
:10A1000038B96946012002F035F810B9684602F006
:10A110007FF80028E1D101F0EFFB30B1104801F0E9
:10A12000DFFBA06840F00200A06000F003FD002803
:10A13000D3D10B481C30FFF7DBFE0028CDD1FFF751
:10A14000ABFD0028C9D1A06840F00100A06000204C
:10A1500038BD0000C059002078DE0F0000800F00DD
:10A16000786E002070B50446011D008800226F4DF6
:10A1700086B021287ED025DC13287CD018DC01286D
:10A180007AD010285BD011284AD14FF6FF70688032
:10A19000287A400704D4FFF77FFD08B1FFF7BCFD24
:10A1A000E96800293CD006B00220BDE870400847AD
:10A1B000142878D01A2877D01F2831D16888091D33
:10A1C00075DF62E0512870D02CDC222828D02328AB
:10A1D00062D0242824D0502822D1554D34F8060FBF
:10A1E000A98888421CD1534800F037FE060017D0DA
:10A1F000628904F10C01FEF70EF918224E496846F7
:10A20000FEF709F9049601956089ADF814006846D7
:10A2100001F0BAFA002803D03146464800F03FFE6C
:10A2200006B070BD52287BD0552813D05628F7D1E0
:10A23000A0790028F4D11321688876DF25E008880A
:10A240006880E96809B1012088473B4968887A3904
:10A2500075DFE5E7E188F72914D28807B0F1404FB0
:10A2600011D0C91F89B2481EC21700EB927222F0AA
:10A27000030202E033E01CE036E0801A081A801D79
:10A2800081B200E0F7216888B5DF0028C8D006B0A9
:10A29000BDE87040FFF740BD00920192A088002207
:10A2A000694690DF18E034E03AE021E0FFF734FD42
:10A2B000B6E721486A46903842F60521806A009048
:10A2C00002A801906888ADDF08B1FFF725FD0023E3
:10A2D0001A46852168887FDF0028E7D1A0E7009231
:10A2E000088869468FDFF7E70021688866DFCCE7DA
:10A2F000A079002894D021460D4802F0E1F9002809
:10A300008ED006B004F10801BDE87040084802F0A4
:10A31000CBB80024088822462346214686DFB4E7CE
:10A32000002308881A461946B1DFAEE7C05900205D
:10A33000946E002078DE0F0060DB0F00007800F0E4
:10A340000100704713B90378012B01D001F0F7BB6E
:10A35000012070470022C32100F5187000F06CB98D
:10A360002DE9F043A3B00446DDE92A9520200F46ED
:10A370002190984616467C2102A8FEF774F84121E8
:10A380002046FEF770F8B7F8940006EB061107EBCD
:10A390008101B04201D991F8965025701DB3012D6D
:10A3A00004D0022D0AD0032D13D116E00022494615
:10A3B000404600F041F9C4F8010014E021A9601CF6
:10A3C000CDE900014B4642460A4902A800F08CFF45
:10A3D00048B1002023B0BDE8F083B1F89820601C9C
:10A3E0009A31FEF718F84A464146204601F0A7FB8D
:10A3F000F0E7000004D90F0010B500284FF000006E
:10A4000006D004490870BDE81040034801F0A0BA26
:10A4100000F0CAFA78590020A9A90F002DE9FC41E3
:10A420000646C0074FF000050ED0104F0024012251
:10A43000385D009500231146019501F0F0FD641C84
:10A44000042CF4D300F024F8B0070DD5074E0024F7
:10A45000361D0022305D032300951146019501F061
:10A46000DEFD641C042CF4D3BDE8FC81DCD80F00B5
:10A470000249085C012101F007BE0000DCD80F0092
:10A480000249085C002101F0FFBD0000DCD80F008C
:10A4900010B500242046FFF7EBFF641C042CF9D311
:10A4A00010BD10B543689C18446021B905E013F84D
:10A4B000010B01F8010B521EF9D2012010BD000062
:10A4C00010B50548012100F0C3FCBFF35F8F08B150
:10A4D000002010BD012010BDB8590020BFF35F8FD0
:10A4E0000149002008607047B85900200649002043
:10A4F000086006494FF48060C1F88001BFF34F8FB8
:10A50000BFF36F8F7047000000A5025004E000E029
:10A5100003490120086003498002C1F80001704727
:10A5200000A5025004E000E070B500F108051068D5
:10A5300014460E46202802D248F2145070BDFFF790
:10A54000BFFF90B1FFF7E4FF31462846FFF778F8E8
:10A550000546FFF7CBFFFFF7C1FF284600F01EFBC3
:10A560000028EBD12021216070BD48F2045070BD5D
:10A5700010B50830FFF794F8BDE8104000F00EBBAE
:10A580002DE9F04700F108090E461446FFF798FF41
:10A59000B8B1FFF7BDFF4FF480584546AC4200D834
:10A5A00025462A4631460E48FDF735FF2A460C4916
:10A5B0004846FFF78FF80700A4EB05042E4404D0AB
:10A5C00005E048F20450BDE8F087002CE5D1FFF724
:10A5D0008DFFFFF783FF3846BDE8F04700F0DEBA95
:10A5E000585E002070B50B4800240460BFF35F8FF5
:10A5F000094D01202860FFF737F901002C604FF06A
:10A60000030004D0052901D148F2035070BD002099
:10A6100070BD0000B859002000A50250014900207B
:10A620000860704700A502500249CA6B4260096C7D
:10A6300081607047F0850020F0B54FF0FF3622B101
:10A640001268D24300230A4D0DE03246FAE7C45C9B
:10A6500062400824D70700D037462F4087EA5202CD
:10A66000641EF7D15B1C8B42F1D3D043F0BD0000D8
:10A670002083B8ED10B504460068401C07D0204682
:10A6800002F0E0FE2168814201D1012010BD0020CE
:10A6900010BD000010B50B4C90B0607800280ED1B2
:10A6A00000F086FE20220849684600F0A1FE402303
:10A6B0006A460649064800F0D3FD0120607010B0DC
:10A6C00010BD0000F05900209CD80F009C8C002089
:10A6D000F8D80F00F0B5146906468DB0206815460D
:10A6E000271DE0B1022920D00A2000906B4609AA5C
:10A6F000304602F08FFD00280FD009A901A8009A6A
:10A7000002F07EFB01AE96E80F0005AE86E80F0072
:10A71000236869683A4605A898470DB0F0BD0DB0AA
:10A720003046BDE8F04002F0DFBB6946304602F03B
:10A7300071FB0028F1D0236869683A46684698475B
:10A740000028EAD002980028F5D101987060012015
:10A75000E3E753689B7813F0C00303D0402B03D08A
:10A760000020704700F002B8FFF7B4BF2DE9FF41A9
:10A770000B465168064614468878334D00F00F02A8
:10A7800010F0300055F8225006D0102806D02028AE
:10A7900008D0302856D13EE022694DE061690120A1
:10A7A000087047E0022B28D1042A26D84FF0010870
:10A7B00069463046676902F02DFB00281AD009E08F
:10A7C0000B89226903FB00226846A84770B13888CC
:10A7D000401C3880029820B1616838884A899042CC
:10A7E000EED301987060029860BB02E04FF0000861
:10A7F000F7E7404604B0BDE8F081D4E904300F89A2
:10A800000288498907FB02338A421BD2521C02800C
:10A810001A46616810E008886169072A088009D132
:10A82000606801892069FDF71EFE60682169C068C3
:10A8300002F00BFB2269616804B03046AC46BDE80B
:10A84000F04160470020D5E728DD0F0038B52248E9
:10A8500001240168C90301D5811308E01F4801687C
:10A8600001F0F901A92904D1016801F05601016044
:10A8700000241B4D286A01282CD14FF4405019495F
:10A880004068884208D123464FF4805105F518707E
:10A890006A6BFFF757FDE8B100F0FEFD0146234665
:10A8A0001148AA69FFF74EFDA0B119200090684633
:10A8B00001F0DCFBD0F810050099C84010F0010F42
:10A8C00008D00648001F006800F0F900B12801D048
:10A8D000002038BD012038BD0004004020050040A4
:10A8E000F0850020DBE5B151918800204169002905
:10A8F00001D0C0680847704710B508281BD2DFE8B0
:10A9000000F004121A1A1A041A040120FFF786FD37
:10A910000020FFF7B5FD0120FFF7B2FDBDE81040B4
:10A920000220FFF7A5BD0120FFF7A2FDBDE8104002
:10A930000220FFF7A5BD10BD10B50446801E0628F5
:10A9400010D2DFE800F00D03030F09090A494FF4A4
:10A95000701000F017FB05E00120FFF74DFD01E04E
:10A9600001F01EF805484168002903D02046BDE8E3
:10A970001040084710BD000075AC0F00785900204A
:10A9800010B50446062801D0072C02D1002001F0A2
:10A990009FF804480168002903D02046BDE8104014
:10A9A000084710BDBC590020BFF34F8F0548016810
:10A9B000054A01F4E06111430160BFF34F8F00BF0E
:10A9C000FDE700000CED00E00400FA052DE9FC4174
:10A9D00080461F4615460E4600240D4800F02AFA10
:10A9E00038B11120BDE8FC8106EB043001F060FBBA
:10A9F000641CAC42F8D1064800F019FACDE90057C2
:10AA0000334600220221404600F02AF80020E9E700
:10AA1000105A00202DE9F843104D0F4680461E467F
:10AA200091466946286800F0D6F9040014D01C212C
:10AA3000FDF719FD01202071C4F81490380BC4F8FB
:10AA40000080C4E902606946286800F0E5F902F078
:10AA5000C1FB0020BDE8F8830420FBE754DC0F00B5
:10AA60002DE9F04387B00446DDE90E8980681D4674
:10AA700016460F4600280BD018216846FDF7F3FC58
:10AA800002A88DF8007080E86003A16868468847D6
:10AA900007B0BDE8F08330B50446006887B00D46C6
:10AAA000806800281FD018216846FDF7DCFC01955E
:10AAB000A0680590207910B1012810D107E001208D
:10AAC0008DF8000020690290E068039005E0022004
:10AAD0008DF80000E068000302906069049020682F
:10AAE00081686846884707B030BD0B2803D30B3810
:10AAF000C0B200F009B870470249002208780A7015
:10AB000070470000D8590020014908700B20704799
:10AB1000D859002001490120087070477859002059
:10AB20000149012008707047B45900200123723098
:10AB300001F02EB80EB59DF8080020F00F00401C63
:10AB400020F0F00010308DF8080068466DDF002816
:10AB500019D19DF80100401C8DF8010068466CDF9A
:10AB6000002810D10848007A800703D50748011D46
:10AB7000806901E006A1072082B202A87CDF0028DC
:10AB800001D105487ADF0EBDC0590020786E002043
:10AB90004466755461726700E6DA0F0010B50F4C19
:10ABA00048F20351031B48F21652A04211D007DCB1
:10ABB00000280AD00A4BC01808D0012804D10BE0A5
:10ABC0000A2B01D00D2B07D0104610BD48F20150C2
:10ABD00010BD48F2025010BD084610BD0202F00040
:10ABE00000FE0FFF2DE9F04781461D4616468846B8
:10ABF000494502D10020BDE8F087A8EB0900040B0D
:10AC000006F6FF704FF0000A070B00F0BDFAA542F0
:10AC10002AD22C4628E0A74202D8BA46354601E09F
:10AC2000A246250300225146484600F033FD002885
:10AC3000E1D1681E00F003002A1A0023414648466D
:10AC4000D21C00F03DFD0028D5D10948A7EB0A072A
:10AC5000761B016BA94429440163A844002000F03D
:10AC600023FF5FEA000AC6D1002ED4D15046C2E7C6
:10AC7000F08500200120FFF7BFBB000001494160C3
:10AC80000020704728DC0F0010B50B4941600B48CD
:10AC900000F0D0F868B901F06BFB08491C234FF4B1
:10ACA000EE7208740448A1F5EE71001F006800F010
:10ACB0007FF8002010BD000058DC0F005C8F0020E2
:10ACC00002480068002800D001207047105A002078
:10ACD0000248007A002800D0012070475C8F0020D5
:10ACE00010B54FF44051144B4C6800F500509C4295
:10ACF00004D042689A4201D1012200E000229C4225
:10AD000018D144689C4215D10A78142A01D949699E
:10AD100000E00021094A0378B1FBF2F1142B01D9BC
:10AD2000406900E00020B0FBF2F0814201D0012236
:10AD300000E00022104610BDDBE5B15140420F009B
:10AD400070B5054608680C464A688668284631464C
:10AD500001F09CFF6068286104F10C006861B07824
:10AD60000221B1EB901F01D1241D2C6170BD0000A8
:10AD700000F0DEF94FF48051002000F017F940B9DF
:10AD80000548C0F57E2100F011F910B9034800F024
:10AD900067F901F07DFC000000800F00F9A80F00AA
:10ADA00010B5FDF782FA08B1002010BD112010BDCA
:10ADB00010B531B1B2FBF3F403FB14241CB109202C
:10ADC00010BD0E2010BD01600021416081608281B4
:10ADD000C381084610BD70B50C460546FDF71AFA4A
:10ADE000002802D021882868084470BD10B50A8860
:10ADF00049888A4203D1FDF74FFA012010BD002097
:10AE000010BD70B50C460546FDF729FA002802D0A2
:10AE100061882868084470BD10B50A8849888A424C
:10AE200003D1FDF713FA012010BD002010BD002151
:10AE300000F003B8012100F006B808B56A46FDF736
:10AE400066FA009808BD08B56A46FDF753FA08BDD2
:10AE500008B56A46FDF742FA08BD38B50446002534
:10AE60008DF800506846FEF7DFFF216862680868C9
:10AE700090420ED9401E08600178238AE26801FBE7
:10AE80000325227A2168101AC0B20A79824200D2C0
:10AE900008719DF80000FEF7EBFF284638BD38B575
:10AEA000054600208DF800000C466846FEF7BCFF02
:10AEB000E868298A201AB0FBF1F12A681068431C5F
:10AEC000136001709DF80000FEF7D2FF38BD10B589
:10AED00030B1017A42680368891AC9B21A6006E083
:10AEE0000E2010BD03681A68541C1C601170491EA6
:10AEF000C9B2F7D2006800210171084610BD10B533
:10AF00004FF0E0224FF0FF314FF48054C2F880112F
:10AF1000C2F8801200F010FC2046BDE8104000F09E
:10AF200001B8000010B504461448C0F57F2100F0B8
:10AF30003DF808B1FEF7F0FE00F0AEFA0146104809
:10AF40008069421EC2F30B02801A0144002001F600
:10AF5000FF7100F02BF808B1FEF7DEFED4E9000126
:10AF6000002282F3148882F3108882F3118882F31E
:10AF7000138880F30888BDE81040084700800F0060
:10AF8000F085002070B5084D04460E46686802F052
:10AF9000AFFB002C06D0324621466868BDE8704001
:10AFA00002F098BB70BD00008459002030B50A053E
:10AFB00002D1B0F57F2F01D9072030BD094C22689E
:10AFC000082A01D3042030BD074B03EB0213C3F85A
:10AFD0000008C3F804180220C3F80808521C002017
:10AFE000226030BD8059002000E0014070B5194D4D
:10AFF0000024E86A2435012807D0A52808D0AA280B
:10B0000009D0AC280AD0002070BDFEF75FFE0BE02F
:10B0100002F060F907E0FEF745FF05E002F05AF99B
:10B0200008B9FEF73FFF0124284600F059FA0A4903
:10B0300000200870094800F037FD08B1032070BDFA
:10B040000120002CFBD00349096A0129F7D1022015
:10B0500070BD0000F0850020B459002021AB0F0026
:10B06000F8B52C4D686019200090684600F0FEFF8E
:10B07000009A294900EB82000026C0F800173046EC
:10B0800000F06CFC18BBFFF7B1FF20B101281BD00A
:10B09000022836D105E04FF47014FFF7D7FB10B942
:10B0A0002CE04FF4A02400F06FF81C4A2021182057
:10B0B000FEF7A4FE08B1FEF72FFE1948016801F063
:10B0C000F901B12904D007E00120FFF795F918E054
:10B0D000016801F04E01016000F014FB88B91149CC
:10B0E0002046FFF74FFF104800F0F6FA48B900BFBE
:10B0F00000F036F8FEF762FE41DFF9E700F0D6FB1C
:10B1000008B10320F8BD2E70084800F021FCFFF7BD
:10B11000F6FEF6E7785900200C000300385A0020AC
:10B120001C05004075AC0F0039A90F0015AB0F00CE
:10B1300010B540F6F8700168491C02D1074900F0CB
:10B14000CFFF40F6FC700168491C05D1BDE81040F6
:10B150004FF47E2100F0C4BF10BD000000800F003E
:10B1600010B501F08DF9002803D0BDE8104002F0C1
:10B1700027BB10BD034A93680A46014698601846EB
:10B1800002F0A8BA8459002070B50E4D2878002826
:10B1900017D101F075F9012690B10B480468A4F5A8
:10B1A0004864962C00DA962402F00AFB07492046F0
:10B1B000FFF7E0FF4FF0E0214FF48030C1F80001CD
:10B1C0002E7070BDB559002004050140FDD70F0059
:10B1D00070B504460D4620220830FDF71CF92022E8
:10B1E00005F1200104F12800FDF715F9002070BDDC
:10B1F0002DE9F8430C461749DDF82090016005461B
:10B200001F46904614480121FFF722FEBFF35F8FCF
:10B21000002618B148F20450BDE8F883FFF778F92A
:10B2200043464A4604F1080128460097FEF7F4F920
:10B230000446FFF75BF9BFF35F8F07480660200005
:10B24000EAD00649CC4202D148F24250E4E748F243
:10B250001650E1E7DD55AABBB85900207CF70FFF77
:10B2600070B516460C46054600F0E6F800280ED1EB
:10B27000AA791946304600F0ECF8002807D131468B
:10B280002046FFF7A5FF002801D10149216070BDCC
:10B290007052464D2DE9F8430C46DDE90858074643
:10B2A000994616460F49204600F0BAF8002811D1F9
:10B2B0006068414640794200284600F0CAF80028FC
:10B2C00008D14EB15FB14B46324621463846009513
:10B2D000FFF78EFFBDE8F88348F21050FAE748F216
:10B2E0001550F7E77052464D2DE9F0411D46DDE956
:10B2F00006871646044600F02DF800280DD12A4690
:10B300003146204600F03CF8002806D13A46414636
:10B310002046BDE8F04100F002B8BDE8F08170B50C
:10B3200015460E46044602F03BFA002807D13EB10E
:10B3300060682968C268914205D248F2145070BD15
:10B3400048F2135070BD83682A4631462046BDE856
:10B350007040184710B550B161B1416009680446AA
:10B360008847002802D105482060002010BD48F21F
:10B37000015010BD48F2105010BD00006E524648FA
:10B3800070B515460E46044602F00AFA00280BD1A5
:10B3900046B155B160682A46314643682046BDE84B
:10B3A0007040184748F2105070BD002070BD00007A
:10B3B0002DE9F0410B480C4D0C4F401BC6080120F5
:10B3C0003870002406E000BF55F83400804700289C
:10B3D00005D1641CB442F7D3022038700020BDE8C8
:10B3E000F081000070DE0F0068DE0F00B65900200B
:10B3F00070B514460D46064600F036F82919301986
:10B400002246BDE8704000F02FB830B50C46054626
:10B4100000F035F828192146BDE8304000F02FB87B
:10B4200028B10068884205D048F24050704748F281
:10B43000105070470020704728B139B10022C1E98F
:10B4400000201046704748F21050704748F21350E1
:10B45000704720B1914205D048F21150704748F230
:10B4600010507047002070470244521E04E000BF95
:10B4700011F8013B02F801398242F9D270470144C8
:10B48000491E05E002780B7800F8013B01F801291C
:10B490008142F7D2704700004FF44050074A41689C
:10B4A000914207D18068411EC1F30B01401A00F69A
:10B4B000FF7070474FF4805070470000DBE5B151DA
:10B4C00000B5FFF7E9FF054989690A18401E0844DD
:10B4D000C0F30B00101A00F6FF7000BDF0850020CD
:10B4E00000210160416081600148016370470000F4
:10B4F000F08500202DE9F0419846214F16460C4674
:10B500000546002301215BB1012B11D0022B1ED077
:10B510000020381AA0F54050A8421BD201221AE0A0
:10B52000FFF7CEFF8EB11749096A0129F1D00CE06F
:10B53000FFF7B2FFB8F1000F05D14FF44051124AA6
:10B540004968914201D00121E3E70021E1E74FF48E
:10B550008050DEE7002242EA0400884305D0022B37
:10B5600003D25B1CDBB2022BCCD912B10420BDE8A4
:10B57000F0811BB103481830FFF7B2FF0020F6E757
:10B5800000800F00F0850020DBE5B15170B5044666
:10B590000078092811D2DFE800F0100510112510FD
:10B5A000381013000D461D490320C968884760699B
:10B5B00000F056FBFFF799FA687070BD084628E066
:10B5C0000D46A18A206900F027FBFFF78EFA68700C
:10B5D0002846FFF729F8E1680029EED02069BDE888
:10B5E000704008470C460D490831081F00F052FB17
:10B5F000FFF77BFA60700128DFD1002000F054FAD9
:10B600000028DAD00A20607070BD08464FF400713F
:10B61000C160BDE87040FFF707B80000DC590020AA
:10B6200070B51A4A05780124936C092D2CD2DFE8F5
:10B6300005F02B052B0B0F2B252B080000F06CFFC2
:10B6400022E000F0DFFF1FE08B60106D48601BE020
:10B65000D2E91454566C2C1BA64203D00820487023
:10B66000012411E00024556554642146D36400F0A0
:10B670008DFF07490420C968884705E08B60106D7D
:10B6800048604FF48050C860204670BDF0850020AF
:10B69000DC59002013460A460146014800F0F2BB7F
:10B6A000245A002008B1034900E00349002203485E
:10B6B00000F0FEBB64DC0F0034DC0F00245A0020D5
:10B6C00008B5009313460A460146024800F088FC7C
:10B6D00008BD0000245A0020084910B50860002069
:10B6E000FFF74EF9064800F00DFA002804D1BDE836
:10B6F0001040034800F026B810BD0000BC590020DF
:10B7000081A90F00002070471FB58908002201ABF6
:10B71000009283E80700684618DF04B010BD0000FF
:10B720001FB5044B0FCB8DE80F00684618DF04B03F
:10B7300010BD0000E8DB0F004FF4805041040860AA
:10B740000020704710B5040011D00120FFF7AAFFB8
:10B7500000280BD100F04EFA00F0DEFA48B109499A
:10B76000081F00F097FA012803D0032010BD07201E
:10B7700010BD04480838C4600020FFF7C5F9002058
:10B7800010BD0000E4590020816819B1024A182157
:10B79000FEF7C4BA072070479DB70F00AFF30080D3
:10B7A00030B587B0044618221F496846FCF733FEBF
:10B7B00020788DF8000022781C4D0D2A25D2DFE874
:10B7C00002F0240B270B0B240B240B24242407004A
:10B7D000E968072088471BE020466946062A01D011
:10B7E000012A01D1027C2A702A78012A05D0022A76
:10B7F00006D000202870052008E0FFF7C7FE07E00C
:10B80000FFF70EFF20B907B030BD02208DF8010010
:10B81000D4E90112684690479DF801000128F2D052
:10B82000E96805208847EEE710DC0F00DC590020AE
:10B8300038B10549016005494160012101720020CC
:10B8400070470E207047000051B80F0089B80F00F4
:10B8500010B50C0001464FF0110007D02278052AE0
:10B8600005D2DFE802F00F050D0F0F000E2010BD0E
:10B87000084600F051F80028F9D10221217010BDCE
:10B88000112010BD082010BD0246082041B10B78E0
:10B89000022B04D1022A05D0032A00D111207047BF
:10B8A0000E207047002003220A70704770B50B48C5
:10B8B0000024D0F82413491C03D1D0F86403401CA1
:10B8C00009D04FF47F25284600F0F2FBC922034936
:10B8D000284600F01DFC204670BD0000F0850020C9
:10B8E00010B528B11C220349FCF795FD002010BDBE
:10B8F0000E2010BD64F30F0010B5064C0022182175
:10B90000201DFEF799FE2168814201D1012010BD62
:10B91000002010BD64F30F0070B50C4D0400D5F885
:10B92000640305F5597503D0401C03D0082070BD91
:10B930000E2070BD00221821201DFEF77DFE206024
:10B9400007222146284629DF70BD000000F00F00C5
:10B95000014901F06DBD000000F00F0010B5FFF7C8
:10B96000A1FE30B900F01CF8002000F09DF800287E
:10B9700000D0032010BD000010B5FF224FF400716D
:10B980000648FCF769FD054820212438FCF76BFDCB
:10B99000024900205C39086310BD00004C8600207D
:10B9A0002DE9F0472E48FEF765FE2E4E0746346817
:10B9B0002046FEF75FFE4FF0010A4FF0000958B134
:10B9C0006068012806D02046FEF7C4FCD4F85C125B
:10B9D000884201D1012500E00025234C4FF00208E8
:10B9E0004FF460719FB10A461D492046FCF713FDD4
:10B9F0009DB1366825465422311D281DFCF70BFDEC
:10BA00004FF4327206F15C0105F15C0003E015B3FE
:10BA10000A4615483168FCF7FEFC6068012818D119
:10BA20001249402201F5E470FCF7F5FC0F491C2295
:10BA3000403101F5E470FCF7EEFC84F8609284F884
:10BA4000A1A20B4884F8E292E169C0F82210C4F880
:10BA50000480BDE8F0870448FCF705FDF7E7000027
:10BA600000F00F00EC590020F08500204C870020EA
:10BA70007088002070B50546094801F0E3FC084CC9
:10BA800020602046FEF766FCC4F85C02A4F5E06383
:10BA90002A462146BDE87040024801F0D8BC0000AB
:10BAA000F085002000F00F0070B505460020FFF77C
:10BAB000E1FF040003D10349284601F0B9FC204608
:10BAC00070BD0000F08500204FF4805070470000EA
:10BAD0002DE9F04107460948094D401BC6080020E2
:10BAE000044607E005EBC400416838468847002853
:10BAF00002D1641CB442F5D3BDE8F08178DE0F00BA
:10BB000070DE0F002DE9F04107460948094D401B42
:10BB1000C6080020044606E055F834103846884729
:10BB2000002802D1641CB442F6D3BDE8F0810000C5
:10BB300078DE0F0070DE0F00012201F003BA38B585
:10BB4000144602780B467AB1012A04D0022A0DD09D
:10BB5000032A1BD112E0D0F80150002221461846DA
:10BB6000FEF76AFDA84211D1012038BD01B022467E
:10BB7000BDE830400023401C00F00AB8411C4022C0
:10BB80000020009400F0F2F80128EED0002038BD2B
:10BB90002DE9F041AAB005462020884629901E468E
:10BBA000174601247C2102A8FCF75DFCFEF772FD1C
:10BBB0002EB12022294621A8FFF756FC21AD29A944
:10BBC0000A48CDE900013B464246094902A8FFF771
:10BBD0008BFB28B9202229460448FCF74FFC00B112
:10BBE00000242AB02046BDE8F0810000448D0020EA
:10BBF00004D90F0010B50648064C806B20B101F047
:10BC00009BFC08B1012000E00020207010BD000066
:10BC1000F0850020F05900202DE9F0410F4C074637
:10BC20000D46E06BA26B01264119914201D9032612
:10BC300010E00A492A465C3108443946FCF7EBFB20
:10BC4000E06B064A2844E063403229463846FEF756
:10BC5000F3FC20643046BDE8F0810000F085002050
:10BC600070B504004FF0010504D0B4F5007F03D98E
:10BC7000042508E0032506E0044900200870FFF7CA
:10BC80007BFE03488463284670BD0000F059002005
:10BC9000F08500202DE9F04106461D480F46C16B96
:10BCA000806B814201D008242FE01A4D287840B1E2
:10BCB000FFF706FC30603946E86801F045FD0446B0
:10BCC00023E001F039FCF8B100F02CF80446002024
:10BCD00030603860012C0FD13946E86801F034FD3E
:10BCE0000446012808D13868012700213B460A464E
:10BCF000FFF700FC18B10424FFF73EFE05E0FFF754
:10BD0000DFFB30602F7000E005242046BDE8F081A5
:10BD1000F0850020F05900200148007870470000AD
:10BD2000F059002038B50F4C251D002094F86C31D7
:10BD3000014602463BB194F8D802B4F8DA2204F581
:10BD4000B87504F53771084B9C6800945B6800F087
:10BD50000DF8012804D1281DBDE8384000F052B884
:10BD600038BD000070890020F05900202DE9F04115
:10BD7000CCB0064620200D464A901F461446DDF8FA
:10BD800048817C212BA8FCF76EFBA42102A8FCF7BC
:10BD90006AFBFEF77FFC25B12EB116204CB0BDE842
:10BDA000F0811320FAE74AA91448CDE9000143467F
:10BDB0003A4613492BA8FFF797FA08B9402C01D04F
:10BDC0000A20EBE70D48224629464038FCF723FBC2
:10BDD0000A4820214038FFF718FB08484021403826
:10BDE000CDE90001A0F14801044A02A84A9BFFF7EF
:10BDF00051FA08B10520D1E70120CFE7248D0020BA
:10BE000004D90F0070B5044690F85400012570B3B2
:10BE100094F8550028B1012803D0022801D0032846
:10BE20002AD194F86E00032801D0142525E0207A49
:10BE3000E8B1E068342801D011251EE0204601F069
:10BE400095FA68B1207898B194F855100C4849B12A
:10BE5000012907D06168C06881420ED810250CE026
:10BE600012250AE061688068814206D2F6E703E0A5
:10BE700094F85500012800D00F25284670BD000019
:10BE8000F08500202DE9F0410446406815461E4625
:10BE900002680F466A432046FDF7BCFE2068334621
:10BEA0002A46D0F810C039462046BDE8F041604728
:10BEB00001600B68114618472DE9F04128B101686F
:10BEC00019B1C969BDE8F04108470D4D0D4800247E
:10BED000461B14270DE000BF04EB840005EB800037
:10BEE000016829B1C969884710B10120BDE8F08116
:10BEF000641CB6FBF7F0A042EED80020F6E7000085
:10BF0000245A0020385A0020044801214174007A44
:10BF100008B1002070470120704700005C8F0020AE
:10BF2000012801D0032808D10449002201284A74BD
:10BF300000D00020087401F0FFB870475C8F00202B
:10BF400070B50146022801D0032943D1224C207A42
:10BF500000283FD0012831D002282FD11F480023CC
:10BF60000229006802D0032928D119E0E360027990
:10BF700012B1012A22D10BE0D0E90565721B142A07
:10BF800000D314222A4482614569AA420ED015E0EA
:10BF90000169491C0161426991420FD1237213E08A
:10BFA000E268521CE260082A08D9E3602372022981
:10BFB0000AD00D21FEF76FFD01F0B4F8607C28B1C6
:10BFC000BDE8704000F0DAB90021F3E7BDE8704049
:10BFD00001F0B2B870BD00005C8F0020145A002040
:10BFE0002DE9F84304461D4616460F460846DDF87F
:10BFF0002080FDF709FE3046FDF706FE2A46394649
:10C000002046FDF707FECDF8008020682B4632461B
:10C01000D0F80CC039462046E047BDE8F8832DE94A
:10C02000FF411C46DDE90A7815460E46684600F0D9
:10C030000FF846EA450141EA840141EA072242EA53
:10C040000841009A00EB8200C0F80017BDE8FF81AC
:10C050000168202902D24FF0A040704701F01F0173
:10C06000016001487047000000030050016820296A
:10C0700002D24FF0A040704701F01F01016001485B
:10C08000704700000003005038B501240090684656
:10C0900031B1FFF7DDFF00998C40C0F8084538BD8D
:10C0A000FFF7D6FF00998C40C0F80C4538BD000062
:10C0B000094902220A60BFF36F8FBFF34F8F0A1D39
:10C0C000106006480268002AFCD000200860BFF318
:10C0D0006F8FBFF34F8F704704E5014000E40140CC
:10C0E000094A01231360BFF36F8FBFF34F8F0160C5
:10C0F000064801680029FCD000201060BFF36F8F54
:10C10000BFF34F8F7047000004E5014000E4014099
:10C1100070B50E4C01232360BFF36F8FBFF34F8FB9
:10C1200000230B4D08E000BF51F8236040F8236066
:10C130002E68002EFCD05B1C9342F5D300202060BB
:10C14000BFF36F8FBFF34F8F70BD000004E5014058
:10C1500000E4014008B5002242504058009008BD5C
:10C1600020B1034909680160002070470E20704724
:10C17000FCDC0F00FEB506460D460846FFF7F0FF53
:10C18000002844D1002400940194012706208DF852
:10C190000060ADF8040002948DF80270694620201A
:10C1A0002A6869DF00948DF801708DF802400194CF
:10C1B00002948DF80340694640202A6869DF0094A4
:10C1C0008DF80060F720ADF80200019402946946F2
:10C1D00023202A6869DF0094019402948DF800708E
:10C1E000694601202A6869DF4FF4B060009001942D
:10C1F00002946946A1202A6869DF009401940294A0
:10C200008DF800406946A0202A6869DF0020FEBD45
:10C2100060DF002802D1024A01211170704700003E
:10C220001F5A002030B51548ADF5017D0078002873
:10C2300021D04FF4FA7500BFADF8005280A96846CE
:10C2400061DF38B1052816D00DF5017DBDE830401D
:10C25000FDF762BD6C460A497DA800F0BBF806E018
:10C26000D0E90021204690477DA800F0CAF87F98C9
:10C270000028E1D0F4E70DF5017D30BD1F5A002004
:10C2800000DD0F00F8B5134C2078C0B10120A0707C
:10C2900001F0A0F8112814D0022001F0B3F8002515
:10C2A0008DF800506846FDF7BFFD11DF064625708A
:10C2B0009DF80000FDF7DCFD2EB13046F8BD0820EA
:10C2C000F8BD0020F8BDA57001F0EAF8032001F0E8
:10C2D00099F8F6E71C5A00207CB5194C207808B173
:10C2E00008207CBD0120A070002001F073F8112807
:10C2F00019D0002001F086F812480026006801904D
:10C300008DF800606846FDF78FFD0F4901A810DF2A
:10C3100005000AD0002020709DF80000FDF7A8FD60
:10C320002DB128467CBD00207CBD0120F3E7A6701E
:10C33000667001F0D5F8012001F064F8F3E7000021
:10C340001C5A002094DC0F00159D0F000EB5074904
:10C35000684600F03FF805E0D0E9001088476846DD
:10C3600000F04FF802980028F6D10EBDB0DC0F00A7
:10C3700001480078704700001C5A00200548817869
:10C3800019B1007818B1FFF77DBF08207047FFF79B
:10C39000A3BF00001C5A00201FB568464BDF30B118
:10C3A000052814D004B0BDE81040FDF7B5BC08491D
:10C3B00001A800F00FF806E0D0E9002100989047AE
:10C3C00001A800F01EF803980028E6D0F4E71FBD8E
:10C3D0001CDD0F00016009684160AFF3008010B5FB
:10C3E000D0E900215368994201D1002104E0D1E94C
:10C3F0000034A34202D01946816010BD083141606B
:10C40000F0E7816800290BD0026892680A448260D4
:10C4100041684B689A4203D108314160FFF7DFBFA2
:10C42000704700002DE9F04104461348134BC01A31
:10C430000C21B0FBF1F6A0694FF0FF3110F8022C8F
:10C4400002B92169002011E000EB400503EB8505EE
:10C450002F68974209D14F1C02D06F688F4204D1D8
:10C4600094E80F00AD68A84703E0401CB042EBD34E
:10C4700001202060BDE8F081C8DE0F00BCDE0F00A7
:10C4800002480068002800D00120704700040140E5
:10C4900003490860034801680029FCD07047000088
:10C4A00004E5014000E4014030B587B00C46054684
:10C4B000182216496846FBF7AEFF217B14488DF819
:10C4C00000100195012906D0022915D0062917D19F
:10C4D000607B049014E08188C180607B0490617C63
:10C4E000D4F80E0061F31F6005900498012807D16D
:10C4F0000848FFF7EDFA03E0B4F80D108180C18021
:10C500006846FFF741F907B030BD000038DB0F0087
:10C51000C059002070DE0F002DE9F0410C460546A1
:10C52000FFF7FAFB0826B8B16969032041B3154A41
:10C53000154B0F0505D0576DD3F808C00F4467455C
:10C540001ED1B1F5805F01D9042019E0506DD3F8F8
:10C5500008C04718674502D96670BDE8F08151648C
:10C56000D16C10659164106369695A6801F6FF71B6
:10C570001044090B0022FFF78DF80028EDD00520AC
:10C580006070EAE7F0850020DC59002010B5044611
:10C5900086B00020FFF790FC30B1154A18212046E4
:10C5A000FDF7BCFB06B010BD182212496846FBF728
:10C5B00032FF1148026D114881688A4210D14068EB
:10C5C000FFF7BAFA8DF80100FEF78FFA8DF8010037
:10C5D000D4E90112684690470948FFF765FAE1E798
:10C5E00001208DF80100D4E9011268469047D9E78F
:10C5F0008DC50F00F8DB0F00F0850020DC5900200E
:10C6000085C60F002DE9F0410E460446FFF784FB76
:10C6100060B11A4DD5E91401401AA18A6A6C084428
:10C62000904205D903207070BDE8F0810820FAE738
:10C63000134A286B52688718104A20694832FDF760
:10C64000FBFFD4E903318046A28A3846FFF738F869
:10C6500020B1D4E90310BDE8F0410847A18A286B56
:10C6600008442863A18A286DC5F8488008442865D5
:10C67000C6F80880286D7060D6E70000F0850020BD
:10C68000DC59002001490620C9680847DC59002010
:10C69000BFF34F8F05480168054A01F4E06111437B
:10C6A0000160BFF34F8F00BFFDE700000CED00E01D
:10C6B0000400FA0501460148FEF7F1BB78DE0F00E1
:10C6C00030B58A1D8B79083187B0022B33D153885E
:10C6D0008489A3422FD1127A012A2CD1184C0DF152
:10C6E000040C3CCC8CE83C000A89ADF80C204A894B
:10C6F0000C3104911249ADF80E208039114C096AB1
:10C700000591CDF818D0018A05AA6088ADDF18B967
:10C710006846FDF713FE38B10020ADF8080001A906
:10C720006088B0DF50B106E040F2FD10ADF80800BF
:10C7300001A96088B0DF002007B030BD0120FBE711
:10C7400050DB0F00C0590020F8B50D4614460646D0
:10C75000694600F057FA00280FD0009BB3F5803FE0
:10C760000AD2981C834207D8A9780222B2EB911F03
:10C7700002D02989814201D20020F8BD2380A11C6A
:10C780003046009A00F074FBF8BD114600F0D6B8B0
:10C79000114600F0E3B8F8B50C4615460646694662
:10C7A00000F030FA00280CD0009A501C904207D3B9
:10C7B000A1780223B3EB911F02D02189814201D2DB
:10C7C0000020F8BD2946304600F052FB009A0021B7
:10C7D000A954F8BD2DE9FF410C46CE681746054621
:10C7E000694600F017FB00280ED0E06800280BD047
:10C7F000A0783A46C0F3011002283146684606D0B8
:10C8000000F0DAF80199696004B0BDE8F08100F049
:10C8100086F8F7E77CB50D461446694600F08FF9B7
:10C82000002820D02889082806D0042809D002280A
:10C830000AD001280CD015E0DDE90001C4E90001AF
:10C840000AE00098206006E0009800B2208002E034
:10C85000009840B22070C117DDE9002350405940D4
:10C86000084301D000207CBD01207CBD7CB50D4675
:10C870001446694600F0A1F9002820D0288908282C
:10C8800007D00021042809D002280AD001280CD0A2
:10C8900014E0DDE90001C4E9000109E0009820602E
:10C8A00006E0009880B2208002E00098C0B22070BC
:10C8B000DDE9002350405940084301D000207CBDF1
:10C8C00001207CBD7CB50D461446694600F075F923
:10C8D000002821D02989082908D00098C2170429E6
:10C8E0000BD002290DD001290ED014E0DDE90002A1
:10C8F000C4E900020146134609E0C317014620605F
:10C9000005E001B2218001E041B22170CB17414026
:10C910005340194301D000207CBD01207CBD70B57F
:10C920000D46064614461146284600F08EFA224669
:10C9300029463046BDE8704000F03EB838B50C4698
:10C940000422694600F094FA002806D09DF80310EE
:10C95000009861F31F602060012038BD1CB50C46B3
:10C960000822694600F084FA002824D09DF80110BE
:10C970009DF800209DF80230080E42EA012242EAAA
:10C98000034240EA13409DF803309DF8041040EA4A
:10C99000132008439DF8051042EA036240EA012093
:10C9A0009DF8061040EA01409DF8071040EA01603A
:10C9B000C4E9002001201CBD2DE9F04F04469DB0C4
:10C9C00000200090064601904FF0FF3A0AA800F0C0
:10C9D0005DF94FF0010BE94682E012AB05AA06A90A
:10C9E000204600F0C9F850B10AA8059900F05FF997
:10C9F00060B10B98807810F0300F53D060E09DF854
:10CA00004800002870D11DB0BDE8F08F0598B042F5
:10CA100042D30B9D0AAE0B98807800F00F000828D7
:10CA200012D0304600F05AF90B98A842F3D156467E
:10CA30000599B14230D3D4F8088009919DF81810B7
:10CA400008910E990D6820E00B980688F0E7296898
:10CA50000F682FB1DDE9083229462046B84711E0BA
:10CA600011948968DDE90872098891420CD1294640
:10CA700017A8FEF765F985F80CB017AA3946119882
:10CA8000FDF767FE0028BED0AD6815B1A16841452D
:10CA9000DDD0A168414523D19DF81810204600F053
:10CAA00023FA1BE00C9840280AD200F01F010BFA71
:10CAB00001F00C994A0959F82230034349F8223011
:10CAC000E5682DB10AAB9DF8182020460599A847C6
:10CAD0000AAA9DF818102046FDF73BFE002892D0C8
:10CAE000A06800287FF479AFDDE90B0485780AA8F7
:10CAF00000F0F4F80028F7D115F0300F03D10B98AF
:10CB0000008800B1641CC4B10020494605E000BFA4
:10CB100051F82020521C0ED1401CB0EB541FF7D30B
:10CB2000600959F8201004F01F00C0F120022AFA11
:10CB300002F0814201D0002065E7012063E71CB5C7
:10CB40000C46694600F039F8002814D0DDE90002EF
:10CB5000C10709D051084FEA30006FEA00026FEABE
:10CB60000100C4E9002004E051084FEA3000C4E9A4
:10CB700000014FF001001CBDF8B5074600201870F9
:10CB800008700E4610601C4615466946384600F08F
:10CB900039F801004FF0010009D0009959B1C808D7
:10CBA0002860009800F0070030700120F8BDB968D7
:10CBB00009B10020F8BD2070FBE72DE9F8430026FD
:10CBC000884681463446354604E0402E02D3002094
:10CBD000BDE8F8836946484600F076F90028F7D0AA
:10CBE0009DF80070324607F07F00C10FFBF704FC90
:10CBF00029430443F61D0D463806E6D4C8E9004132
:10CC00000120E5E7F8B50E460746694600F05CF9F5
:10CC100000280AD09DF80040200616D5072504F00C
:10CC20007F0403E0202D01D30020F8BD694638467B
:10CC300000F04AF90028F8D09DF8001001F07F00BC
:10CC4000A8400443ED1D0806ECD401203460F8BD73
:10CC500010B559680B4AC968914212D10A4AD0E905
:10CC60000110D2E90134234301D0002008E011F87B
:10CC7000013BA0F101001B06F9D4C2E9011001201B
:10CC8000907010BD80D90F00F0590020C2600023C1
:10CC90000160C0E901138B881A440261B1F90630C2
:10CCA0001A4442610888002800D00120704770B5FE
:10CCB00045680E46044660680188B14206D1807816
:10CCC00000F00F00082801D0012070BD204600F0C0
:10CCD00005F86068A842EED1002070BD30B541680B
:10CCE0000A885AB101F1100343600A8A42B18C7874
:10CCF0000A89C4F30115032D07D00BE0002030BDD5
:10CD0000C2680168FFF7C2FFF8E79D78C5F3011517
:10CD1000032D06D00225B5EB141F08D14C896243C0
:10CD200009E08D8804690022641B046103E0B5EB0F
:10CD3000941F00D10422897811F0300F02D181684C
:10CD4000491C81609C880169214411440161B3F947
:10CD5000062011444161012030BD30B541680024F6
:10CD600087B0897801F00F02082A11D08A091ED0F5
:10CD70000222B2EB911F09D10269C1F3011102290C
:10CD8000146001D0032901D14069048007B030BD8F
:10CD90000069056808E02C7329466846FDF7D0FF56
:10CDA0006846FFF7DAFFAD68002DF4D1EEE7C1F376
:10CDB0000111012912D00229E6D00329E4D04268EA
:10CDC000917801F00F0107290BD0D16881B1128948
:10CDD000006907B0BDE83040FBF71DBB41690C702E
:10CDE000EDE70169D06807B0BDE8304000F02DB82C
:10CDF0001189006907B0BDE83040FBF734BB000083
:10CE000010B5034B002408C080E8160010BD0000D8
:10CE1000A3A40F0038B50D4604466946FFF7F2FE9D
:10CE200000280BD0D4E90002D4E90213C5E90002BE
:10CE3000C5E902130098814201D2002038BDA860E4
:10CE4000A168081AA060012038BD00B50A4687B065
:10CE500001466846FFF71AFF002807D06846FFF72B
:10CE60007CFF6846FFF73AFF0028F7D107B000BD06
:10CE70007FB514460546A9B9124A2868904208D1E0
:10CE800010E0102269462846FFF7F2FF002807D07D
:10CE9000103C102CF5D8224669462846FFF7E8FFDB
:10CEA00004B070BDA868A04201D20020F8E72B684A
:10CEB0002246284698470028F2D0A868001BA860A0
:10CEC0000120EDE7A3A40F0010B5044680680028F8
:10CED00009D02368012220469847002803D0A06883
:10CEE000401EA060012010BD38B5002439B10129D1
:10CEF00012D0022912D005291DD0002038BD0546C8
:10CF0000012269462846FFF7B3FF90B19DF8000063
:10CF10000006F5D4012038BD08220DE0054669461B
:10CF2000FFF770FE28B100212846009AFFF7A0FF06
:10CF300038BD204638BD0422BDE838400021FFF747
:10CF400097BF00002DE9F04F81462C4817460E464A
:10CF5000C5680A4693B0012449462846FDF7E6FD18
:10CF6000DFF89C80A24670B195F8550068B100F0DA
:10CF70000101C0F340024B462846CDE9006700F0AE
:10CF800043F8D8B11BE0172419E0CDE9006A4B46FD
:10CF90000022294602A8FDF7E3F94FF0000B68B123
:10CFA0000FB3412202A91748FBF735FAC8F820B0A1
:10CFB000C8F82CA06968C8F8081017E005246FB1FC
:10CFC000012C13D00E482430FEF78AFAFEF7D4FC69
:10CFD000C8F8489013B02046BDE8F08F012C02D06D
:10CFE000FEF7CAFCF6E7C8F814A0F3E700223146C2
:10CFF0004846FDF721FBC8E90960E7E7F059002042
:10D00000F0850020918800202DE9F047A4B08946E2
:10D01000DDE92C5A044698461646442102A8FBF73F
:10D0200022FA442113A8FBF71EFA4746B9F1000F74
:10D0300038D008F50050384A4368A16D934255D165
:10D040004B1EC3F30B03C91A41F6FF73D0F808C097
:10D0500019448C454AD34FF440514B6893420DD14B
:10D060000A78102A01D9096900E000210278102A03
:10D0700001D9006900E00020814237D14046FDF728
:10D080002FFE00B18EB30121A06DCDE90001434612
:10D090000022214602A8FDF763F9002827D0A06DE1
:10D0A00007442D1A56B10020CDE900503B464A46B0
:10D0B000214613A8FDF754F9002818D0BAF1000F43
:10D0C00028D0164DB9F1000F19D04046FDF708FEE3
:10D0D00018B105F11800FEF703FA412202A9104821
:10D0E000FBF799F936B1AC2005E0FFE7002024B04A
:10D0F000BDE8F087A520E862A06D686301E0AA2082
:10D10000E8623EB10648412213A98230FBF783F959
:10D110006068E8600120EAE7DBE5B151F0850020B6
:10D1200050880020034802490068FDF75FBE0000F8
:10D13000185A002054DC0F002DE9F041224C002544
:10D14000224E207A012730B92148311D0068FDF7B1
:10D1500058FE306038B1022020723168087928B159
:10D1600001281CD114E06560BDE8F081D1E9050318
:10D17000C01A142800D31420B7EB900F01D28208F4
:10D1800000E001220869C9681844194429DF03E056
:10D19000D1E90301084428DF58B1112812D0032136
:10D1A0003068FDF778FC25726560BDE8F041FFF757
:10D1B000B9BF207C0028D7D1BDE8F0410021022072
:10D1C000FEF7BEBE2772CFE75C8F0020145A002006
:10D1D00054DC0F0010B5074C201DFDF72BFE002876
:10D1E00006D1607C002803D1BDE81040FFF7A4BF42
:10D1F00010BD00005C8F002010B510461A46FBF7EA
:10D200000AF9002010BD10B510461A46FBF703F9C5
:10D21000002010BD2DE9F0411E681C46154607464A
:10D2200021B1012918D0052923D119E0002020605F
:10D23000401C2060B0421CD8012229463846FFF726
:10D2400017FE002806D015F8010B000601D520684E
:10D25000EEE70120BDE8F08108200246186002E0F8
:10D2600004200246186029463846BDE8F041FFF721
:10D27000FFBD0020EEE770B516460A460446C11C05
:10D28000104600F03FFA054661193046C91C00F00F
:10D2900039FA284470BD000003B5094A85B0D2E9C7
:10D2A0001612CDE9001207498989ADF8001006A9C8
:10D2B000CDE90210044869464088AEDF07B000BDE2
:10D2C000D0DA0F00946E0020C05900200846704745
:10D2D0000846704770B5FEF7F7FB114A114E136B05
:10D2E000546B916CE21A551EC5F30B05521B42F2AA
:10D2F000040518446D5802F6FF72B54201D00320B0
:10D3000070BD1944A34201D1002070BD0823FDF770
:10D3100069FC0028F9D1BDE87040FEF7C5BB0000EC
:10D32000F0850020DBE5B151F0B50546002003464D
:10D330004FF440540C4E4FF6FE7712E0D4F804C080
:10D34000B44505D155F823C0B4F80CE0F44504D039
:10D350002AB155F823C0BC4501D10120F0BD5B1CAA
:10D36000DBB28B42EAD3F0BDDBE5B15110B54FF42F
:10D370004051174B4A68018A9A4221D171B100F19C
:10D380001403426990F8550062B1042808D00022C5
:10D39000BDE81040C9B21846FFF7C6BF002010BD57
:10D3A0000122F5E710B1012808D1F7E7012905D9D5
:10D3B000C9B200221846FFF7B7FFEFE7012010BD02
:10D3C00011B141690029E9D100780028F6D110BDDA
:10D3D000DBE5B1513EB5044609496846FEF7FAFF60
:10D3E00008E000BFD0E900212046904730B16846F0
:10D3F000FFF707F802980028F4D13EBD11203EBD8A
:10D4000098DC0F003EB5044608496846FEF7E2FF87
:10D4100007E000BFD0E90021204690476846FEF7AC
:10D42000F0FF02980028F5D13EBD0000A4DC0F00FB
:10D4300002460348014B006800F009B870820020E2
:10D44000EC59002000225821001DFDF7F5B82DE908
:10D45000F04114464FF460751E460F4680462A463A
:10D46000FBF70CF830B1002201214046FEF712F91B
:10D4700098B905E00CB10020A0470020BDE8F0817C
:10D480002A4639463046FAF7C6FF23462A46314631
:10D490004046FEF715F90028F0D00320EEE7000023
:10D4A00010B51620FCF79EFB48B10C4882684FF47B
:10D4B000800152B1016821F48001016010BDBDE816
:10D4C000104042F20100FCF727BC4FF0E020C0F80A
:10D4D0008011BFF34F8FBFF36F8F10BD648D00209D
:10D4E00010B51620FCF77EFBA0B1114890F800049F
:10D4F0004009082811D20121814011F0EC0F0CD015
:10D500000C4882684FF480016AB1016841F48001DF
:10D51000016010BD42F2010001E042F20200BDE8EC
:10D520001040FCF7F9BB4FF0E020C0F8001110BD2F
:10D5300016E000E0648D00207FB52A4800F15C0110
:10D54000826B6846FFF75CFC274E9DE8070006F1FA
:10D550001C03274C83E8070019462448C8600020B4
:10D56000A0706060A0604FF44771A6F54070FAF7B4
:10D570007AFFA6F540721F4902F54770FFF7CFF911
:10D5800000282BD0A07858B3A6F5407090F86C1105
:10D59000002901781CD019BB90F8720100B3D4E9BE
:10D5A0000112A6F5C6756846FFF72AFC9DE80F0034
:10D5B0001C3686E80F004FF4B2712846FAF753FF85
:10D5C0002A460D493046FFF7AAF9002806D003E0A5
:10D5D00031B1807920B1094D0120E56004B070BD02
:10D5E0000020FBE7F0850020708C002051CC0F005C
:10D5F000F0590020A0DA0F0080D90F0078890020B0
:10D6000070B503466FF07F40814200D20846124D4C
:10D61000D5F804250244081A411E22F07F425860C2
:10D62000952902D29630963A58601C7B05EB84000F
:10D63000C0F8402509494FF4F86088474FF4A070BE
:10D6400000EB84012846FEF785FD4FF48030A040B2
:10D65000C5F8040370BD000000400240F1D80F007F
:10D6600070B5174E3078002829D11648006801257A
:10D67000C0F3004008B914480560144C4FF48071A1
:10D680002046FEF767FD4FF4A0712046FEF762FDCD
:10D690004FF4A2712046FEF75DFD0D49A02081F8F0
:10D6A00000040B4910202039C1F800010020C4F803
:10D6B0000805A56025600220C4F80403357070BD1C
:10D6C0008459002018040040080000400040024037
:10D6D00024E000E070B515460E460446FFF7C0FF93
:10D6E000314620462560BDE87040FFF789BF000045
:10D6F000017B4FF4803088400149C1F8080370472E
:10D70000004002400870020A4A70020C8A70000E43
:10D71000C87004207047000010B50248FDF787FB71
:10D72000002010BD105A002010B514210448FAF74B
:10D730009AFE04480068FDF733FB002010BD00008E
:10D740005C8F002054DC0F0030B50F2490F855306A
:10D7500000220BB1042B03D190F86450012D06D0A8
:10D76000DD0707D090F85650012D02D002E0826EFE
:10D770000DE0826D9B070AD590F85C30012B06D135
:10D78000064B006EC3F57E23984205D802440AB1C9
:10D7900001240A60204630BD0424FBE700800F000E
:10D7A00030B100680549884205D048F20250704700
:10D7B00048F2015070470020704700006E52464802
:10D7C00070B5FEF75DFE002811D00020084A094B15
:10D7D000094C0121166801FA00F52E4203D004EB32
:10D7E0008005C5F80036401CC0B20728F2D370BDD2
:10D7F000080501403546526E00000140FFF7E0BFCA
:10D8000000207047002070472DE9FC4180461C46EF
:10D8100017460E460C48089DFDF70CFB10B1112071
:10D82000BDE8FC81A20839463046FEF771FC064887
:10D83000FDF7FDFA33463A4601214046CDE9004561
:10D84000FDF70EF90020EBE7105A00202DE9F84F04
:10D85000114D884681461E4617466946DDF828A0C8
:10D860002868FDF7B8FA040013D01C21FAF7FBFD75
:10D8700000202071C4F80090C4E90486C4E902A71E
:10D8800069462868FDF7C8FAFFF7A4FC0020BDE848
:10D89000F88F0420FBE7000054DC0F00168D0D8884
:10D8A00038F08938E6FD9FB9FFBDE00C8F991591DE
:10D8B00011F2EC031BC4AD061371F3FE1FF7569B68
:10D8C0004C0EA4A5E9B688B06500ABEBD267C9FCE5
:10D8D000B96954AD80BC574B0E3B08DC0D0E0F10E0
:10D8E0000B0C1819000000000000000000000000F0
:10D8F0000338FDD8704700004800000000204000B9
:10D900000000000071A50F0081A50F0029A50F00E0
:10D9100020000000000000000000000000000000E7
:10D9200001000100000000000100000000000000F4
:10D9300002000500010000002200000000000000BD
:10D9400000000000000000000000000000000000D7
:10D9500001000100000000000100000000000000C4
:10D96000020005000100000042000000000000006D
:10D9700000000000000000000000000000000000A7
:10D98000010011000400FCFF040000000000000082
:10D99000020011000400FCFF040000000000000071
:10D9A000030021000400FCFF040010000000000040
:10D9B000040011000100FFFF010000000000000052
:10D9C000050011000200FEFF04000000000000003E
:10D9D000060011000400FCFF04000000000000002D
:10D9E000070011000400FCFF04000000000000001C
:10D9F000080017000200FEFF2400000020D90F00DD
:10DA0000090010000100FFFF010000001CD90F00F9
:10DA10000A0027000200FEFF4400030050D90F0057
:10DA200000000000000000000000000000000000F6
:10DA3000010011000100FFFF0100000000000000D4
:10DA4000020017000200FEFF6401000080D90F00F1
:10DA500000000000000000000000000000000000C6
:10DA600001000700000000006801000030DA0F002C
:10DA700002000100000000000100000000000000A2
:10DA8000030005000100000042000000000000004B
:10DA90000000000000000000000000000000000086
:10DAA000010017000400FCFF6801000030DA0F00DD
:10DAB000020017000400FCFFAC01000060DA0F0058
:10DAC0000000000000000000000000000000000056
:10DAD000001103000011130002000000010000000B
