:020000040002F8
:1070000058560020C1730200C9730200CB730200FE
:10701000CD730200CF730200D173020000000000A4
:10702000000000000000000000000000D373020018
:10703000D573020000000000D7730200D97302006C
:107040001D760200DB73020059780200DB73020038
:10705000DB730200DB73020079750200DB73020050
:10706000DB730200DB730200DB730200DB730200E0
:10707000DB730200DB730200DB730200DB730200D0
:10708000DB73020075760200DB730200DB73020023
:10709000DB730200DB73020085760200DB73020003
:1070A000DB730200DB730200DB730200DB730200A0
:1070B000DB730200DB730200000000000000000030
:1070C000DB730200DB730200DB730200DB73020080
:1070D000DB730200DB730200DB730200DB73020070
:1070E000DB730200DB730200DB73020000000000B0
:1070F00000000000DB73020000000000DB730200F0
:10710000000000000000000000000000000000007F
:10711000000000000000000000000000000000006F
:10712000000000000000000000000000000000005F
:10713000000000000000000000000000000000004F
:10714000000000000000000000000000000000003F
:10715000000000000000000000000000000000002F
:10716000000000000000000000000000000000001F
:10717000000000000000000000000000000000000F
:1071800000000000000000000000000000000000FF
:1071900000000000000000000000000000000000EF
:1071A00000000000000000000000000000000000DF
:1071B00000000000000000000000000000000000CF
:1071C00000000000000000000000000000000000BF
:1071D00000000000000000000000000000000000AF
:1071E000000000000000000000000000000000009F
:1071F000000000000000000000000000000000008F
:10720000DFF80CD000F07AF9004800479DBB02007F
:107210005856002030B450E8012F93B2C48923445B
:107220008489A34228BF1B1B0489A34202BFBFF36A
:107230002F8F002007E0C3EA020340E80134002C4E
:10724000E9D14FF001000A6030BC704750E8012FCF
:10725000C2EA024240E801210029F7D1704730B468
:1072600050E8022F1FFAA2F3C488A34202BFBFF363
:107270002F8F00200DE0C48923448489A34228BFB6
:107280001B1BC2EA034340E80234002CE8D14FF054
:1072900001000A6030BC704750E8022FC2EA224267
:1072A00040E802210029F7D17047034653E8022F36
:1072B000D988B2EB324F4FF0000017BF92B241EACB
:1072C000014142EA014104E05A68B2EB324F08BF83
:1072D000012043E80212002AE8D1704730B4044686
:1072E00054E8000F0D4644E80053002BF8D1156018
:1072F00030BC704730B4044654E8000F40EA010542
:1073000044E80053002BF7D1156030BC704730B40F
:10731000044654E8000F00EA010544E80053002B3E
:10732000F7D1156030BC704730B4044654E8000F04
:1073300080EA010544E80053002BF7D1156030BC0A
:10734000704730B4044654E8000F00EB010544E8F0
:107350000053002BF7D1156030BC704730B40446A1
:1073600054E8000FA0EB010544E80053002BF7D1CF
:10737000156030BC704770B404464FF0000054E80C
:10738000006F0D68AE4207BF44E80023012044E8C7
:1073900000630E60002B1CBF0020F0E770BC70473C
:1073A00030B4044654E8000F88422CBF451A054605
:1073B00044E80053002BF5D1156030BC7047000045
:1073C0000648804706480047FEE7FEE7FEE7FEE77F
:1073D000FEE7FEE7FEE7FEE7FEE7FEE7897602004E
:1073E000017202002DE9F05F0546002092469B469F
:1073F00088460646814640241BE0284641464746CB
:10740000224600F06BF853465A46C01A914110D3F9
:1074100011461846224600F016F82D1A67EB0108AF
:107420004F4622460120002100F00DF817EB00091D
:107430004E41201EA4F10104DFDC484631462A46B5
:107440004346BDE8F09F202A04DB203A00FA02F10F
:10745000002070479140C2F1200320FA03F3194342
:107460009040704700487047E428030040EA010359
:107470009B0703D009E008C9121F08C0042AFAD2EA
:1074800003E011F8013B00F8013B521EF9D27047AE
:10749000D2B201E000F8012B491EFBD27047002256
:1074A000F6E710B513460A4604461946FFF7F0FF03
:1074B000204610BD421C10F8011B0029FBD1801A88
:1074C000704730B504460020034600E05B1C934241
:1074D00003D2E05CCD5C401BF8D030BD202A04DB39
:1074E000203A21FA02F00021704721FA02F3D0403D
:1074F000C2F120029140084319467047064C074DDF
:1075000006E0E06840F0010394E807009847103473
:10751000AC42F6D3FFF778FEA43F0300C43F03005C
:1075200070B58C1810F8015B15F0070301D110F845
:10753000013B2A1106D110F8012B03E010F8016B72
:1075400001F8016B5B1EF9D12B0705D40023521EF5
:107550000DD401F8013BFAE710F8013BCB1A921C5D
:1075600003E013F8015B01F8015B521EF9D5A1425B
:10757000D8D3002070BD00002DE9FC410025DFF8C4
:10758000948000954FF4807601242F460195304673
:1075900005F07AFD38B1D8F80403204203D0304614
:1075A00005F068FD2543361D64007F1CB6B2082F28
:1075B000EDD34FF4BE74204605F066FD48B1204679
:1075C00005F058FD45F000456A460221002005F00F
:1075D000B9FC15F0FF0F16D0012600242E420ED064
:1075E00008EB8401D1F81005D1F81015C0F305207F
:1075F000094AC1F3014152F8242002B190477600B4
:10760000641C082CEAD3002D02DA684608F0EAFC74
:10761000BDE8FC8100600040A02D002070B54FF453
:107620008076304604F056FF114CB50560B1304607
:1076300004F057FF0120C5F80803607920B9012044
:1076400060712168002088474FF48276304604F04C
:1076500041FF00280AD0304604F043FF0220C5F85D
:1076600008032168BDE870400120084770BD000094
:10767000D023002002490248091F09680068084712
:107680004024002006F0C6BA30B54FF080520023E7
:10769000D2E94C10082906D1CC06C4F80C31C4F844
:1076A0001031614C2360082955D1604B1B68604C38
:1076B00023605E4B1B1D1B68241D23605B4B08333E
:1076C0001B68241D2360594B0C331B68241D236049
:1076D000564B10331B68241D2360544B14331B6816
:1076E000241D2360514B18331B68514C20342360F8
:1076F0004E4B1C331B68241D23604C4B20331B68EE
:10770000241D2360494B24331B68241D2360474BF1
:1077100028331B68241D2360444B2C331B68241D15
:107720002360424B30331B68414C403423603F4B55
:1077300034331B68241D23603C4B38331B68241DE5
:1077400023603A4B3C331B68241D2360374B403386
:107750001B68241D2360082904D1030002D1364C84
:10776000344B2360082904D1030002D1334CFB239E
:107770002360082908D1030006D1314B92F85852F2
:107780001C6865F303041C60082904D1030002D1BE
:107790002C4C8B012360082906D12B480168C907AE
:1077A00002D06FF0010101602848016841F47001C6
:1077B0000160BFF34F8FBFF36F8FD2E94C104FF0D2
:1077C0001022082906D1032804D9D2F80802164944
:1077D00020310860D2F80002002803DBD2F804024E
:1077E00000281FDA012006F0C7FE1221C2F800129D
:1077F00017480368002BFCD0C2F804120168002966
:10780000FCD0002006F0B8FEBFF34F8F0F487C3845
:107810000168104A01F4E06111430160BFF34F8F2A
:1078200000BFFDE730BD0000380500400404001033
:1078300020C50040488103008C56004018F50040E8
:10784000E40E0040409602400004004088ED00E055
:1078500000E401400400FA05014800680047000008
:10786000D823002002E008C8121F08C1002AFAD15C
:1078700070477047002001E001C1121F002AFBD1B0
:10788000704700000121202803DA814005480140AB
:1078900003E0402802DA2038814009B10120704716
:1078A00000207047FC06FFBD2DE9F843804643F2F7
:1078B000020659B9694607F06DFDB04202D008B121
:1078C00000F0ACF99DF80000800744D40021404648
:1078D00007F06AFD05003ED0112D3CD01F4820491D
:1078E000401AC708022000EB07440D2D0AD00B2DCB
:1078F0001DD0B5421FD11B4920464246BDE8F84382
:1079000005F0C8BD20464246174905F0C3FD1321C6
:10791000404676DF00281ED006F02EFA024601B05F
:1079200020464346BDE8F04310A105F0BABD20460D
:1079300042461C49E2E7284606F01EFA02460120AC
:1079400000EB0740434618A105F0ABFD2846BDE813
:10795000F84300F063B9BDE8F88300000C40030071
:10796000D43F0300AC3003003830030073645F621F
:107970006C655F6761705F646973636F6E6E65638A
:107980007428292072657475726E656420257320D1
:107990006F6E20636F6E6E5F68616E646C6520252C
:1079A000642E0000F8300300417373657274696ED1
:1079B000672E20706D5F636F6E6E5F7365637572A7
:1079C0006528292072657475726E656420257320A0
:1079D0006F6E20636F6E6E5F68616E646C652025EC
:1079E000642E000010B560B159B102780B785208CE
:1079F000B2EB530F05D10622401C491CFFF761FD75
:107A000008B1002010BD012010BD800701D000206A
:107A1000704701207047C3688B4206D81144006943
:107A2000491E814201D8012070470020704790F81C
:107A30002400012801D01F207047EE20704710B5A8
:107A400001220221002001F0AFFC08B1072810D16B
:107A500007220221012001F0A7FC08B1072808D164
:107A600000210A22084601F09FFC08B1072800D136
:107A7000002010BD10B504462C21FFF710FD012099
:107A800020714FF49670206144F25060606110BD27
:107A900070B58CB015460E4600236C46C3F10F013D
:107AA000415CE1545B1C102BF8D30D2104F1100054
:107AB000FFF7F5FC0020C0F10F02315C2244401CAE
:107AC00011740328F7D3684646DF0020C0F10F0188
:107AD000214491F820102954401C0328F6D30CB0FF
:107AE00070BD022001F062BB0149C97800F07EBE82
:107AF0009823002070B50024064D06E06868012137
:107B000010F8340006F0ACF9641C28788442F5D3F0
:107B1000002070BDE0230020F8B516460C4605464F
:107B20000A2A01D20720F8BD06F092FA18B906F029
:107B300053FA0028F7D1134F202113487D603C7081
:107B4000BE60FFF7ACFC0020C7E904000F4E0DE05B
:107B500005EBC4003168009181788DF80110007840
:107B60000B4A694606F0C8F90028DCD1641EE4B26D
:107B7000EED2BDE8F84005480021064A001D00F09D
:107B8000A7B80000E02300205C2E0020442503005D
:107B900079AE02006D9D020072B605F021FD00BFB6
:107BA00005F058FB0028FBD111481249401AC408BF
:107BB000012000EB044010A105F068FC11480068AA
:107BC000C00700D000BE022000EB04400EA105F06B
:107BD0005DFCBFF34F8F0B48E43801680E4A01F497
:107BE000E06111430160BFF34F8F00BFFDE700006C
:107BF0007C400300D43F0300466174616C206572D1
:107C0000726F7200F0ED00E053797374656D20724D
:107C100065736574000000000400FA050EB50021CC
:107C20000091CDE901106A4644F20100FFF7B4FF6C
:107C30000EBD000010B502280ED108480849401AB0
:107C4000C108032000EB0140044606A105F01EFC1C
:107C5000204610A105F01AFC012010BD7C40030055
:107C6000D43F0300506F776572206D616E61676568
:107C70006D656E742077616E747320746F20726509
:107C800073657420746F20444655206D6F64652EB3
:107C900000000000506F776572206D616E6167654E
:107CA0006D656E7420616C6C6F77656420746F20F5
:107CB000726573657420746F20444655206D6F643F
:107CC000652E0000014802F0D2B8000020240020F8
:107CD00010B55AB100684FF0FF3401294261C0E984
:107CE000024400D000210161002010BD072010BD1A
:107CF00038B5114808235822416800910F4900689F
:107D000004F093F9002815D10D4A69460D4802F098
:107D1000B3F804000ED101210A4802F028F901232A
:107D2000094A1946074802F07AF80649012008393D
:107D30000870204638BD00004C2503008C2E002022
:107D4000DD06030020240020FFFF7F00F8B5044675
:107D5000002617460D468DF80060684600F042F890
:107D6000D4E90201C04370EA010005D09DF800008B
:107D700000F05CF80020F8BD03F064F84019714190
:107D8000C4E902019DF8000000F050F8A7612069E5
:107D900000B125612146BDE8F840002009F03ABD58
:107DA00038B5044600208DF80000684600F01AF847
:107DB000D4E90201C04370EA01000DD04FF0FF305A
:107DC000C4E902009DF8000000F030F82146BDE84B
:107DD0003840012009F01EBD9DF8000000F026F893
:107DE000002038BD30B5EFF3108172B60D4A9468AB
:107DF000012324B10370002900D162B630BD936025
:107E00004FF0E023D3F88051074C25401560C3F8AC
:107E10008041D3F8844154605A17C3F8842100226A
:107E20000270E8E7E42E0020FC06FFBD0B498A68DB
:107E3000002A11D000280FD1EFF3108072B60B6822
:107E40004FF0E022C2F800314B68C2F80431002242
:107E50008A60002800D162B670470000E42E00203E
:107E600070B5054608680C46411C04D005F0DBF8E7
:107E7000206805F03BF86068411C02D0002105F045
:107E800023F82968A069C1F82405607D227D29684E
:107E90001043C1F86C05D4E900122868C0F8142515
:107EA000C0F80C15207D012814D1A068411C02D017
:107EB000002105F009F8E068411C04D005F0B3F892
:107EC000E06805F013F8D4E902122868C0F8082524
:107ED000C0F8101570BD70B5054608680C46411C09
:107EE00004D005F0AAF8206805F00AF86068411C83
:107EF00002D0002104F0F1FF2968A069C1F824052F
:107F0000607D217D2A680843C2F86C05D4E900121F
:107F10002868C0F80C15C0F81425207D012814D15C
:107F2000A068411C02D0002104F0D7FFE068411C8A
:107F300004D005F082F8E06804F0E2FFD4E9021210
:107F40002868C0F80825C0F8101570BD03F0ECBC17
:107F50002DE9F047814605884A484FF000088AB06D
:107F600001784246284600F059FC99F80500400780
:107F700001D4002176E005F58077B8B205AB012287
:107F8000072106F05BFE04003F48404A4FF0010124
:107F9000A0EB02004FEAD00001EB00460AD02046D9
:107FA00005F0EAFE024630462B46394905F079FADB
:107FB000214629E0284603F04DFA4FF6FF710446AA
:107FC00088422BD18A46069803F0AEF90446504504
:107FD00010D00146284603F01DFA2846FFF784FD1D
:107FE000E0B9284608F040FE2846FFF77DFD00284E
:107FF000BFD013E006F0F8FF0446504508D13046E4
:1080000024A105F043FA0421284608F05BFEB0E7FE
:108010000146284603F0FEF94FF00108B8B22246A7
:10802000072106F083FE07001BD0862F1ED005F027
:10803000A3FE024630462B462349009405F039FA48
:108040003946284608F03EFE0021484606F0EEFC80
:10805000B8F1000F02D0204603F0E6F90AB0BDE8FF
:10806000F0870121484606F0E1FCF7E714221749A2
:108070006846FFF7FBF9ADF80250684602F098F940
:10808000EFE700009823002014400300D43F0300D2
:10809000F4330300436F756C64206E6F7420616C61
:1080A0006C6F63617465206E657720706565725FC3
:1080B000696420666F7220696E636F6D696E6720F8
:1080C000626F6E642E00000010350300C8240300A8
:1080D0002DE9FC47002517880646158090F82D00ED
:1080E0001446894630B13A462146484600F0BCFB6A
:1080F000051E09D1B0784FF00C0A18B32088C84685
:10810000001DB84202D95046BDE8FC87684679DFB9
:108110000028F9D12088032108F8001020881921AF
:10812000401C80B2208008F800102088401C80B2DB
:10813000208000EB0801BDF8000009F03AFD21881D
:1081400008442080F0780222C8B1218896F90330D3
:1081500001F1030C4846BC45D5D8425421884FF064
:10816000010C491C89B2218000F801C02188491CFA
:1081700089B2218009F801302088401C2080706875
:10818000B8B1218890F9003001F1030C4846BC4594
:10819000B9D8425421880A22491C89B2218042540C
:1081A0002188491C89B2218009F801302088401CAF
:1081B0002080308950B1CDE900474B46062202218C
:1081C00006F1080009F0E4FD051E9DD1308A50B18A
:1081D000CDE900474B460722032106F1100009F0C4
:1081E000D7FD051E90D1308B50B1CDE900474B46ED
:1081F0001522142106F1180009F0CAFD051E83D1CD
:10820000306A30B13B462246494601F062FC051E09
:10821000DBD1706A30B13B462246494603F0E0FDAF
:10822000051ED2D196F82C0038B13B46224649466D
:10823000304608F083FE051EC7D1307838B13B4682
:1082400022464946304603F059FE051EBDD1284658
:108250005AE718B504460020ADF8000013466A46F8
:10826000204600F006F8002802D0BDF800002044A7
:1082700018BD70B5E0B1DAB1002402E0045D2C4411
:10828000A4B2651C8D4206D21688A642F6D80619FD
:1082900076789E42F2D18C420AD2A31C005D9BB23A
:1082A00000B1401E0004000C02D01C188C4201D901
:1082B000002070BD138070BD80F8301070472DE92C
:1082C000F0410D00044606D02CB195F87A00002646
:1082D000012803D006E00E20BDE8F08195F8980053
:1082E000012821D04FF00108A6702C2205F1780159
:1082F000201DFFF7BBF884F83060D5F8A400606358
:10830000D5F8A800A0634FF6FF70A4F8240404F584
:108310008260C4F82004C4F82664A4F82A6484F8AF
:108320002C64207810B104E00720D5E7FF2084F802
:10833000540004F155072046C4F81074FFF777FB8A
:10834000A4F8140404F2144239462846FFF7C0FE8C
:108350000028C1D104F23120C4F818042046FFF7E8
:1083600066FBA4F81C0404F21C4205F13C00D4F89E
:108370001814FFF7ADFE0028AED184F85180208B91
:10838000A4F8480084F83C80266484F85060606952
:1083900000216064454604F13C02781E72DF00282B
:1083A0009AD1257098E72C22001DFFF75FB810B511
:1083B0000288102A1BD0112A20D0262A1DD1007A2B
:1083C0000C46012801D0022817D1A0780521401CB5
:1083D000B0FBF1F201FB1201204600F03AF8002850
:1083E0000BD0A16B002908D0BDE810400847C27B24
:1083F000012A02D18088A1F8240410BD0C46002176
:1084000084F82E148088B4F824148842F5D1207999
:108410000028F2D10121DFE710B5044690F854009E
:1084200074DF012084F82E04002084F8300484F8DE
:1084300050000621204602F0F6F9002808D1A17864
:10844000204600F006F810B1A16B01B1884700206A
:1084500010BD2DE9F05F044600780F4698B1A77073
:108460000025C4F82654A4F82A5484F82C54A07982
:10847000012608B1012F09D0E07980B1012F05D084
:10848000022F03D00BE00820BDE8F09F616B21B103
:1084900084F82D640820884701E084F82D5404F204
:1084A000274100200A5C0AB1304603E0401C062840
:1084B000F8D300204FF002084FF0030B012F06D035
:1084C000022F0CD0032F0FD0042F15D110E0A1796B
:1084D00029B194F8241011B908B130460DE0E179C2
:1084E00011B108B1404608E0207A08B1584604E0CE
:1084F000607A08B1042000E02846A070616B41B1A9
:10850000032801D0042804D1607910B194F82E0416
:1085100098B184F82F5404F13C0018210746FEF767
:10852000BEFF84F83C6004F12C0006F08FFE58B1C9
:1085300094F82C0084F8510008E084F8305484F852
:108540002F6407208847E6E784F8516094F82400F8
:1085500058B104F1280006F079FE20B194F8280003
:1085600084F8520001E084F8526084F85050A278F8
:1085700004F2264104F582694FF0060A052A64D206
:10858000DFE802F07C030F22420084F83160C4F877
:108590002054C4E9101584F83C808020A4F84800D9
:1085A00055E084F8318094F82420384612B107222F
:1085B000027001E080F800B0228A8281C4F8205461
:1085C0004160E168B96042E06069B860208BB881C1
:1085D00094F824003D460028204602D084F83CA0B0
:1085E00001E084F83C6009F09FFB50B185F81480ED
:1085F0000421204602F017F938BB052184F8311018
:1086000021E084F831B01EE0E069B860208CB881C8
:1086100094F824003D460028204602D084F83CA06F
:1086200001E084F83C6009F07FFB48B185F81480D4
:108630000421204602F0F7F838B984F831A002E0AE
:10864000042084F83100C4F82094A07878B13A4628
:1086500004F15400D4F8201472DF00287FF414AF22
:1086600094F8301094F8540073DF0028F6D1616B51
:1086700011B194F831008847002005E784F83150A3
:10868000F5E7000070B5040012D001461C22144822
:10869000FEF7ECFE1248134D0560206850B17ADFFA
:1086A000002806D12068016829604068686005E0FC
:1086B0000E2070BD0B487BDF0028FAD108484FF62A
:1086C000FF711438084A20F8041B05493439016049
:1086D0000021FFF7FDFA0028EBD0032070BD000059
:1086E000CC290020F0220020C11C030010B5044654
:1086F00000F0B0F8002805D02146BDE8104002483F
:1087000003F012BD10BD0000F82900200346034805
:1087100080680A46194602F0B3B80000E829002034
:1087200070B515460E46044609F00AFB002809D02C
:10873000054800EB8400C0692A463146BDE8704018
:1087400002F09EB870BD0000E829002010B5044674
:1087500000F080F8002805D02146BDE8104002480E
:1087600003F0E2BC10BD0000002A002010B5044652
:1087700000F070F8002805D02146BDE810400248FE
:1087800003F0D2BC10BD0000FC29002070B50546E6
:10879000002400F05FF838B12946044803F0C4FC17
:1087A00008B1022400E00124204670BDF429002015
:1087B00070B50546002400F04DF838B1294604484C
:1087C00003F0B2FC08B1022400E00124204670BD91
:1087D000F029002010B51821034803F080FC182868
:1087E00000D0C0B210BD0000E829002070B50546D9
:1087F0000C46084609F0A4FA60B1284600F02AF8B1
:1088000040B10548294600EB8400BDE870401C30AB
:1088100003F08ABC002070BDE829002070B5054631
:1088200016460C46084609F08BFA00280ED028465A
:1088300000F010F8002809D00548324600EB84000B
:108840002946BDE870401C3001F0E8BF70BD000053
:10885000E8290020142801D3002070470146014870
:1088600003F062BCEC2900207CB5054608880C4664
:108870000930904201D90C207CBD68466DDF00288C
:10888000FAD121880820685420881B21401C80B21E
:10889000208029542088401C80B220802844DDF8A4
:1088A00001100160BDF8051081802088801D80B214
:1088B00020809DF80010490800D00121295420880B
:1088C000401C208000207CBD10B503F013FE002862
:1088D00009D105484FF0030C00DF002803D1BDE8A3
:1088E000104003F075BE10BD642D002018B103497F
:1088F0000860002070470E2070470000B823002059
:1089000010B54FF0FF3100203DDF00280BD1B12121
:108910003CDF002807D10448416901208847022034
:1089200004F086FF002010BD482D0020044810B53B
:108930000068416900208847BDE81040FFF7E0BFAC
:10894000B823002010B588B0044620216846FEF701
:10895000A6FD0320ADF8000020788DF802009DF8F8
:108960000D00172140F028008DF80D0001208DF832
:1089700010008DF81300ADF804108DF812008DF87A
:108980000C008DF811006088A21D694600F06CFF94
:1089900008B010BD10B5184C86B01ECC8DE81E0076
:1089A00048B1164C4FF6FF71A1800068002160614C
:1089B000217618B104E00E2006B010BD10486061A9
:1089C0000E48FFF793FF0028F6D101208DF8120022
:1089D0004FF65960ADF81000A21C04A90120A8DFD1
:1089E0000028E9D10549684662DF0028E4D1034840
:1089F000FFF7A8FFE0E7000024250300482D002032
:108A00006DA0020010B5002823D003881C4C102B49
:108A100017D02146112B8A8815D0C988512B19D01F
:108A2000532B16D1C088884213D1207E002810D045
:108A3000FFF77CFF00280CD06169BDE810400220E0
:108A40000847808804E08088824202D14FF6FF7098
:108A5000A08010BD83889342FBD110F8062F022A14
:108A6000F7D142888A42F4D1017A0429F1D006294B
:108A7000EFD00529EDD0BDE81040801C05F0FCBD0D
:108A8000482D00202DE9F0410546007B04260127F2
:108A90002E4C012811D002282CD00226287B3146EA
:108AA00000F08EF818B120684169032088472068DB
:108AB00041690220BDE8F041084720684FF00008F6
:108AC000417E49B10621012000F07AF800283BD010
:108AD000206841690320EDE707760121084600F090
:108AE0006FF8002830D02268112882F81880D5D17C
:108AF0000626D3E76A7B142A22D80AB3DFF850800F
:108B000005F10E0108F10400FEF7B0FC697BC8F81E
:108B1000181021684046497E0029BFD1A0F10C0100
:108B20000A68011F904768B10F28B7D109480A4960
:108B3000401AC00807EB0040084904F0A7FCADE765
:108B40000526ABE720684776BDE8F081B823002012
:108B5000702D00207C400300D43F03004837030001
:108B600070B5154900250A68002A24D04A68002AF1
:108B700021D00831904708281DD0104C00282068CB
:108B800045760ED00621022000F01AF818B12068B0
:108B9000416903208847206841690220BDE8704090
:108BA00008470121022000F00BF8002803D02068BC
:108BB00041690320F2E770BD642D0020B823002036
:108BC00086B00323ADF8003020238DF814308DF8E3
:108BD000150000220E48019202928DF81610C188ED
:108BE000ADF8041002218DF8061005A90491ADF826
:108BF0000820CDF80CD0808801A9AEDF002804D170
:108C0000BDF80010032900D00C2006B0704700000A
:108C1000482D002030B51F491F4B01250322C91ADA
:108C2000C9088BB002EB014478B1012825D0194A5C
:108C30001946511AC908012202EB014202281FD02D
:108C4000032810461FD015A11EE020461DA104F0E8
:108C50001DFC6846FEF70EFF8DF80050694625485A
:108C6000FFF7A1FB00212448FFF750FD02462046F4
:108C700022A104F00FFC0BB030BD204625A103E07B
:108C800010462DA100E03BA10BB0BDE8304004F040
:108C9000FDBB00007C400300D43F0300556E6B6EAB
:108CA0006F776E206576656E742066726F6D2062D8
:108CB0006C655F6466755F627574746F6E6C657306
:108CC000732E0000446576696365206973207072B5
:108CD00065706172696E6720746F20656E7465726D
:108CE00020626F6F746C6F61646572206D6F646574
:108CF0002E00000058250020B59D020044697363D2
:108D00006F6E6E6563746564202564206C696E6B9C
:108D1000732E00004465766963652077696C6C206A
:108D2000656E74657220626F6F746C6F61646572DA
:108D3000206D6F64652E0000526571756573742037
:108D4000746F20656E74657220626F6F746C6F61F2
:108D5000646572206D6F6465206661696C6564206E
:108D60006173796E6368726F6E656F75736C792E5F
:108D7000000000005265717565737420746F207374
:108D8000656E64206120726573706F6E7365207408
:108D90006F20636C69656E74206661696C65642E12
:108DA0000000000038B50446008821281CD013DCE0
:108DB000102822D1072000F019FB08B1FEF72EFF82
:108DC0001048A1880180104803F00CFB002814D043
:108DD000BDE83840FEF722BF3B280FD056280CD103
:108DE000A088132176DFF1E700200090A088694673
:108DF0008FDF002801D0FEF711FF38BDA0881321B6
:108E000076DFE3E7702200204C25002010B51A4CD5
:108E10000188606810290ED011292BD1401E606096
:108E200028D1FEF70CFE002824D02168002921D08B
:108E3000BDE810400847D0B900210122084600F0E3
:108E4000B3FA08B107280FD107220221012000F050
:108E5000ABFA08B1072807D104220221002000F054
:108E6000A3FA20B1072802D0216801B188476068C1
:108E7000401C606010BD0000E82200202DE9F04792
:108E800001883B4E40F2F3194FF6FF7510291BD0B5
:108E900011293ED0122954D0502946D1C188F289D7
:108EA000841D914241D1618902293ED18688304694
:108EB00002F07CFB050038D004F10C0000F02EF924
:108EC000A8B3294630464EE0C17B87880446012975
:108ED0002BD1A846284602F069FB050017D02F8049
:108EE00000202872234843464A460168C5F80A1004
:108EF0004068C5F80E0004F1100105F10A0002F007
:108F000019FC6872F08900280FD129462AE0042054
:108F100013E0808802F04AFB040006D06068FEF788
:108F20003FFF08B107F0B2FE2580BDE8F087FFE7FC
:108F30006868FEF735FF0028F7D0BDE8F04707F076
:108F4000A5BE87880646384602F030FB0400ECD008
:108F50002B464A4606F1080104F10A0002F0EAFB3A
:108F6000607221463846BDE8F04700F0F9BD0000C8
:108F7000CC290020F02200202DE9F04F04468688FD
:108F80000188424897B0834610290CD0112950D04F
:108F9000103019296AD01A2974D1217A0C09042CAD
:108FA0004DD301224CE0394D083DA868C0430B90D9
:108FB00069680BA803F0DCF80B990CA800F06AFDB7
:108FC0002C220CA96846FEF751FA0027E946A8466C
:108FD00010E000BF09EB47005FF00005B0F804A007
:108FE00008EB85005146001D03F05EF86D1C1E2D38
:108FF000F6D37F1C0098B842ECD8142E05D317B0D6
:109000000420BDE8F04FFEF709BE3146584603F094
:1090100096F8314608F1040003F091F8E07B02284D
:1090200030D117B03146BDE8F04F1848001D03F0AD
:1090300086B817B03146BDE8F04F03F035B80022CE
:10904000314601F0EBFB032C01D3012200E00022AA
:109050000E4831460C3001F0E1FB022C01D3012215
:1090600000E0002209483146083006E0217A002954
:1090700008D1617AC1F3C002314617B0BDE8F04FA4
:1090800001F0CCBB17B0BDE8F08F0000F029002044
:1090900070B51F4E044686B07078002836D0208800
:1090A000A588102811D031782846FFF79FFB0028AB
:1090B0002CD1204602F0AAF8204607F0EFFF06B0B8
:1090C0002046BDE8704001F0F9BC00208DF800009A
:1090D000142101A8FEF7E3F901208DF804004FF6F2
:1090E000FF70ADF8080004F108000390ADF80650D9
:1090F000CDF810D001A801F045F99DF80020317895
:109100002846FFF78BFB9DF80000D0E706B070BD46
:10911000282300200078C0F340007047007800F05A
:10912000010070470149085C70470000602303009C
:10913000084908B5085C0090684603F01BFFD0F8AA
:1091400010050099C84010F0010000D0012080F007
:10915000010008BD602303002DE9FC410646C0075D
:109160004FF000050ED0104F00240122385D00950D
:1091700000231146019503F031FE641C042CF4D346
:1091800000F04EF8B0070DD5074E0024361D002222
:10919000305D032300951146019503F01FFE641C0A
:1091A000042CF4D3BDE8FC815C230300094908B515
:1091B000085C0090684603F0DDFED0F80425009BB3
:1091C0000121994021EA0203C0F808351140C0F896
:1091D0000C1508BD5C2303000249085C012103F063
:1091E00036BF00005C2303000249085C002103F045
:1091F0002EBF00005C230300084908B5085C0090FE
:10920000684603F0B7FED0F804050099C84010F096
:10921000010000D0012080F0010008BD5C230300A4
:1092200010B500242046FFF7D7FF641C042CF9D3A7
:1092300010BD10B500242046FFF7D6FF641C042C97
:10924000F9D310BD10B50246064B4FF0FF30002198
:109250005C5C944201D1084610BD491C0429F7D337
:1092600010BD00006023030070B50C4E0C004FF0E1
:10927000000530600BD0012000F06AF808B1022030
:1092800004E0002000F064F800B10B20207070684A
:1092900010B9FEF7D4FB0546284670BDE822002031
:1092A00010B5002000F0DCF908B1062806D1012035
:1092B00000F0D6F908B1062800D1002010BD00004A
:1092C0002DE9F0470D468146FFF7BCFF0446042810
:1092D00036D2DFF874801B481C4EA8F10C0725B36A
:1092E000012D0ED0022D2BD104EB440030444578E3
:1092F000002D25D0B968002922D02846BDE8F047C6
:10930000084704EB4401755C0E44717849B10E4A7C
:109310004FF48041093A8068FEF718FD08B987F8D4
:109320000390B17808F80410E2E78068FEF738FD92
:1093300004EB4401314418F804008D78A842D7D0DA
:10934000BDE8F08764230300842200208C290020DC
:10935000042801D2FFF7ECBE0020704701461048F8
:1093600010B50088042907D007290ED00A2915D185
:10937000BDE8104007F07CBE132176DF0CE000282A
:109380000CD0BDE81040FEF749BCA0F57F41FF3985
:1093900004D10448FFF740F80828F0D110BD0000C0
:1093A000702200205825002070B50023042810D218
:1093B0000D4D00EB4004012A02D101290CD00022FE
:1093C000094E00EB4000304461B1012906D002296A
:1093D00006D00723184670BD0E30C2B22A55F9E7F1
:1093E0004270F7E78270F5E78C290020044A0146B5
:1093F00000201279D20702D0084600F04DB870471D
:109400007822002070B506461E480024C0E901619C
:10941000B00720D50025012211462846FFF7C4FFDA
:109420006D1C0446042D02D2002CF4D013E094B934
:1094300040F2333204211448FEF76EFB04000AD1D7
:10944000FEF758FB040006D10F48104A0021001F08
:10945000FEF73EFC0446F00712D00120FFF77CFE29
:1094600074B909480A4A00210C38FEF731FC04009F
:1094700006D10548074A01210838FEF729FC0446B1
:10948000204670BD78220020702303006D970200F3
:10949000C9B70200E37A02002DE9F05F6E4C054681
:1094A00000266078B34618B184F801B002F074F970
:1094B0006A4F4FF47A694FF4C87A4FF00108182DBB
:1094C00069D2DFE805F00C1313384754696E727BDC
:1094D000727BC58484848484B3B6B9BCC5C502F0EC
:1094E0005BF93868FEF75CFC06465CE00020FFF79D
:1094F00083FE00284FF0000008D0FFF76DFE022D1C
:1095000002D14FF4E16008E0484606E0FFF76CFE48
:10951000022D01D1C82000E05046410CC0034FF499
:109520007A72801841F10001257052000023FDF786
:1095300059FF01462AE00020FFF75EFE00284FF0A9
:10954000000004D0FFF748FE4FF44870E5E7FFF74E
:109550004BFEDFE70020FFF74FFE00284FF0000032
:1095600002D0FFF739FECFE7FFF73EFED4E7002039
:10957000FFF742FE00284FF0000002D0FFF72CFE5C
:1095800001E0FFF731FE257040F6CD41002238683A
:10959000FEF7DCFB064646E00020FFF707FE2570DD
:1095A00008E0002051E025703DE084F801800120B2
:1095B000FFF7FCFD002240F26661E8E784F80180D5
:1095C0000120FFF7F3FD00224FF40051DFE7786838
:1095D000FEF7E6FB0646D5F1110000D02EB10220C1
:1095E000FFF7FAFD84F802B01DE0012816D980B219
:1095F000C8214843C117C90341EA5041C0034FF491
:109600007A72801841F1000152000023FDF7EAFE52
:10961000014600227868FEF799FB06460220FFF714
:10962000E3FD84F802803046BDE8F09F02F0B4F814
:10963000B9E702F0B1F8B4E702F0AEF804E002F0E6
:10964000ABF80020FFF7D0FD0120FFF7CDFDAAE722
:10965000FFF7EFFDA7E70000782200206423030056
:10966000012108F0FDBB00002DE9F84F0546861CDE
:1096700000208DF8000091460F464FF0010A684621
:10968000FEF7B0FB1B4C04F21C4860683860D4E95C
:109690000101194F401A3968081A0EE001214046AD
:1096A00002F060FD02F028FA0146404602F05AFD41
:1096B000D4E90101401A3968081A401C8642EDD8E5
:1096C000B9F1000F03D0052065F3891002E00620F0
:1096D00065F39F5061683A68114004EB8101C860EE
:1096E0006068304460609DF80000FEF79FFB5046C4
:1096F000BDE8F88F34320020C824002070B50D4634
:1097000004460A2902D10D21FFF7F8FFA06822685C
:10971000411CA1601554D4E90101814204D32046C3
:10972000BDE8704003F01FB870BD000004488168B8
:109730004068814201D1012070470020704700003D
:1097400034320020034630B50748002104784268CF
:1097500006E000BF02EBC10005789D4203D0491C22
:10976000A142F7DB002030BDE02300200078022179
:10977000FFF7A6BD032805D10349A92008600020F2
:1097800004F056B870470000200500401CB50446A0
:1097900001F060FE00236A46092105F091FB0528CF
:1097A00005D10348012241792046FFF737F81CBD57
:1097B000F82200201CB504460020009042F6A620A6
:1097C000ADF8000001208DF80200084801AA6946A2
:1097D000006801902046A0DF002805D1044801223E
:1097E00081792046FFF71AF81CBD00009023030082
:1097F000F822002005494FF0FF32082841F82020C8
:1098000002D3084480F8582070470000A02D0020A3
:10981000F0B54FF0FF3512B10023082601E0082310
:109820000C260C4C05E000BF54F823707F1C04D0BC
:109830005B1CB342F8D32846F0BD26185DB286F80B
:10984000305044F82310002AF5D1E11881F858006F
:10985000F1E70000A02D00200249084490F93000F3
:1098600070470000A02D00202DE9F0438146887844
:1098700091B090460C4600B901208DF83E0020883A
:10988000ADF83C0000250095607C694607F09AFB26
:109890006E46A07C711C07F095FBE07B00289DF8CC
:1098A000020002D040F0080001E020F008008DF82E
:1098B0000200217C11B140F0100001E020F0100006
:1098C0008DF80200217B11B140F0010001E020F091
:1098D00001008DF80200217D09B1022100E0012183
:1098E00061F342008DF802001C2102A8FDF7D7FDAC
:1098F000607BC10601D4800617D50E950EAFE07CC3
:10990000791C07F05FFB9DF83800079720F00F00E7
:10991000401C20F0F00010308DF838009DF83A001F
:1099200020F00600801C8DF83A00607B8DF808005E
:10993000A07B8DF80900142109A8FDF7B0FD0FA840
:10994000CDE90906A088ADF83000A06820B1E08814
:10995000ADF82C00A0680D90A06998B3019500881F
:10996000ADF81000A06901AD01A94088ADF8120062
:10997000A069406806950390A069007B07F022FB70
:10998000A069691C407B07F01DFBA069807A002854
:109990009DF8060002D040F0080001E020F0080029
:1099A0008DF80600A169C97A11B140F0100001E0FC
:1099B00020F010008DF80600A169097A19B140F075
:1099C000010002E00DE020F001008DF80600A16921
:1099D000897B09B1022100E0012161F342008DF889
:1099E0000600E06900B10590434609AA02A948466D
:1099F000AADF11B0BDE8F08370B504464FF6FF75DD
:109A00000A462846AC4209D14FF4807421461046DC
:109A100002F065FB80B2A0420BD070BDFF2CFCD8D9
:109A20002146104602F04BFB90F0010F01D020467A
:109A300070BD284670BD000070B5084C050009D007
:109A400010342168002907D008682060496828463A
:109A50008847F6E70834F4E770BD00008C2D00203D
:109A6000054A012120B1012805D19170FFF7E4BF1B
:109A700051700020FAE770478C2D002010B5D0E916
:109A80000234D1E90220D11AA04101D3012010BD36
:109A9000002010BD73B58CB00646002000900D98D4
:109AA00080B100246D4621460DA802F03DFB30B187
:109AB000009805EB400084800098401C0090641CD6
:109AC000142CF0D32C2269463046FDF7CFFC0EB0A3
:109AD00070BD2DE9F04117880646B81D14460D46A5
:109AE000984202D90C20BDE8F0813188072206296E
:109AF0000AD34FF4486C4FF6FF73614501D9994280
:109B000002D17088062801D21046ECE7604501D9E1
:109B10009842F9D1994203D0984201D08142F3D8BA
:109B20000520E85520881221401C80B2208029544D
:109B30002088401C80B220804119308808F039F814
:109B40002188084480B220804119708808F031F8DB
:109B50002188084420800020C5E7FEF75FB8000098
:109B600038B54A7A0F4B62B100220A72596900294E
:109B700006D001228DF80020ADF802006846884723
:109B800038BD0A7A62B19B684C6802461946204685
:109B9000FEF7DCF80028F3D0BDE8384007F076B8CF
:109BA0005B68F1E7CC290020F0B585B016460F467A
:109BB00004461D4614220B496846FDF757FC0A4827
:109BC0008DF80870ADF80240ADF80A608DF80C50C1
:109BD000017800222046FEF721FE684600F0E8FBEF
:109BE00005B0F0BDDC24030098230020FDF75CBE27
:109BF00070B588B00646002005900690ADF81410A8
:109C0000ADF816100190029001AA05A9304690DF28
:109C1000050021D004F0B0F803461148114932463E
:109C2000401AC108012000EB014004460E4903F030
:109C300038FCBDF8042012B9BDF8060028B1BDF803
:109C40000630204609A103F02CFCBDF808201AB10B
:109C50002046164903F01EFC08B0284670BD0000DF
:109C6000EC3F0300D43F03006C2C030054686520D4
:109C70007265717565737465642054582F5258204D
:109C80007061636B6574206C656E677468206973BE
:109C900020746F6F206C6F6E672062792025752F9E
:109CA0002575206F63746574732E0000B82C030053
:109CB00070B504460948012102F06FFABFF35F8FC7
:109CC0000025002808D1204601F08AFE002803D193
:109CD000BFF35F8F0148056070BD000004230020C2
:109CE0002DE9FF410C4620B14FF4064004B0BDE819
:109CF000F0812079002748F2096538B141F61D56F8
:109D000001281BD0022826D0681DEFE70220207111
:109D100002970397E0680190694601A806F0F4FBFA
:109D200050B102988188E18000882081BDF8001040
:109D3000029806F067FCD9E72846D7E70A4B6A463F
:109D40000021A01D06F098FB38B1074918398F6132
:109D5000CF61A842CAD13046C8E70348818801983C
:109D600006F050FCF5E700006024002070B50024E8
:109D70000F4D10E0686800EBC406307804F024F959
:109D80007178012901D0012100E0002141403078A3
:109D900000F062FA641C28788442EBDBD5E9040108
:109DA000084303D0BDE8704007F050BD70BD00000F
:109DB000E023002030B40446132176DF03000BD0EB
:109DC000064807492246401AC008022101EB00401C
:109DD00030BC044903F065BB30BC70477C400300D5
:109DE000D43F0300E828030010B50021024802F028
:109DF000D4F980F3100010BD503600204FF48032AB
:109E00008A400168C1F848230068C0F808237047F9
:109E10004FF4A07202EB810189B200F08DBA2DE9F6
:109E2000F04105460E464FF4A07000EB860081B26B
:109E300028684FF48034B440984622F07F47C0F839
:109E400008432868C0F84843286803F029FD2868BB
:109E500000EB8600C0F840752868C0F84443B8F1AC
:109E6000000F02D02868C0F80443BDE8F081006804
:109E7000D0F804057047000070B54379234C44F8CE
:109E800023204279231D03EBC202224C1579204A7C
:109E9000121BD4082DB10825022000EB04401EA19E
:109EA00030E005680A88C5F8082590F9042089780B
:109EB000002A4FEA411104DB02F1E02282F800148B
:109EC00005E002F00F0202F1E02282F8141D90F981
:109ED00004100122002909DB01F01F0502FA05F533
:109EE0004909890001F1E021C1F8005141790025BB
:109EF00003EBC1010A71417943F83100032000EB03
:109F000004400EA103F0C2FA284670BD3C24002094
:109F10005C400300D43F030052544320696E7374C5
:109F2000616E636520616C726561647920696E6938
:109F30007469616C697A65642E0000005254433A7A
:109F400020696E697469616C697A65642E0000002D
:109F500090F90400002809DB00F01F020121914064
:109F60004009800000F1E020C0F8001270470A4666
:109F7000022100F067B94FF4827100F0DDB900688A
:109F800001210160704700680121416070472DE99F
:109F9000F05F07460C464FF4A07000EB84001FFAF8
:109FA00080FA38684FF48036A6409B4622F07F4501
:109FB000C0F848633868C0F808633868D0F804858A
:109FC00000EB8402D2F84095C2F8408551463868CB
:109FD00003F066FCA9EB080020F07F40012806D1C1
:109FE000102003F035FF5146386803F059FC3868FB
:109FF000D0F80485C0F84463A5EB080121F07F4147
:10A000003868012900EB840010D0C0F8405538684A
:10A01000D0F804156FF07F4C6A1A521E22F07F426E
:10A02000ACEB0B03934217D362B118E06D1CC0F880
:10A030004055102003F00CFF3868D0F80405404567
:10A040000AD10CE000EB84006D1CC0F84055386864
:10A05000D0F80405884202D00D20BDE8F09F01220F
:10A060003146384600F0EEF80020F6E77047134618
:10A070000A460021FFF798BD2DE9F843104D0F4621
:10A0800080461E4691466946286801F0E1FF0400BB
:10A0900014D01C21FDF703FA01202071C4F814909C
:10A0A000380BC4F80080C4E902606946286801F0F2
:10A0B000F0FF06F04DF90020BDE8F8830420FBE72F
:10A0C000F025030010B503780022072B06D2DFE845
:10A0D00003F005040610202930000A7010BD01238A
:10A0E0000B7003898B818388CB81C06888600A7478
:10A0F00010BD02220A7002898A818288CA81C268E0
:10A100008A60807D062802D00020087410BD0120DE
:10A11000FBE703220A70C2888A810289CA81C0686B
:10A12000886010BD04230B70C0888881CA818A6052
:10A1300010BD0520087010BD70B5064D0646002400
:10A1400055F8241009B130468847641C042CF7D315
:10A1500070BD00000C2F002030B50446006887B0A9
:10A160000D46806800281FD018216846FDF797F932
:10A170000195A0680590207910B1012810D107E061
:10A1800001208DF8000020690290E068039005E04E
:10A1900002208DF80000E0680003029060690490DE
:10A1A000206881686846884707B030BDF0B585B043
:10A1B00017460C0005463AD0112C38D0082C36D062
:10A1C0001C481D49401AC6080D2C11D0204603F02A
:10A1D000D3FD0246012000EB06402B46174903F051
:10A1E00060F92A460821684601F0E6FE02941BE069
:10A1F000022000EB06402A46114903F04BF92A469B
:10A200000421684601F0D8FE27B13878C00701D094
:10A21000012000E002208DF8080000208DF80C00DD
:10A2200041F20110ADF80A00684600F0CFF805B021
:10A23000F0BD00001C400300D43F0300DC360300E7
:10A24000CC3503000368C3F84413002A02D0006829
:10A25000C0F80413704700002DE9F84F0E4634494A
:10A26000804601EB5001C007097801D00F0901E0D9
:10A2700001F00F074FF00009424601204946FDF763
:10A28000E2F8DFF8B0A004460D46052F4ED2DFE815
:10A2900007F003161B282C00002E47D00121404652
:10A2A00007F092F98DF800906846FDF79BFD504647
:10A2B000D0E904120C431543CAE9044532E00EB15B
:10A2C000022114E0002112E04EB10321404607F0C4
:10A2D0007BF94046BDE8F84F012107F049BD012157
:10A2E00005E0002E22D1042101E02EB103214046D9
:10A2F000BDE8F84F07F068B90021404607F064F95F
:10A300000021404607F034FD8DF800906846FDF7C7
:10A3100069FD5046E243D0E904341A4024EA0501BD
:10A32000CAE904219DF80000FDF780FDBDE8F88F23
:10A330005C2E0020E023002010B5006842581AB1BE
:10A3400003F0AEFA012010BD002010BD10B5044688
:10A35000408801F07FF8A080024801682046BDE8EF
:10A36000104008470023002010B50446808800F004
:10A37000BBFF6080024801682046BDE810400847E6
:10A38000102300202DE9F04107460024064E074D1A
:10A3900005E000BF56F8241038468847641C287929
:10A3A0008442F7DBBDE8F081FC2C0020282300204C
:10A3B00010B50446408801F04DF8A08002480168BD
:10A3C0002046BDE8104008479C2403000149096865
:10A3D000084700001825030070B586B00446142114
:10A3E0006846FDF75CF8A0890125A0F54040ADF86E
:10A3F000040020782F4E062833D2DFE800F0320325
:10A4000003032C4AA08900F0EDF930B9E08943F646
:10A41000FE71A0F54040884223D8A07B8DF808004B
:10A42000207803280FD000208DF80900A068039041
:10A43000606850B10A208DF800006068049068469A
:10A4400004F090FC0DE00120EEE709208DF80000FB
:10A450008DF81050F3E7A08900F0C4F908B1E08945
:10A4600030B17078002801D004F0D0FD06B070BD86
:10A47000606830B10C208DF8000060680290757043
:10A48000DDE70B208DF80000BDF8040004F062FE4B
:10A49000F5E7606848B115208DF80000606802900B
:10A4A0004FF6FF70ADF80400C9E714208DF80000E6
:10A4B000F6E700001423002038B504460F48007862
:10A4C000B0B1A4F57F40FF380FD0684605F070FEAC
:10A4D00088B10521017001210171C480684605F031
:10A4E00075FE05F027FF002038BD48F2036038BD37
:10A4F00048F2016038BD48F2076038BD682400208A
:10A500000D4808B5007888B1684605F051FE80B165
:10A5100006210170684605F059FE0848017809B126
:10A520000121017305F006FF002008BD48F201601B
:10A5300008BD48F2076008BD68240020D02F002025
:10A54000F0B587B014216846FCF7A9FF314C20789C
:10A5500018B16846FFF7F0FD5AE0201D01F0FFFD3D
:10A56000A0BB40F6F8700168481C02D14FF01020E3
:10A5700041694FF08050026940694B1C01D100FBDA
:10A5800002F1254800220161A1F54051C160234933
:10A5900002F07EFA002826D122481C238C22204972
:10A5A000006801F042FD04F069F905004FF0000673
:10A5B00015D0022D13D00127062D16D005A805F0C1
:10A5C000F7FDA8B107700C2D1DD200E020E0DFE8F8
:10A5D00005F01A121A121A191A191A1416142670DA
:10A5E000666048F20A6007B0F0BD27706660B0E7A9
:10A5F00048F20760F7E7067105E0032100E0022159
:10A60000017100E0077105A805F0E0FD05F092FE7C
:10A610000020E8E76824002024250020002603000D
:10A620001C2F00206825030038B5040014D06946AB
:10A6300005F06AFFB0B1BDF8000000EB80010B48E7
:10A6400000EB8100C16851B1A17A41B1C168491ED6
:10A65000C1600020A07238BD48F2046038BD48F2E5
:10A66000056038BD48F2096038BD0000A82F002001
:10A670001FB501A9684605F0FFFE04B010BD07B57F
:10A6800013460A466946002005F0F6FE0EBD07B5E2
:10A6900013460A460021684605F0EEFE0EBD20B1C5
:10A6A00019B1006808600020704748F204607047E4
:10A6B000F8B50D46040018D0BDB1694605F024FF79
:10A6C000B0B1BDF800000C4900EB800001EB800048
:10A6D00001210C30666801F045FD2E6060680C3089
:10A6E00068600120A0720020F8BD48F20460F8BD47
:10A6F00048F20960F8BD0000A82F002018B103231C
:10A70000002207F0F9BC48F20460704702230022DF
:10A7100007F0F2BC094910B50A69042A0AD0084AB0
:10A72000096942F8210005480121103001F01AFDA5
:10A73000002010BD48F20B6010BD0000482400202E
:10A740000C2F00202DE9F84F044624480078D8B19A
:10A75000F4B112212046FCF7A2FE0320DFF880901E
:10A760002080002504F1100804F10E0A05EB850194
:10A7700009EB810630897189084487B2706804F05A
:10A7800007F8032807D009E048F20160BDE8F88F18
:10A7900048F20460FAE72088401E20806088F16853
:10A7A0000844608020897189084420816089384488
:10A7B0006081C7F58060A18980B2814200D2A0810A
:10A7C0005346A21D211D2846CDF8008005F038FF14
:10A7D0006D1CADB2022DC9D30020D7E7682400203C
:10A7E000A82F002043F6FE71A0F54040884201D812
:10A7F000012070470020704710B5044600781828E3
:10A8000002D1FDF7E7FF207010BD10B504460078B7
:10A81000182802D1FDF7DEFF207010BD0AB101F04B
:10A820008EBC01F041BC70B50D460446B0F814145E
:10A83000D0F810040122FDF70CFD00B1057004F101
:10A840003C0204F5826104F1540072DF70BD000027
:10A8500070B5134600220546112900D10122074C8C
:10A8600033B12179FDF7DAFF00226178284600E054
:10A870006178BDE87040FDF7D1BF0000A023002043
:10A88000F7B517460E0011D00098002560B10024DE
:10A890002146684601F048FC18B1A0B23946B047DD
:10A8A0006D1C641C142CF3D32846FEBD0020FEBD95
:10A8B000406805F09DBC000070B510B14FF4064033
:10A8C00070BD1C4C0025207B08B1257301E000F011
:10A8D000A5F8207808282AD2DFE800F02904080C1F
:10A8E00010291422BDE8704000F026B8BDE8704081
:10A8F00000F082B8BDE8704000F064B8BDE8704078
:10A9000000F040B80620207060880A4900EB800003
:10A91000283901EB80004068BDE8704003F08EBF2D
:10A92000072020706560BDE8704003F095BF48F2D5
:10A930000E6070BDD02F00201149F0B48A1C002099
:10A940000346A1F128050C18A67A4EB1A37200EBBC
:10A95000800405EB8404E66816B9247C012C0AD037
:10A96000401C80B20228EED30B704B804B60F0BCD1
:10A9700041F61D5070471080F0BC00F03DB800005B
:10A98000D02F00200C48418801EB8102A0F1280162
:10A9900001EB8201CA6852B105210170074802210A
:10A9A0008180016800230122054801F0D5BF0422FF
:10A9B00002704968F6E70000D02F002070240020C4
:10A9C0002425002038B50A49084803240B6842684A
:10A9D000898803EB810153880470DB1C00201B0471
:10A9E00000909B0B034802F00BF938BDD02F0020DC
:10A9F0007024002024250020074910B54888091D2F
:10AA000005F0D2FD18B1BDE81040FFF7DBBFBDE88F
:10AA10001040FFF7B7BF0000D02F002070B5194CD1
:10AA20000121207808281AD2DFE800F00419191C47
:10AA3000252929182089134A401C20810020608084
:10AA40002073283A00EB800312F8233043B100232F
:10AA50002518401C80B2AB720228F3D3217070BD60
:10AA60000123F5E76068084940888A88C01C1044C3
:10AA70008880022004E000F009F8062000E00720AA
:10AA8000207070BDD02F0020702400200A49094892
:10AA90004988026801EB81030749283901EB8301EA
:10AAA0004B6803604A6082880A810222828000200B
:10AAB0000874704770240020D02F00202DE9F04347
:10AAC000064680883288DFF85C8185B00746502AC8
:10AAD00037D010DC5449554B06F10A05A1EB0301B0
:10AAE0004FEAD1014FF0020303EB0144352A3AD07B
:10AAF000362A07D168E0522A02D0542AF9D102E05E
:10AB000000F012FF82E0142249496846FCF7AEFCCF
:10AB1000ADF80270384600F09DFCADF8040000F07E
:10AB2000C9F90022444698F804103846FDF776FE2D
:10AB30000022E1783846FDF771FE6846FFF706FC13
:10AB400064E0307B012861D1B07A01285ED1308980
:10AB5000A0F52451023959D10121384600F038FFBF
:10AB600007F096F852E098F80610FDF73FFE00282F
:10AB70004CD0002298F806103846FDF74FFEF288B8
:10AB8000B2F5857F17D012B120462AA10BE02A88A2
:10AB9000012A03D0204636A102F07CFC6A88012AF3
:10ABA00004D0204641A102F075FC04E0A9880022EF
:10ABB0003846A1DF08B1002125E0012298F80710EE
:10ABC0003846FDF72BFE21E04FF0000998F80710FA
:10ABD000FDF70CFED0B1002298F807103846FDF7BB
:10ABE0001DFEF28812B1204612A104E0AA88012AB3
:10ABF00004D020462DA102F04DFC03E0A87900B15D
:10AC0000012081464946384606F042FD0022364979
:10AC100098F80200FDF784FD05B0BDE8F04306F0AA
:10AC200085B80000F8220020D43F0300D43F030081
:10AC3000E8230300556E657870656374656420478A
:10AC400041545420737461747573207768696C651E
:10AC50002067657474696E672043415220636861A0
:10AC6000722076616C75653A203078257800000096
:10AC70004D756C7469706C652028256429204341EA
:10AC80005220636861726163746572697374696389
:10AC90007320666F756E642C207573696E672074FF
:10ACA00068652066697273742E000000556E6578C1
:10ACB000706563746564204341522063686172610A
:10ACC0006374657269737469632076616C7565205D
:10ACD0006C656E67746820282564292C2073746F56
:10ACE000726520302E0000004D7F020070B50446D2
:10ACF0000078002814D1608800F016FE6588284688
:10AD000000F0E8F928B107480122C1782846FDF78C
:10AD100085FD6088FEF73AFDBDE8704006F0B8BFDB
:10AD200070BD0000F822002070B5204C0025257071
:10AD3000FDF750FD6070FDF74DFDA070FDF74AFD79
:10AD4000E070FDF747FD2071FDF744FD6071FDF7F0
:10AD500041FDA071FDF73EFDE07162780121182AE6
:10AD600018D0A278182A15D0E278182A12D02279A1
:10AD7000182A0FD06279182A0CD0A279182A09D083
:10AD8000182807D004F10C000560BFF35F8F217015
:10AD9000002070BD0648074A801AC00801EB004039
:10ADA000054902F073FB032070BD0000F82200206B
:10ADB000D43F0300D43F03002C2903007CB5044694
:10ADC0000078092837D1607A58BB207A1C4E4FF69C
:10ADD000FF75012811D0072802D008282BD121E0C7
:10ADE000A08800F081FA0446A84224D0012100F096
:10ADF000EFFD2046FEF7CAFC1DE0A0886A4601214F
:10AE000003F0D2FE68B90198007850B1A08800F034
:10AE10006BFAA8420FD00122F178FDF7FFFC05F094
:10AE200085FF08E0F068012805D1BFF35F8F044972
:10AE300000200C310860BDE87C4006F029BF00000E
:10AE4000F822002010B50B48FFF711F8094A083A1C
:10AE5000D2E90434C018D2E9063244F10001C31A21
:10AE600071EB020204D24FF08072801841F10001B0
:10AE700010BD00002024002010B5C0B2FEF762FC17
:10AE80000446007803F0A0F801466078012801D05C
:10AE9000012000E0002090EA010F08D00449D1E928
:10AEA0000401084303D1BDE8104006F0CFBC10BD3B
:10AEB000E02300201CB5054AD2E90212CDE90012B8
:10AEC0000022694604F036F81CBD0000002403008F
:10AED00003484FF6FF718180012101700020704707
:10AEE000082300202DE9FC41804600F0B3FA00243D
:10AEF00003250127A0F57F412646FF3908D06A4681
:10AF0000082103F051FE18B90198841D8688056850
:10AF100032462B4621464046B1DF042804D008289B
:10AF200004D00B2808D002E0112000E00020002F00
:10AF300000D10B20BDE8FC810027A80701D5012521
:10AF4000E6E7344303D0002426460325E0E706481D
:10AF500006494246401AC008012101EB004004495D
:10AF600002F098FAE5E70000DC3F0300D43F03005D
:10AF7000F42B03002DE9FF47824600F06BFAA0F5A1
:10AF80007F418146FF3916D03B493C4A0127891A47
:10AF9000C90807EB014600BF3A467F1C4FF0000886
:10AFA000BFB202AB0821484603F048FE040007D0B8
:10AFB000072C5ED05EE043F2020004B0BDE8F087EB
:10AFC000039D03232A1DA91D50462B60B2DF0400F8
:10AFD00004D00C2C37D0052C38D038E06A46082134
:10AFE000484603F0E1FD58B1052814D002F0C4FE34
:10AFF00002463046534622A102F053FA0320DCE712
:10B000000198AA888088824205D10199A81D891DCE
:10B01000FCF757FA30B14A460821104603F086FE85
:10B02000044627E00821484603F076FE48B102F0C6
:10B03000A3FE034630464A461F4902F032FA032473
:10B0400018E00B2416E04FF0010800E0002408216E
:10B05000484603F061FE40B102F08EFE03463046E2
:10B060004A46154902F01DFA0324B8F1000F93D1A6
:10B0700000E00C242046A0E7DC3F0300D43F03009F
:10B080007064625F706565725F646174615F707443
:10B09000725F67657428292072657475726E6564C5
:10B0A00020257320666F7220636F6E6E5F68616E1D
:10B0B000646C653A20256400742B03000448808882
:10B0C000A0F57F41FF3901D005F03ABE704700007E
:10B0D000082300200EB502A9019100F0BBF96A46D1
:10B0E000012103F061FD08B100200EBD0198007838
:10B0F0000EBD00002DE9F04107464FF6FF761048DF
:10B10000B3DF78B102F038FE02460E480E49401A0D
:10B11000C008012101EB00400C4902F0BBF90320FB
:10B12000BDE8F081064C43F20305A41E3246618857
:10B130003846AFDFA842F3D16088401C6080F5E755
:10B140000A230020DC3F0300D43F0300282B030028
:10B15000428800EB82020C328A4201D902207047F9
:10B160008188A1F57F42FF3A06D0018821B180682D
:10B17000401C01D00020704701207047884204D253
:10B180000068401C01D001207047002070473EB588
:10B19000027802230C46B3EB520F17D1B0F801101E
:10B1A000ADF80010C1788DF802108188ADF8041058
:10B1B00080798DF8060002AA01A92046FCF768FCF8
:10B1C000032202A96846FCF77CF908B100203EBDC5
:10B1D00001203EBD70B50D460446142810D2FDF77F
:10B1E00039FB68B1084904EB840001EB4000D0F85A
:10B1F00002102960C188A980007AA871002070BD62
:10B2000043F2020070BD0000642A002070B501887E
:10B2100090B0102961D1011D2C226846FCF726F957
:10B220009DF804004FF6FF7603213446B1EB500F32
:10B230002BD003F03DFE9DF804006D4640080ED073
:10B2400001280CD0022820D118E00D99281D1131B9
:10B25000FCF7C8FB18B100BFBDF82C4015E00CAAE4
:10B260000BA9072003F0F8FD0028EED10DE00D99A1
:10B27000281D491CFFF78BFF0028EDD10CAA0BA954
:10B28000072003F0E9FD0028F1D1BDF80000B44229
:10B2900000EB8001124820F8114000EB41000199B9
:10B2A000C0F80210BDF80810C1809DF80A100172A4
:10B2B00013D0BDF80000ADF82E000020ADF83040EE
:10B2C000084E8DF82C000BAD044600BF56F8241034
:10B2D00028468847641C022CF8D310B070BD0000CB
:10B2E000642A0020142403002DE9F0414FF6FF7674
:10B2F0000546B04213D00B4F002400BF04EB84007E
:10B3000037F81000A84206D12046FDF7A3FA10B185
:10B310002046BDE8F081641CA4B2142CEED3304664
:10B32000F7E70000642A00203EB50C46054603F00E
:10B33000BFFD0BE0BDF80000A04207D028460299EF
:10B3400000F00EF810B1BDF800003EBD01AA69463C
:10B35000072003F081FD0028ECD14FF6FF703EBDC1
:10B360002DE9F0410C46054600F1110701F11106E7
:10B370001022491C401CFCF7A4F848B9681C00F0D6
:10B38000FBF928B1601C00F0F7F908B1012400E0D6
:10B39000002431463846FCF725FB3B780222B2EB0D
:10B3A000530F0CD00321B1EB530F08D03378B2EB1D
:10B3B000530F04D0B1EB530F01D0012100E0002165
:10B3C000084201D18C4302D00120BDE8F081002069
:10B3D000FBE7018811B9421892780AB10120704741
:10B3E000491C0829F7D30020704710B50C460346C6
:10B3F000FFF7EFFF00280AD018882188884205D17E
:10B400000822A11C981CFCF75CF808B1002010BDB4
:10B41000012010BD142804D2024A00EB800022F85B
:10B4200010107047642A002070B50546FFF75CFFD6
:10B430000446284603F0BCFB002808D1142C06D291
:10B44000034B04EB84024FF6FF7123F8121070BD1A
:10B45000642A002010B50446142808D2FDF7FAF932
:10B4600028B1044904EB840031F8100010BD4FF6F8
:10B47000FF7010BD642A00203EB5044603F018FD9D
:10B480000EE0019920464631FFF7AFFF28B9019938
:10B4900020462A31FFF7A9FF10B1BDF808003EBDD4
:10B4A0006A4602A9072003F0D7FC0028E9D14FF62D
:10B4B000FF703EBD10B50A4941600A4800F04FFEDA
:10B4C00058B902F0B9FB07491C238C2208740448C0
:10B4D0008C39001F006800F0A8FD002010BD00009E
:10B4E000F42503007C3000202DE9F0412C4D002490
:10B4F00020B16C604FF40640BDE8F081087901226C
:10B5000050B1284B01280BD0254A022608320228C8
:10B5100021D0032829D12CE00A7103F09DF922E003
:10B520005FF0000000EB800113F82110022908D021
:10B53000401C80B20228F5D32A706C6041F61D5081
:10B54000DAE700EB800003F8204003EB800040685E
:10B5500003F074F907E00C71968011680023012252
:10B56000114801F0F9F90028C6D06C6048F20D606E
:10B57000C2E70C480C7128304188106801EB810744
:10B5800003EB8701D1F804C0C2F800C04860B2F8EC
:10B5900004C0A1F808C0968003F82740D8E700004F
:10B5A00068240020A82F00202425002001460348FD
:10B5B00002888A4200D0002070470000B82900208D
:10B5C0002DE9FC5F0E008346DDE90C47C6F1000063
:10B5D00098469246814600D40846012503E000BF04
:10B5E00090FBFAF06D1C5045FADAA84500D94546A3
:10B5F00024B1002E01DB780700D5641EB80702D500
:10B60000B8F1000F0AD0F80708D13CB1A54205D225
:10B6100020215846641EFEF771F8F6E7002E02DA84
:10B620004E462D2102E0780703D52B215846FEF720
:10B6300065F807F0030002280BD1B8F1000F08D11C
:10B640003CB1A54205D230215846641EFEF756F89B
:10B65000F6E7CDE90047434652463146584606F0E4
:10B66000BDFABDE8FC9F000070B50D4604460068B9
:10B670004FF4887102F0A0FB4FF49071206802F043
:10B680009BFB4FF49271206802F096FB4FF4A2717D
:10B69000206802F091FB4FF4AC71206802F08CFB43
:10B6A00020681249C0F804132068690740F3073086
:10B6B000090E002804DB00F1E02080F8001405E00A
:10B6C00000F00F0000F1E02080F8141D206840F326
:10B6D0000730002809DB00F01F02012191404009DA
:10B6E000800000F1E020C0F8001170BD100342009E
:10B6F000024600201268530713D502F00300012808
:10B7000002D002280CD105E0C2F383100B68801C24
:10B71000184404E00223086803EB925210440860C6
:10B72000012070470248007A002800D001207047AD
:10B730007C300020F0B58488A518944200D82246B9
:10B74000A41AC288D6189A4200D81346D21A4B8837
:10B750000788BB420CD34088834209D88888A0421E
:10B7600006D3A84204D8C888904201D3B04201D978
:10B770000020F0BD0120F0BD0021425C0AB1012093
:10B780007047491C1029F8D300207047800701D06A
:10B7900000207047012070470A4810B5807860B1DA
:10B7A000002401E0022C06D02046FDF715FD641CA4
:10B7B000042CF7D310BD0324F6E7BDE81040FDF7D5
:10B7C0002FBD00007822002003480179C90702D06C
:10B7D0000078FDF761BE70477822002017210180B4
:10B7E00041800021017141711B218171C17170473C
:10B7F0002DE9FE4F2E4F984692460D00814601D00E
:10B8000000260DE0684600F0CDFB6A460021484660
:10B8100003F026F93878009E10B99DF8090098B118
:10B8200052463146484605F0E7FD044601460022EF
:10B830004846FFF70DF80D2C37D008DCA4B3082CD0
:10B8400033D00B2C09D130E00520BDE8FE8F112C40
:10B850001ED0A4F54050023827D0204602F08CFAC2
:10B860000246144814494B46401AC008012101EB16
:10B870000040124901F015FE5FF00305B8F1000F1A
:10B8800004D0324621464846FEF790FC2846DCE7C5
:10B890002A46F9784846FCF7C1FF5246B97848462F
:10B8A000FCF7BCFF0025E9E7FFE72546E6E70000D7
:10B8B000A02300201C400300D43F03008436030073
:10B8C00070B50E460C49154604460978FCF78EFF04
:10B8D00000280FD0204603F069F800282A46314698
:10B8E000204603D0BDE8704003F066B8BDE8704064
:10B8F000FEF7BDBB70BD00009823002070B5094D58
:10B900000646A978FCF772FF0446E9783046FCF752
:10B910006DFF014622463046BDE870400123FFF727
:10B9200067BF0000A0230020F0B585B005460027C2
:10B9300014216846FBF7B3FDA5F57F40ADF8025032
:10B94000FF3825D02846FFF7CDFA040022D01B4847
:10B950001B49401AC6080B2C22D0112C1ED0A4F56E
:10B96000405002380ED0204602F006FA024601206E
:10B9700000EB06402B46134901F093FD2146284673
:10B9800005F08CF910483A4681782846FCF746FFC6
:10B9900005B0F0BD0F208DF800000BE00127F1E7A6
:10B9A00010208DF80000022000EB06402A460749CF
:10B9B00001F070FD6846FEF7C9FCE3E7D43F0300E1
:10B9C000D43F0300FC290300F8220020502A030082
:10B9D0000A4602494978FCF721BF0000F8220020FE
:10B9E0002DE9F041002786B080463E46FFF7C2FAB7
:10B9F00004461F481F49401AC508112C23D003DCF8
:10BA0000FCB10B2C06D114E0862C1ED0A4F54050BE
:10BA100002380ED0204602F0AFF90246012000EBBA
:10BA20000540434614A101F03CFD2146404605F087
:10BA300035F939464046FFF7CBFF06B03046BDE842
:10BA4000F0810126F5E70127F3E714221A49684639
:10BA5000FBF70CFD0220ADF8028000EB05404246EA
:10BA600016A101F017FD6846FEF770FCE1E7000043
:10BA7000D43F0300D43F03006773636D5F6C6F6353
:10BA8000616C5F64625F63616368655F7570646168
:10BA9000746528292072657475726E65642025733B
:10BAA00020666F7220636F6E6E5F68616E646C6596
:10BAB0003A20256400000000C0230300466C617337
:10BAC000682066756C6C2E20436F756C64206E6FF9
:10BAD000742073746F7265206461746120666F7284
:10BAE00020636F6E6E5F68616E646C653A202564DA
:10BAF00000000000704700002DE9FF4100262448A7
:10BB000000F02AFB2248001F074600F025FB214CCD
:10BB10002149A06800900D6800E00098694628401F
:10BB200004EB80000C30FFF7E3FD0028F5D101AAFB
:10BB3000009901EA050304EB8303491CDB6842F822
:10BB40002030401C00910228F2D3019800F003003D
:10BB500001280BD0022810D10198032101EB90504D
:10BB60000099BDF80A6001EB900005E00198BDF86E
:10BB70000A60C0F3831008440090384600F0E9FAE8
:10BB800008B10098A06004B03046BDE8F081000024
:10BB90004C36002034320020C8240020ACB04FF4D2
:10BBA0008041002001F0F0FC08B1FCF737F801F00B
:10BBB00043FBFCF789FE08B1FCF730F8FCF798F876
:10BBC00008B1FCF72BF801F0E9FD08B1FCF726F805
:10BBD00067490320FDF716FC08B1FCF71FF869461A
:10BBE0000020FDF741FB08B1FCF718F89DF80000B4
:10BBF00002287DD05FF0000501F0D2FF08B1FCF70C
:10BC00000DF8002469460120009401F059FE08B1A6
:10BC1000FCF704F8684601F0D3FE08B1FBF7FEFF1D
:10BC200003F0DEFA9DF8080052A120F00F00401C3E
:10BC300020F0F00010308DF80800112202A87CDFFF
:10BC400008B1FBF7EBFF00945020ADF80000A020F6
:10BC50000194ADF80200ADF804404FF4C870ADF89F
:10BC6000060068467ADF08B1FBF7D8FF0021464896
:10BC700000F0FEFA08B1FBF7D1FFAC216846FBF7F4
:10BC80000EFC02208DF8000001208DF80200062134
:10BC9000ADF810008DF803103C4805901EA8FBF786
:10BCA000E9FE3B482990384869462030FCF707FBFD
:10BCB00008B1FBF7B3FF344801212030FCF7FCFA50
:10BCC000344801A9CDE900402F48143000F095FB1D
:10BCD00008B1FBF7A3FF304800906846FCF75AFE16
:10BCE00008B1FBF79BFF1C216846FBF7D8FB00E07F
:10BCF00029E04FF4A030CDE900404FF4F02002904D
:10BD000026480590032626488DF80C600690ADF86D
:10BD10000E408DF810406846FCF7B4FC08B1FBF704
:10BD20007DFF20482049401AC00806EB0040044629
:10BD30001EA101F0ABFB65B1204625A101F0A6FBD9
:10BD400004F0E0F80AE0012556E700BFFBF766FFC4
:10BD500006E00D4803212030FCF77BFB0028F5D1DD
:10BD600001F078FA0028FBD101F040FDF8E700006F
:10BD70005D9302004E6F726469635F427574746F05
:10BD80006E6C65737300000038250020722200205D
:10BD900091E5020081D80200158C0200B5E5020091
:10BDA0005B9B02007C400300D43F03004275747427
:10BDB0006F6E6C65737320444655204170706C69DA
:10BDC000636174696F6E20737461727465642E00B0
:10BDD000457261736520626F6E647321000000001C
:10BDE00070B5144682880E4605462088111D014410
:10BDF000921C994201D8FE2A01D90C2070BD521C18
:10BE000032542088FF21401C80B220803154208889
:10BE1000401C80B220808119288805F0CAFE218844
:10BE2000084480B22080AA8842B1A96841B1304458
:10BE3000FBF71CFB2088A98808442080002070BDE7
:10BE4000072070BD2DE9F047C5881E1DB6FBF5F72C
:10BE50008946B6FBF5F1044605FB176C4079166878
:10BE60006843DDF820A0F718001F874200D9C61AE2
:10BE7000166001E02468491E0029FBD1A5EB0C07E0
:10BE80008846B74216D818E004EB0C00001D09EBF9
:10BE90000803BAF1000F3A4602D00146184600E006
:10BEA0001946FBF7E3FA2468F61B4FF0000CB84480
:10BEB000B54201D9374600E02F46002EE4D1BDE857
:10BEC000F087000030B5024651B101F071FB00214E
:10BED000074C08E034F821301568AB4202D11160FC
:10BEE000002030BD491C8142F4D3052030BD000044
:10BEF00000000000BFF35F8F00F016B9F8B50F46E1
:10BF0000017814460546012901D1687830B12088AE
:10BF1000821C9A4232D8012902D006E00720F8BDDF
:10BF200069780144891C994228D8181A801E86B263
:10BF3000ADF800602188B81C084469467DDF002800
:10BF4000EDD12978022904D06878BDF8002090420C
:10BF500005D3BDF80000B04201D809200AE008204E
:10BF6000012905D16978B14202D8ADF8001001E08D
:10BF7000ADF80060BDF80010FE2901D90C20F8BD15
:10BF80002288491CB9542188491C89B221807854DF
:10BF90002088401C2080BDF800100844208000202C
:10BFA000F8BD0000034A00219268C0E900218160C9
:10BFB00070470000A023002070B586B00D460646ED
:10BFC000144614216846FBF76AFA8DF80050ADF864
:10BFD00002402046FFF73EFAADF8040014226946FD
:10BFE0003046FBF743FA06B070BD70B54FF6FF75EB
:10BFF0000E46A84201D1002000E0401C84B208E0B7
:10C000002146304600F090F808B1204670BD641C0F
:10C01000A4B2FF2CF4D9284670BD10B5FBF745F942
:10C0200008B1002010BD112010BD10B531B1B2FB18
:10C03000F3F403FB14241CB1092010BD0E2010BD25
:10C0400001600021416081608281C381084610BD8A
:10C0500070B50C460546FBF7DDF8002802D02188B4
:10C060002868084470BD10B50A8849888A4203D1FF
:10C07000FBF712F9012010BD002010BD70B50C4671
:10C080000546FBF7ECF8002802D0618828680844D0
:10C0900070BD10B50A8849888A4203D1FBF7D6F8EB
:10C0A000012010BD002010BD01F01F0301229A40A5
:10C0B000D243490900EB8100114600F059B80A4605
:10C0C00001F01F030121994010B552090C4600EB05
:10C0D000820000F05DF8204000D0012010BD2DE965
:10C0E000F04180460D460024481E012101EB501707
:10C0F00016E058F82400C04390FAA0F0B0FA80F09F
:10C1000020280CD200EB4416AE4208D231464046FD
:10C11000FFF7D5FF0028ECD13046BDE8F081641C64
:10C12000A742E6D82846F8E74A0950F8220001F06D
:10C130001F0201219140084000D00120704701F00A
:10C140001F0301229A40490900EB8100114600F0CB
:10C1500029B8002100F017B8012100F023B801210F
:10C1600000F016B808B56A46FBF7EBF8009808BD72
:10C1700008B56A46FBF7CBF8009808BD08B56A46D3
:10C18000FBF7DFF808BD08B56A46FBF7C0F808BD45
:10C1900008B56A46FBF7AEF808BD08B56A46FBF776
:10C1A0009DF808BD08B56A46FBF7A4F8009808BDDD
:10C1B00008B56A46FBF7D2F8009808BD38B50446C2
:10C1C00000258DF800506846FBF70CFE2168626878
:10C1D000086890420ED9401E08600178238AE26800
:10C1E00001FB0325227A2168101AC0B20A79824223
:10C1F00000D208719DF80000FBF718FE284638BDF4
:10C2000038B5054600208DF800000C466846FBF75F
:10C21000E9FDE868298A201AB0FBF1F12A68106864
:10C22000431C136001709DF80000FBF7FFFD38BD53
:10C2300010B530B1017A42680368891AC9B21A6030
:10C2400006E00E2010BD03681A68541C1C601170B3
:10C25000491EC9B2F7D2006800210171084610BD1D
:10C26000C20800F007030120895C9840084070472D
:10C2700010B560B10161172120F8021B20F8021BE4
:10C280001B2100F8021BFFF7A9FA002010BD0E20A9
:10C2900010BD0000F0B5858893B00C46002D39D153
:10C2A000018800263F4F24293BD006DC102909D005
:10C2B00011290CD0232958D14FE03A290BD0552908
:10C2C00053D129E00146204602F082F94DE0A01D3D
:10C2D000FFF784FA49E02246408934F8061F81427C
:10C2E00000D808466080172800D2172060801069A7
:10C2F00070B1607960B1D7E90001CDE90301ADF813
:10C300000E506088ADF81000136903A910469847D5
:10C310006671267113B0F0BD0146204602F0E2F9C5
:10C3200023E0011D2C2206A8FBF7A0F8BDF8180099
:10C33000BDF81C2004EBC0014A732269AAB1D7E9F9
:10C340000423CDE90423ADF81200487B8DF81400D6
:10C350002269204604A9904707E0017A207B8842A1
:10C3600000D201462846FDF743FCA07A0028D1D030
:10C37000E1882846A5DF012580B11128CAD001F047
:10C38000FBFC02460848094913B0401AC00805EBF7
:10C390000040BDE8F04006A101F07CB8A672E5724D
:10C3A000B8E700001C240300EC3F0300D43F030067
:10C3B00073645F626C655F67617474635F65786303
:10C3C00068616E67655F6D74755F726571756573C1
:10C3D0007428292072657475726E65642025732E29
:10C3E0000000000020B10278DE2A03D00820704748
:10C3F0000E20704741800020704760B159B102782B
:10C40000DE2A0AD009684160DE2101704FF6FF7113
:10C410004180002070470E207047082070477FB58C
:10C42000054600294DD0002D4BD008780C46DE285B
:10C4300047D1A8886188884202D1204605F086FC51
:10C440002888012825D002283BD011283AD051282D
:10C4500037D135F8040F6188884232D1A978A81CF9
:10C4600002292ED1017A042903D0062901D00529F9
:10C4700027D10021009102228DF8002001914FF474
:10C48000C07202910391ADF80420007A05280FD004
:10C4900010E0297A2046012913D1A98842889142C7
:10C4A0000FD10121017204B0BDE8704005F04EBC0F
:10C4B000ADF8041028886946B0DF002801D0616813
:10C4C00088477FBDA88861888842FAD14FF6FF70FF
:10C4D00060807FBD00F180400068002800D001200E
:10C4E000704708B500F180400021016000680090AD
:10C4F00008BD000070B540F6F8700468601C02D1F9
:10C500004FF0102044691248124B4FF00102A3EB88
:10C5100000004FEAD000611C02EB004512D003215D
:10C5200001EB004022460CA100F0B4FF204613DFCF
:10C53000040005D0284613A100F0A8FF204670BDD6
:10C54000002070BD28461CA100F0A0FF042070BD93
:10C55000D43F03007C40030053657474696E672008
:10C56000766563746F72207461626C6520746F20ED
:10C57000626F6F746C6F616465723A203078253039
:10C58000387800004661696C65642072756E6E696A
:10C590006E672073645F736F667464657669636544
:10C5A0005F766563746F725F7461626C655F626110
:10C5B00073655F73657400004E6F20626F6F746CFB
:10C5C0006F616465722077617320666F756E6400B9
:10C5D00070B50C480C490D4A401AC508032000EB01
:10C5E00005400BA100F056FF084813DF040007D0F8
:10C5F000012000EB054011A100F048FF204670BD6E
:10C60000002070BD7C400300D43F03000070020096
:10C6100053657474696E6720766563746F722074F5
:10C6200061626C6520746F206D61696E206170704D
:10C630003A20307825303878000000004661696C77
:10C6400065642072756E6E696E672073645F736FC8
:10C6500066746465766963655F766563746F725F3F
:10C660007461626C655F626173655F73657400001D
:10C6700070B50D4C0125207808B185260EE000200C
:10C68000A06060602061E060084801F0B9FB0646E8
:10C6900001F0D2FA08B901F09DFB257001F092FB80
:10C6A00000B1A570304670BD8C2D0020619A02004B
:10C6B00038B500258DF800506846FBF793FB084C11
:10C6C000E068401EE060E06828B901F07BFB10B92B
:10C6D00001F0A6FBA5709DF80000FBF7A7FB38BD95
:10C6E0008C2D0020F0B505460478154889B0164613
:10C6F00040F82420124A08690832A2F10C0742F8D7
:10C700002400487F385520226846FAF7AFFE04948B
:10C710002878385C48B10EB10A4A00E00022694628
:10C72000281D01F00BFE09B0F0BD0EB1064A00E075
:10C730000022694605F10C0001F0CAFCF3E7000095
:10C74000C0230020711A0300B91803000FB408B504
:10C750000399002904D004AA00926A4600F00FF859
:10C7600001B05DF814FB10B582680446002A05D0BC
:10C77000D4E90403216898470020A06010BD2DE98A
:10C78000FC4791460C00804676D014F8011B39B165
:10C7900025290ED04046FCF7B1FF20780028F4D1BF
:10C7A00098F80C00002867D04046BDE8FC47FFF72A
:10C7B000DABF0020012221782B291BD02D2902D09D
:10C7C000302908D102E040F0010001E040F0020011
:10C7D000641C002AEFD100252A290ED02178A1F16E
:10C7E00030020A2A11D205EB850201EB4205641CD6
:10C7F000303DF1E740F00400EAE7D9F800100B1DE6
:10C80000C9F800300968641C0D44217800232E29E2
:10C810000BD114F8011FA1F130020A2A05D203EB53
:10C82000830201EB4203303BF3E76C290DD068290A
:10C830000BD0692921D00BDC252918D0582931D0FB
:10C8400063290ED0642915D117E014F8011FECE715
:10C85000702969D0732932D075291BD0782909D164
:10C8600020E0D9F80000011DC9F800100178404609
:10C87000FCF744FF641C90E76CE0D9F800100A1D37
:10C88000C9F800200968CDE900500A224046FEF7A9
:10C8900097FEEFE7D9F800100A1DC9F800200968D3
:10C8A0000A2206E0D9F800100A1DC9F8002009681C
:10C8B0001022CDE90050404605F090F9DAE7D9F8AA
:10C8C000001000270A1DC9F800200E68C00705D116
:10C8D00012E04046761C7F1CFCF710FF31780029DF
:10C8E000F7D104E0202140466D1EFCF707FFBD4252
:10C8F000C0D9002DF6D1BDE74EB13046FAF7DAFDCA
:10C90000074604E0202140466D1EFCF7F7FEBD42BD
:10C9100006D9002DF6D103E04046761CFCF7EEFE6A
:10C9200031780029F8D1A5E7D9F80000011DC9F830
:10C930000010056830214046FCF7E0FE78214046B3
:10C94000FCF7DCFE08200021CDE90001034610229F
:10C950002946B0E7BDE8FC872DE9F8438846050085
:10C960002C482D499946A0EB01004FEAD0004FF02A
:10C970000101164601EB004424D0286800282CD081
:10C98000002E34D0696840464FF010070A68511EE7
:10C9900011EA080F11D1014672432846FBF73BF814
:10C9A00000282ED028684B463246046901B0414623
:10C9B0002846A446BDE8F04360472046174B18A21E
:10C9C000009722E00E2000902046144B1EA220A1CA
:10C9D00000F06FFD0E20BDE8F8830820009020468F
:10C9E0000E4B26A21AA100F064FD0820F3E70920EF
:10C9F00000902046094B24A215A100F05AFD092001
:10CA0000E9E7064B214A2046009711A100F051FDAD
:10CA10001020E0E764400300D43F0300DB2503005F
:10CA2000616464725F69735F706167655F616C699F
:10CA3000676E656428705F66732C20706167655F40
:10CA40006164647229000000705F6673000000007A
:10CA5000257320636865636B206661696C6564207B
:10CA6000696E202573282920776974682076616CA7
:10CA7000756520307825782E00000000705F6673A1
:10CA80002D3E705F617069006C656E0018380300A0
:10CA900038B503001148124D4FF00E04A0EB05000D
:10CAA0004FEAD0004FF0010505EB004009D061B11D
:10CAB00019600C6801B0A446BDE830401146184624
:10CAC0006047084B08A2009402E0064B08A20094BD
:10CAD00009A100F0EEFC0E2038BD00006440030008
