:020000040002F8
:10700000C85E0020C1730200C9730200CB73020086
:10701000CD730200CF730200D173020000000000A4
:10702000000000000000000000000000D373020018
:10703000D573020000000000D7730200D97302006C
:1070400015760200DB730200B1780200DB730200E8
:10705000DB730200DB73020071750200DB73020058
:10706000DB730200DB730200DB730200DB730200E0
:10707000DB730200DB730200DB730200DB730200D0
:10708000DB7302006D760200DB730200DB7302002B
:10709000DB730200DB730200DD760200DB730200AB
:1070A000DB730200DB730200DB730200DB730200A0
:1070B000DB730200DB730200000000000000000030
:1070C000DB730200DB730200DB730200DB73020080
:1070D000DB730200DB730200DB730200DB73020070
:1070E000DB730200DB730200DB73020000000000B0
:1070F00000000000DB73020000000000DB730200F0
:10710000000000000000000000000000000000007F
:10711000000000000000000000000000000000006F
:10712000000000000000000000000000000000005F
:10713000000000000000000000000000000000004F
:10714000000000000000000000000000000000003F
:10715000000000000000000000000000000000002F
:10716000000000000000000000000000000000001F
:10717000000000000000000000000000000000000F
:1071800000000000000000000000000000000000FF
:1071900000000000000000000000000000000000EF
:1071A00000000000000000000000000000000000DF
:1071B00000000000000000000000000000000000CF
:1071C00000000000000000000000000000000000BF
:1071D00000000000000000000000000000000000AF
:1071E000000000000000000000000000000000009F
:1071F000000000000000000000000000000000008F
:10720000DFF80CD000F076F90048004741A20200F8
:10721000C85E002030B450E8012F93B2C4892344E3
:107220008489A34228BF1B1B0489A34202BFBFF36A
:107230002F8F002007E0C3EA020340E80134002C4E
:10724000E9D14FF001000A6030BC704750E8012FCF
:10725000C2EA024240E801210029F7D1704730B468
:1072600050E8022F1FFAA2F3C488A34202BFBFF363
:107270002F8F00200DE0C48923448489A34228BFB6
:107280001B1BC2EA034340E80234002CE8D14FF054
:1072900001000A6030BC704750E8022FC2EA224267
:1072A00040E802210029F7D17047034653E8022F36
:1072B000D988B2EB324F4FF0000017BF92B241EACB
:1072C000014142EA014104E05A68B2EB324F08BF83
:1072D000012043E80212002AE8D1704730B4044686
:1072E00054E8000F0D4644E80053002BF8D1156018
:1072F00030BC704730B4044654E8000F40EA010542
:1073000044E80053002BF7D1156030BC704730B40F
:10731000044654E8000F00EA010544E80053002B3E
:10732000F7D1156030BC704730B4044654E8000F04
:1073300080EA010544E80053002BF7D1156030BC0A
:10734000704730B4044654E8000F00EB010544E8F0
:107350000053002BF7D1156030BC704730B40446A1
:1073600054E8000FA0EB010544E80053002BF7D1CF
:10737000156030BC704770B404464FF0000054E80C
:10738000006F0D68AE4207BF44E80023012044E8C7
:1073900000630E60002B1CBF0020F0E770BC70473C
:1073A00030B4044654E8000F88422CBF451A054605
:1073B00044E80053002BF5D1156030BC7047000045
:1073C0000648804706480047FEE7FEE7FEE7FEE77F
:1073D000FEE7FEE7FEE7FEE7FEE7FEE7E1760200F6
:1073E000017202002DE9F05F0546002092469B469F
:1073F00088460646814640241BE0284641464746CB
:10740000224600F067F853465A46C01A914110D3FD
:1074100011461846224600F016F82D1A67EB0108AF
:107420004F4622460120002100F00DF817EB00091D
:107430004E41201EA4F10104DFDC484631462A46B5
:107440004346BDE8F09F202A04DB203A00FA02F10F
:10745000002070479140C2F1200320FA03F3194342
:1074600090407047004870476CDA020040EA010320
:107470009B0703D009E008C9121F08C0042AFAD2EA
:1074800003E011F8013B00F8013B521EF9D27047AE
:10749000D2B201E000F8012B491EFBD27047002256
:1074A000F6E710B513460A4604461946FFF7F0FF03
:1074B000204610BD421C10F8011B0029FBD1801A88
:1074C0007047034611F8012B00F8012B002AF9D16F
:1074D00018467047202A04DB203A21FA02F00021E6
:1074E000704721FA02F3D040C2F1200291400843D4
:1074F00019467047064C074D06E0E06840F001036E
:1075000094E8070098471034AC42F6D3FFF77CFEAE
:10751000E8E1020008E2020070B58C1810F8015B87
:1075200015F0070301D110F8013B2A1106D110F81C
:10753000012B03E010F8016B01F8016B5B1EF9D120
:107540002B0705D40023521E0DD401F8013BFAE7A6
:1075500010F8013BCB1A921C03E013F8015B01F811
:10756000015B521EF9D5A142D8D3002070BD0000A6
:107570002DE9FC410025DFF8948000954FF48076DA
:1075800001242F460195304603F022FD38B1D8F88A
:107590000403204203D0304603F010FD2543361D7E
:1075A00064007F1CB6B2082FEDD34FF4BE742046A2
:1075B00003F00EFD48B1204603F000FD45F0004504
:1075C0006A460221002003F061FC15F0FF0F16D07F
:1075D000012600242E420ED008EB8401D1F81005BC
:1075E000D1F81015C0F30520094AC1F3014152F842
:1075F000242002B190477600641C082CEAD3002DA9
:1076000002DA684605F0B2F8BDE8FC81006000408F
:107610000835002070B54FF48076304603F0F0F95D
:10762000114CB50560B1304603F0F1F90120C5F801
:107630000803607920B90120607121680020884723
:107640004FF48276304603F0DBF900280AD030464A
:1076500003F0DDF90220C5F808032168BDE8704099
:107660000120084770BD0000B42B002002490248E9
:10767000091F096800680847442C002000F01EB963
:1076800070B50E46144900EB400001EBC0051446EE
:10769000E86A183520B101280FD0022805D113E07F
:1076A000284600F03FF9A04201D2002411E0224612
:1076B0003146284600F06EF90BE0284600F032F91A
:1076C000A042F4D20446F2E73146284600F035F9EC
:1076D0000446204670BD00003C3C002004F0CAB9BE
:1076E00030B54FF080520023D2E94C10082906D162
:1076F000CC06C4F80C31C4F81031614C2360082961
:1077000055D1604B1B68604C23605E4B1B1D1B6892
:10771000241D23605B4B08331B68241D2360594BD9
:107720000C331B68241D2360564B10331B68241D2B
:107730002360544B14331B68241D2360514B1833B2
:107740001B68514C203423604E4B1C331B68241D96
:1077500023604C4B20331B68241D2360494B24338A
:107760001B68241D2360474B28331B68241D23609E
:10777000444B2C331B68241D2360424B30331B6861
:10778000414C403423603F4B34331B68241D23603D
:107790003C4B38331B68241D23603A4B3C331B6839
:1077A000241D2360374B40331B68241D23600829A8
:1077B00004D1030002D1364C344B2360082904D194
:1077C000030002D1334CFB232360082908D10300B6
:1077D00006D1314B92F858521C6865F303041C60C3
:1077E000082904D1030002D12C4C8B012360082905
:1077F00006D12B480168C90702D06FF00101016072
:107800002848016841F470010160BFF34F8FBFF356
:107810006F8FD2E94C104FF01022082906D10328AF
:1078200004D9D2F80802164920310860D2F80002C3
:10783000002803DBD2F8040200281FDA012004F03C
:1078400015FE1221C2F8001217480368002BFCD065
:10785000C2F8041201680029FCD0002004F006FEE2
:10786000BFF34F8F0F487C380168104A01F4E06184
:1078700011430160BFF34F8F00BFFDE730BD000033
:10788000380500400404001020C500404881030072
:107890008C56004018F50040E40E0040409602402F
:1078A0000004004088ED00E000E401400400FA0517
:1078B0000148006800470000BC2B002010B5124CA6
:1078C00002202061606111A0A06104F17800E061F4
:1078D0004FF4007020620020A06260620BA1A164DE
:1078E000E06204F51E71E1641021A065C4E9141082
:1078F000E06509A1E01DFFF7E4FD08A12046FFF7C0
:10790000E0FD2020A07110BD3C3C00205465726D4C
:10791000696E616C000000005254540053454747A3
:10792000455200000269C1688A4203D88068401A43
:10793000104400E0501A401E70472DE9F047C4681B
:107940001746894606464FF000083069A04201D923
:10795000051B02E0B168201A0D1AB0686D1E001BED
:10796000A84200D80546BD4200D33D4670682A466D
:1079700020444946FFF77AFDB0687F1B2C44A84499
:10798000A944A04200D10024F460002FDDD140467C
:10799000BDE8F0872DE9F04104468846D4E90207A6
:1079A000C51BE168606816460844B54206D94146E1
:1079B000FFF75CFDB819E060BDE8F0812A4641465A
:1079C000FFF754FD761B08EB050132466068FFF7B0
:1079D0004DFDE660F0E70000014A024900F026B8DC
:1079E000759E0200542C002002E008C8121F08C136
:1079F000002AFAD170477047002001E001C1121F30
:107A0000002AFBD1704700000121202803DA8140C1
:107A10000548014003E0402802DA2038814009B1DE
:107A20000120704700207047FC06FFBD2DE9F041A2
:107A300016460F460446002503E03946B047641C4D
:107A40006D1C20780028F8D12846BDE8F08190F818
:107A50002400012801D01F207047EE20704710B588
:107A600001220221002001F0A1FB08B1072810D15A
:107A700007220221012001F099FB08B1072808D153
:107A800000210A22084601F091FB08B1072800D125
:107A9000002010BD00B5ABB0AC216846FFF7FFFC7D
:107AA00002218DF8001000208DF8020006228DF8CA
:107AB0000320ADF84C100E491491802222926422CA
:107AC000012123928DF87C100A4A29928DF87D10AD
:107AD000A021CDE924106946074800F0CDFC08B18B
:107AE00000F052F90121044800F0C3FC2BB000BDA6
:107AF000F62A002085C40200E82F002010B50321DB
:107B0000044800F07FFD002803D0BDE8104000F0DD
:107B10003BB910BDE82F002000B5B5B013212DA84A
:107B2000FFF7BDFC2049D1E90001CDE92B011F4839
:107B300090F8540074DFAC216846FFF7B0FC45F2C2
:107B40005720ADF8C8002BA834900520ADF8CC0024
:107B500032A8022109908DF8001000208DF8020053
:107B600006228DF80320ADF84C10114914918022A3
:107B700022926422012123928DF87C100D4A2992D1
:107B80008DF87D10A021CDE924106946074800F04A
:107B900073FC08B100F0F8F80121044800F069FC1A
:107BA000FFF7ACFF35B000BDD0D60200E82F0020B3
:107BB000F62A002085C4020000B5B5B013212DA817
:107BC000FFF76DFC2049D1E90201CDE92B011F48E7
:107BD00090F8540074DFAC216846FFF760FC45F272
:107BE0005720ADF8C8002BA834900520ADF8CC0084
:107BF00032A8022109908DF8001000208DF80200B3
:107C000006228DF80320ADF84C1011491491802202
:107C100022926422012123928DF87C100D4A299230
:107C20008DF87D10A021CDE924106946074800F0A9
:107C300023FC08B100F0A8F80121044800F019FC69
:107C4000FFF75CFF35B000BDD0D60200E82F002062
:107C5000F62A002085C40200022001F083B900004A
:107C600070B50024064D06E06868012110F8340064
:107C700004F018F8641C28788442F5D3002070BD05
:107C8000C82B0020F8B516460C4605460A2A01D234
:107C90000720F8BD04F0FEF818B904F0BFF800287A
:107CA000F7D1134F202113487D603C70BE60FFF771
:107CB000F6FB0020C7E904000F4E0DE005EBC40001
:107CC0003168009181788DF8011000780B4A69467F
:107CD00004F034F80028DCD1641EE4B2EED2BDE832
:107CE000F84005480021064A001D00F087B8000052
:107CF000C82B0020C435002064D70200459F020035
:107D0000499A020072B603F0E7FB00BF03F030FAB5
:107D10000028FBD111481249401AC408012000EB89
:107D2000044010A103F040FB11480068C00700D0D8
:107D300000BE022000EB04400EA103F035FBBFF3B0
:107D40004F8F0B48E43801680E4A01F4E06111439B
:107D50000160BFF34F8F00BFFDE7000080E202002B
:107D600018E20200466174616C206572726F7200E5
:107D7000F0ED00E053797374656D2072657365747E
:107D8000000000000400FA050EB500210091CDE9C5
:107D900001106A4644F20100FFF7B4FF0EBD10B5B2
:107DA0008268C368934203D002F038F8002010BD07
:107DB000052010BD29B112B1531E134203D0092072
:107DC00070470E2070470160838000218160C16090
:107DD0000846704710B58268C3689A1A83889A4229
:107DE00003D802F025F8002010BD042010BD0000CB
:107DF000014801F090BE0000082C002010B55AB1D7
:107E000000684FF0FF3401294261C0E9024400D00C
:107E100000210161002010BD072010BD38B51148B8
:107E200008235822416800910F49006802F0C9FBFD
:107E3000002815D10D4A69460D4801F071FE040075
:107E40000ED101210A4801F0E6FE0123094A194634
:107E5000074801F038FE064901200839087020461D
:107E600038BD00006CD70200F435002039C902008B
:107E7000082C0020FFFF7F00F8B5044600261746B7
:107E80000D468DF80060684600F0D8F8D4E902018C
:107E9000C04370EA010005D09DF8000000F0F2F840
:107EA0000020F8BD02F034F840197141C4E9020124
:107EB0009DF8000000F0E6F8A761206900B1256197
:107EC0002146BDE8F840002005F084B838B50446E6
:107ED00000208DF80000684600F0B0F8D4E90201F7
:107EE000C04370EA01000DD04FF0FF30C4E902003A
:107EF0009DF8000000F0C6F82146BDE8384001209A
:107F000005F068B89DF8000000F0BCF8002038BD0E
:107F100070B50A4E01460A48B578FFF740FF04469F
:107F20004DB10020B070711C0122C81D02F0E6FDA9
:107F300008B1FFF729FF204670BD0000242C002067
:107F40004C360020F0B5244E89B01F460D00044683
:107F500072603FD0A888296882B22048FFF72AFFC4
:107F6000002835D1A889A96882B21C481030FFF7D3
:107F700021FF00282CD1202219496846FFF776FA04
:107F800060690690207C00B101208DF814008DF806
:107F90001C70607C00B10E208DF81500E068029026
:107FA000A068039020680190606800900A480D4A1C
:107FB0006946083002F06EFD002809D1B0702068D3
:107FC000401C05D004490122491CC81D02F096FD41
:107FD00009B0F0BD0720FBE7242C00204C36002020
:107FE00080D70200F1D0020010B501461048FFF71B
:107FF000F1FE040019D10F480F4A0178515C19B104
:10800000001D04F0D9F902E00C3004F0AFF860B9BB
:10801000084907480839FFF7C2FE30B9054901226F
:108020000839044802F07AFD0446204610BD0000DD
:108030005C3600202C2C0020A02B002030B5EFF364
:10804000108172B60D4A9468012324B1037000298F
:1080500000D162B630BD93604FF0E023D3F8805179
:10806000074C25401560C3F88041D3F88441546023
:108070005A17C3F8842100220270E8E76C3600200A
:10808000FC06FFBD0B498A68002A11D000280FD1D9
:10809000EFF3108072B60B684FF0E022C2F80031A7
:1080A0004B68C2F8043100228A60002800D162B611
:1080B000704700006C36002070B5054608680C4615
:1080C000411C04D002F053FF206802F0B3FE606848
:1080D000411C02D0002102F09BFE2968A069C1F872
:1080E0002405607D227D29681043C1F86C05D4E920
:1080F00000122868C0F81425C0F80C15207D01284E
:1081000014D1A068411C02D0002102F081FEE06879
:10811000411C04D002F02BFFE06802F08BFED4E992
:1081200002122868C0F80825C0F8101570BD70B597
:10813000054608680C46411C04D002F022FF206866
:1081400002F082FE6068411C02D0002102F069FE4C
:108150002968A069C1F82405607D217D2A6808434B
:10816000C2F86C05D4E900122868C0F80C15C0F8F4
:108170001425207D012814D1A068411C02D00021C3
:1081800002F04FFEE068411C04D002F0FAFEE06805
:1081900002F05AFED4E902122868C0F80825C0F897
:1081A000101570BD704770B5044690B0087B0D4641
:1081B0008DF83800202105A8FFF771F942F6192043
:1081C000ADF814000120ADF81800ADF81A000EA8A3
:1081D0000790617C9DF82100A21D61F3041040F01E
:1081E00002008DF82100A87B8DF82700687B8DF8B0
:1081F0002500A08805A901F0F1F900281CD1A96883
:10820000E1B10FA800F063FE064614216846FFF7AF
:1082100046F942F60810ADF80000E87B8DF806003C
:108220000FA8ADF80A60ADF80E600490E08804F184
:108230000E02694601F0B2FB10B070BD0020E08173
:10824000FAE770B51500044609D00020286034B163
:10825000206820B1A079800703D0072070BD0E20D0
:1082600070BD084600F062FBC0B2142804D021792A
:10827000814203D8042070BD052070BDE2882168CA
:1082800000FB02102860002070BD2DE9FC4700258E
:1082900017880646158090F82D001446894630B19F
:1082A0003A462146484600F055FB051E09D1B078F4
:1082B0004FF00C0A18B32088C846001DB84202D9F6
:1082C0005046BDE8FC87684679DF0028F9D1208850
:1082D000032108F8001020881921401C80B220805A
:1082E00008F800102088401C80B2208000EB0801B4
:1082F000BDF8000005F09DF8218808442080F07842
:108300000222C8B1218896F9033001F1030C4846D6
:10831000BC45D5D8425421884FF0010C491C89B284
:10832000218000F801C02188491C89B2218009F808
:1083300001302088401C20807068B8B1218890F9F5
:10834000003001F1030C4846BC45B9D8425421889D
:108350000A22491C89B2218042542188491C89B2D1
:10836000218009F801302088401C2080308950B1DC
:10837000CDE900474B460622022106F1080005F030
:1083800019F9051E9DD1308A50B1CDE900474B4601
:108390000722032106F1100005F00CF9051E90D10B
:1083A000308B50B1CDE900474B461522142106F120
:1083B000180005F0FFF8051E83D1306A30B13B4646
:1083C0002246494601F01FFA051EDBD1706A30B122
:1083D0003B462246494602F017F8051ED2D196F8D0
:1083E0002C0038B13B4622464946304604F018FC82
:1083F000051EC7D1307838B13B4622464946304643
:1084000002F08CF8051EBDD128465AE718B504467F
:108410000020ADF8000013466A46204600F006F83A
:10842000002802D0BDF80000204418BD70B5E0B1AE
:10843000DAB1002402E0045D2C44A4B2651C8D4234
:1084400006D21688A642F6D8061976789E42F2D150
:108450008C420AD2A31C005D9BB200B1401E0004F6
:10846000000C02D01C188C4201D9002070BD138072
:1084700070BD80F8301070472DE9F0410D000446C2
:1084800006D02CB195F87A000026012803D006E02A
:108490000E20BDE8F08195F89800012821D04FF01A
:1084A0000108A6702C2205F17801201DFEF7DEFFE1
:1084B00084F83060D5F8A4006063D5F8A800A06304
:1084C0004FF6FF70A4F8240404F58260C4F8200479
:1084D000C4F82664A4F82A6484F82C64207810B1C7
:1084E00004E00720D5E7FF2084F8540004F1550785
:1084F0002046C4F81074FFF7AAFAA4F8140404F292
:10850000144239462846FFF7C0FE0028C1D104F2C4
:108510003120C4F818042046FFF799FAA4F81C0487
:1085200004F21C4205F13C00D4F81814FFF7ADFE2C
:108530000028AED184F85180208BA4F8480084F83C
:108540003C80266484F85060606900216064454680
:1085500004F13C02781E72DF00289AD1257098E75A
:1085600010B50288102A1BD0112A20D0262A1DD12E
:10857000007A0C46012801D0022817D1A0780521E5
:10858000401CB0FBF1F201FB1201204600F03AF86A
:1085900000280BD0A16B002908D0BDE81040084787
:1085A000C27B012A02D18088A1F8240410BD0C46A8
:1085B000002184F82E148088B4F824148842F5D160
:1085C00020790028F2D10121DFE710B5044690F8A8
:1085D000540074DF012084F82E04002084F8300455
:1085E00084F850000621204601F030FC002808D114
:1085F000A178204600F006F810B1A16B01B18847C0
:10860000002010BD2DE9F05F044600780F4698B1B8
:10861000A7700025C4F82654A4F82A5484F82C54D2
:10862000A079012608B1012F09D0E07980B1012F8E
:1086300005D0022F03D00BE00820BDE8F09F616B4E
:1086400021B184F82D640820884701E084F82D5476
:1086500004F2274100200A5C0AB1304603E0401CC6
:108660000628F8D300204FF002084FF0030B012F2B
:1086700006D0022F0CD0032F0FD0042F15D110E0FD
:10868000A17929B194F8241011B908B130460DE050
:10869000E17911B108B1404608E0207A08B15846A6
:1086A00004E0607A08B1042000E02846A070616B05
:1086B00041B1032801D0042804D1607910B194F8A5
:1086C0002E0498B184F82F5404F13C001821074679
:1086D000FEF7E5FE84F83C6004F12C0004F014F889
:1086E00058B194F82C0084F8510008E084F8305414
:1086F00084F82F6407208847E6E784F8516094F8EF
:10870000240058B104F1280003F0FEFF20B194F8D2
:10871000280084F8520001E084F8526084F8505038
:10872000A27804F2264104F582694FF0060A052A70
:1087300064D2DFE802F07C030F22420084F831604B
:10874000C4F82054C4E9101584F83C808020A4F8B3
:10875000480055E084F8318094F82420384612B15E
:108760000722027001E080F800B0228A8281C4F8FA
:1087700020544160E168B96042E06069B860208BD4
:10878000B88194F824003D460028204602D084F8A1
:108790003CA001E084F83C6004F0DEFE50B185F8B6
:1087A00014800421204601F051FB38BB052184F8D8
:1087B000311021E084F831B01EE0E069B860208C0F
:1087C000B88194F824003D460028204602D084F861
:1087D0003CA001E084F83C6004F0BEFE48B185F89E
:1087E00014800421204601F031FB38B984F831A00F
:1087F00002E0042084F83100C4F82094A07878B115
:108800003A4604F15400D4F8201472DF00287FF4B3
:1088100014AF94F8301094F8540073DF0028F6D1A8
:10882000616B11B194F831008847002005E784F8A6
:108830003150F5E738B50D46040018D0BDB12868B1
:10884000206028796074FF20207401208DF80200D8
:1088500041F60F00ADF80000221D69460120A8DF97
:10886000002803D129462046FFF79DFC38BD0E2085
:1088700038BD38B5002924D0002822D00288502ADB
:108880001FD10546487C0C4600281AD0E988628929
:10889000A81D914215D14189022912D121680029D0
:1088A0000FD00C3000F00FFB08B1002000E00120D9
:1088B0008DF80000A888ADF80200226869462046BD
:1088C000904738BD70B5040012D001461C221448F0
:1088D000FEF7CCFD1248134D0560206850B17ADFD9
:1088E000002806D12068016829604068686005E0BA
:1088F0000E2070BD0B487BDF0028FAD108484FF6E8
:10890000FF711438084A20F8041B05493439016006
:108910000021FFF773FA0028EBD0032070BD0000A0
:108920005C340020982B0020F1D4020010B50446DE
:1089300000F006F808B1204610BD142010BD00005C
:10894000142801D3002070470146014801F083BE7E
:108950007C3400207CB5054608880C4609309042DE
:1089600001D90C207CBD68466DDF0028FAD1218832
:108970000820685420881B21401C80B22080295484
:108980002088401C80B220802844DDF8011001605E
:10899000BDF8051081802088801D80B220809DF860
:1089A0000010490800D0012129542088401C208053
:1089B00000207CBDF8B52B4D018804466E88212926
:1089C0003BD015DC2848294A1029A0EB02004FEAC9
:1089D000D0004FF0030202EB004013D0112925D044
:1089E000132929D100231A46852130467FDF17E05D
:1089F0003B2932D052292AD056291DD180881321F3
:108A000076DF0DE01AA102F0CFFC072000F0F0FBAA
:108A100008B1FFF7B9F9A1886980184801F078FF1B
:108A2000002809D0BDE8F840FFF7AEB914A102F064
:108A3000BBFC4FF6FF706880F8BD00200090A08856
:108A400069468FDF0028F7D0FFF79EF9F8BD0023B5
:108A50001A4619463046B1DFE2E78088132176DFF7
:108A6000DEE70000F02A002080E2020018E20200A7
:108A7000436F6E6E6563746564000000DC2F002038
:108A8000446973636F6E6E65637465640000000013
:108A900010B51A4C0188606810290ED011292BD10D
:108AA000401E606028D1FEF7DAFF002824D021683C
:108AB000002921D0BDE810400847D0B9002101228B
:108AC000084600F073FB08B107280FD107220221E6
:108AD000012000F06BFB08B1072807D10422022116
:108AE000002000F063FB20B1072802D0216801B10B
:108AF00088476068401C606010BD0000902B00201B
:108B00002DE9F04701883B4E40F2F3194FF6FF750F
:108B100010291BD011293ED0122954D0502946D1FA
:108B2000C188F289841D914241D1618902293ED1D7
:108B30008688304601F024FA050038D004F10C0094
:108B400000F0C1F9A8B3294630464EE0C17B8788C2
:108B5000044601292BD1A846284601F011FA050048
:108B600017D02F8000202872234843464A460168C8
:108B7000C5F80A104068C5F80E0004F1100105F1AF
:108B80000A0001F0B9FA6872F08900280FD129466D
:108B90002AE0042013E0808801F0F2F9040006D0F6
:108BA0006068FFF793F908B104F00AF82580BDE882
:108BB000F087FFE76868FFF789F90028F7D0BDE87C
:108BC000F04703F0FDBF87880646384601F0D8F924
:108BD0000400ECD02B464A4606F1080104F10A00D5
:108BE00001F08AFA607221463846BDE8F04700F08D
:108BF00051BE00005C340020982B00202DE9F04F7E
:108C0000044686880188424897B0834610290CD0D4
:108C1000112950D0103019296AD01A2974D1217A1B
:108C20000C09042C4DD301224CE0394D083DA868B5
:108C3000C0430B9069680BA801F02EFD0B990CA89E
:108C400000F0C2FD2C220CA96846FEF70FFC00279D
:108C5000E946A84610E000BF09EB47005FF00005B9
:108C6000B0F804A008EB85005146001D01F0E8FCB7
:108C70006D1C1E2DF6D37F1C0098B842ECD8142E24
:108C800005D317B00420BDE8F04FFFF77DB831469B
:108C9000584601F0EBFC314608F1040001F0E6FC17
:108CA000E07B022830D117B03146BDE8F04F1848BC
:108CB000001D01F0DBBC17B03146BDE8F04F01F0FC
:108CC000BFBC0022314601F0BCF8032C01D30122C5
:108CD00000E000220E4831460C3001F0B2F8022CC0
:108CE00001D3012200E0002209483146083006E0A5
:108CF000217A002908D1617AC1F3C002314617B048
:108D0000BDE8F04F01F09DB817B0BDE8F08F00004E
:108D100080340020F0B585B016460F4604001D468D
:108D200014D004AA19466069FFF78BFA00280BD10A
:108D3000A5F57F40FF380BD0049848B1007848B1C2
:108D40003088F42808D9072005B0F0BD0E20FBE7D5
:108D50000520F9E70820F7E7002000900190029035
:108D60000390A088ADF8000001208DF80200CDE945
:108D7000026769462846AEDFE6E7000070B5334D6E
:108D800004008EB02DCD08AE86E82D005BD0E9B38F
:108D90000868A061214608A862DF002851D1207828
:108DA00001258DF83200ADF83050A21C0CA92846E0
:108DB000A8DF002845D120216846FEF770FB02207D
:108DC000ADF8000020788DF802008DF80C509DF869
:108DD0000D00F426ADF8046040F00C008DF8115041
:108DE000ADF806508DF80D008DF81250608804F132
:108DF0000C02694600F0F2FB002822D120216846CF
:108E0000FEF74DFB0320ADF8000000E01BE02078EA
:108E10008DF802008DF80C509DF80D008DF8115062
:108E2000ADF8046040F010008DF81250ADF8065017
:108E30008DF80D008DF813506088221D694600F0F2
:108E4000CDFB0EB070BD0E20FBE7000044D7020042
:108E500070B588B00446002927D0002C25D00846DC
:108E60002188102923D0502927D057291DD1054604
:108E7000A188406906AAFFF7E4F9002815D1069EEB
:108E80003078002811D0A86900280ED01821684633
:108E9000FEF705FB01208DF800000195A088ADF8D4
:108EA00008000396A9696846884708B070BD08B0F5
:108EB0002146BDE8704003F005BB08B02146BDE87F
:108EC000704003F0DFBB007800F0010070470A78C3
:108ED0000270497841700220704700000149085C27
:108EE00070470000FCD60200084908B5085C0090F5
:108EF000684601F0E3FFD0F810050099C84010F073
:108F0000010000D0012080F0010008BDFCD6020065
:108F10002DE9FC410646C0074FF000050ED0104F6A
:108F200000240122385D009500231146019501F0CF
:108F30000BFF641C042CF4D300F04EF8B0070DD5E1
:108F4000074E0024361D0022305D03230095114694
:108F5000019501F0F9FE641C042CF4D3BDE8FC81FA
:108F6000F8D60200094908B5085C0090684601F08F
:108F7000A5FFD0F80425009B0121994021EA0203B6
:108F8000C0F808351140C0F80C1508BDF8D602002D
:108F90000249085C012101F0FEBF0000F8D6020082
:108FA0000249085C002101F0F6BF0000F8D602007B
:108FB000084908B5085C0090684601F07FFFD0F8CA
:108FC00004050099C84010F0010000D0012080F095
:108FD000010008BDF8D6020010B500242046FFF7B6
:108FE000D7FF641C042CF9D310BD10B50024204613
:108FF000FFF7D6FF641C042CF9D310BD10B5024650
:10900000064B4FF0FF3000215C5C944201D10846D2
:1090100010BD491C0429F7D310BD0000FCD6020086
:1090200070B50C4E0C004FF0000530600BD00120E5
:1090300000F06AF808B1022004E0002000F064F8B3
:1090400000B10B202070706810B9FEF708FD0546CE
:10905000284670BD902B002010B5002000F002FAC9
:1090600008B1062806D1012000F0FCF908B1062855
:1090700000D1002010BD00002DE9F0470D468146CB
:10908000FFF7BCFF0446042836D2DFF874801B4883
:109090001C4EA8F10C0725B3012D0ED0022D2BD1AB
:1090A00004EB440030444578002D25D0B9680029F0
:1090B00022D02846BDE8F047084704EB4401755C20
:1090C0000E44717849B10E4A4FF48041093A8068E4
:1090D000FEF7D2FE08B987F80390B17808F80410BB
:1090E000E2E78068FEF7F2FE04EB4401314418F831
:1090F00004008D78A842D7D0BDE8F08700D70200E1
:109100002C2B00201C340020042801D2FFF7ECBED9
:109110000020704710B501460A2827D014DC1B48F0
:109120000429408826D007292ED1A0F57F41FF3998
:109130002AD11748FFF749FA082825D0002823D05C
:10914000BDE81040FEF720BE1248134A801AC0083E
:10915000032202EB00400F290FD0102914D10FA1D8
:1091600002F022F9BDE81040FEF726BDBDE8104030
:1091700003F0EEBD132176DFDEE70AA102F014F959
:10918000BDE81040FEF7C8BC10BD0000F02A00206A
:10919000E82F002080E2020018E202006B657933BC
:1091A000204F4E006B657932204F4E0070B5002382
:1091B000042810D20D4D00EB4004012A02D10129F0
:1091C0000CD00022094E00EB4000304461B101296F
:1091D00006D0022906D00723184670BD0E30C2B251
:1091E0002A55F9E74270F7E78270F5E71C34002052
:1091F000044A014600201279D20702D0084600F046
:109200004DB87047202B002070B506461E4800243C
:10921000C0E90161B00720D500250122114628468A
:10922000FFF7C4FF6D1C0446042D02D2002CF4D0BD
:1092300013E094B940F2333204211448FEF722FDC2
:1092400004000AD1FEF70CFD040006D10F48104AB5
:109250000021001FFEF7D2FD0446F00712D00120C6
:10926000FFF756FE74B909480A4A00210C38FEF788
:10927000C5FD040006D10548074A01210838FEF75C
:10928000BDFD0446204670BD202B00200CD70200F7
:10929000619502006DA10200597C02002DE9F05F8A
:1092A0006E4C054600266078B34618B184F801B0CC
:1092B00000F044FF6A4F4FF47A694FF4C87A4FF0D8
:1092C0000108182D69D2DFE805F00C131338475454
:1092D000696E727B727BC58484848484B3B6B9BCA6
:1092E000C5C500F02BFF3868FEF7F0FD06465CE0D0
:1092F0000020FFF75DFE00284FF0000008D0FFF7C8
:1093000047FE022D02D14FF4E16008E0484606E036
:10931000FFF746FE022D01D1C82000E05046410C67
:10932000C0034FF47A72801841F100012570520099
:109330000023FEF757F801462AE00020FFF738FE29
:1093400000284FF0000004D0FFF722FE4FF44870D1
:10935000E5E7FFF725FEDFE70020FFF729FE0028FD
:109360004FF0000002D0FFF713FECFE7FFF718FE23
:10937000D4E70020FFF71CFE00284FF0000002D0C9
:10938000FFF706FE01E0FFF70BFE257040F6CD412A
:1093900000223868FEF770FD064646E00020FFF721
:1093A000E1FD257008E0002051E025703DE084F8E3
:1093B00001800120FFF7D6FD002240F26661E8E758
:1093C00084F801800120FFF7CDFD00224FF4005109
:1093D000DFE77868FEF77AFD0646D5F1110000D088
:1093E0002EB10220FFF7D4FD84F802B01DE0012861
:1093F00016D980B2C8214843C117C90341EA504178
:10940000C0034FF47A72801841F10001520000232A
:10941000FDF7E8FF014600227868FEF72DFD0646BD
:109420000220FFF7BDFD84F802803046BDE8F09FC2
:1094300000F084FEB9E700F081FEB4E700F07EFEA4
:1094400004E000F07BFE0020FFF7AAFD0120FFF7FB
:10945000A7FDAAE7FFF7C9FDA7E70000202B002022
:1094600000D70200012104F00DB900002DE9F84FEA
:109470000546861C00208DF8000091460F464FF0EF
:10948000010A6846FEF7DAFD1B4C04F21C486068CE
:109490003860D4E90101194F401A3968081A0EE002
:1094A0000121404601F0F2F800F078FE0146404606
:1094B00001F0ECF8D4E90101401A3968081A401C9F
:1094C0008642EDD8B9F1000F03D0052065F389106D
:1094D00002E0062065F39F5061683A68114004EB92
:1094E0008101C8606068304460609DF80000FEF74C
:1094F000C9FD5046BDE8F88F1C380020642C0020C0
:1095000030B482680468531C8360A154D0E901120E
:109510008A4202D330BC01F01EBB30BC7047000051
:10952000044881684068814201D1012070470020D1
:10953000704700001C380020034630B50748002162
:109540000478426806E000BF02EBC10005789D4246
:1095500003D0491CA142F7DB002030BDC82B0020FE
:1095600000780221FFF788BD05494FF0FF32082837
:1095700041F8202002D3084480F8582070470000AA
:1095800008350020F0B54FF0FF3512B10023082652
:1095900001E008230C260C4C05E000BF54F82370B2
:1095A0007F1C04D05B1CB342F8D32846F0BD2618BC
:1095B0005DB286F8305044F82310002AF5D1E11846
:1095C00081F85800F1E700000835002002490844FE
:1095D00090F9300070470000083500202DE9F04375
:1095E0008146887891B090460C4600B901208DF8EC
:1095F0003E002088ADF83C0000250095607C69465F
:1096000003F08EFB6E46A07C711C03F089FBE07BAF
:1096100000289DF8020002D040F0080001E020F090
:1096200008008DF80200217C11B140F0100001E02B
:1096300020F010008DF80200217B11B140F00100F4
:1096400001E020F001008DF80200217D09B1022126
:1096500000E0012161F342008DF802001C2102A804
:10966000FDF71DFF607BC10601D4800617D50E955E
:109670000EAFE07C791C03F053FB9DF83800079790
:1096800020F00F00401C20F0F00010308DF8380062
:109690009DF83A0020F00600801C8DF83A00607BAF
:1096A0008DF80800A07B8DF80900142109A8FDF7AA
:1096B000F6FE0FA8CDE90906A088ADF83000A06835
:1096C00020B1E088ADF82C00A0680D90A06998B397
:1096D00001950088ADF81000A06901AD01A940888E
:1096E000ADF81200A069406806950390A069007B60
:1096F00003F016FBA069691C407B03F011FBA06915
:10970000807A00289DF8060002D040F0080001E0B1
:1097100020F008008DF80600A169C97A11B140F067
:10972000100001E020F010008DF80600A169097A10
:1097300019B140F0010002E00DE020F001008DF8C9
:109740000600A169897B09B1022100E0012161F3D2
:1097500042008DF80600E06900B10590434609AA71
:1097600002A94846AADF11B0BDE8F08370B5084CE5
:10977000050009D010342168002907D0086820604E
:10978000496828468847F6E70834F4E770BD0000CA
:10979000F4340020054A012120B1012805D191703F
:1097A000FFF7E4BF51700020FAE77047F43400205F
:1097B00010B5D0E90234D1E90220D11AA04101D379
:1097C000012010BD002010BD73B58CB006460020EE
:1097D00000900D9880B100246D4621460DA800F040
:1097E0003AFF30B1009805EB400084800098401C9F
:1097F0000090641C142CF0D32C2269463046FDF7EF
:1098000035FE0EB070BD2DE9F04117880646B81D33
:1098100014460D46984202D90C20BDE8F0813188EB
:10982000072206290AD34FF4486C4FF6FF736145AF
:1098300001D9994202D17088062801D21046ECE77E
:10984000604501D99842F9D1994203D0984201D09C
:109850008142F3D80520E85520881221401C80B2AF
:10986000208029542088401C80B2208041193088F3
:1098700003F0DFFD2188084480B220804119708800
:1098800003F0D7FD2188084420800020C5E7FEF7BB
:109890007BBA000038B54A7A0F4B62B100220A72D7
:1098A0005969002906D001228DF80020ADF8020088
:1098B0006846884738BD0A7A62B19B684C680246A0
:1098C00019462046FEF7D8FA0028F3D0BDE8384004
:1098D00003F076B95B68F1E75C34002070B588B0BE
:1098E0000646002005900690ADF81410ADF816104D
:1098F0000190029001AA05A9304690DF050021D011
:1099000002F05CF90346114811493246401AC10879
:10991000012000EB014004460E4901F050FDBDF866
:10992000042012B9BDF8060028B1BDF80630204663
:1099300009A101F044FDBDF808201AB120461649DE
:1099400001F036FD08B0284670BD000018E20200A4
:1099500018E2020070DA02005468652072657175C1
:1099600065737465642054582F5258207061636B7E
:109970006574206C656E67746820697320746F6FFE
:10998000206C6F6E672062792025752F2575206FFA
:1099900063746574732E0000BCDA0200F0B587B002
:1099A0000C4607461646142101A8FDF778FDA0785D
:1099B00000B901208DF81A002088ADF8180006A81B
:1099C0000190A079694603F0ABF96D46E079691C16
:1099D00003F0A6F9E07800289DF8020002D040F0DC
:1099E000080001E020F008008DF80200217911B193
:1099F00040F0100001E020F010008DF802006179C5
:109A000011B140F0010001E020F001008DF80200EA
:109A1000217A09B1022100E0012161F342008DF8B1
:109A2000020002956089ADF80C00A089ADF80E0027
:109A3000E089ADF8100020690590324601A938464A
:109A4000ABDF07B0F0BD000070B500240F4D10E093
:109A5000686800EBC406307802F0D8F97178012903
:109A600001D0012100E000214140307800F05CF994
:109A7000641C28788442EBDBD5E90401084303D059
:109A8000BDE8704003F0C2BA70BD0000C82B0020D2
:109A900010B50021024800F00AFE80F3100010BD4E
:109AA000383C00204FF480328A400168C1F84823D6
:109AB0000068C0F8082370474FF4A07202EB8101E0
:109AC00089B200F0A1B92DE9F04105460E464FF4E8
:109AD000A07000EB860081B228684FF48034B44057
:109AE000984622F07F47C0F808432868C0F84843EA
:109AF000286801F015FE286800EB8600C0F8407564
:109B00002868C0F84443B8F1000F02D02868C0F8B4
:109B10000443BDE8F0810068D0F8040570470000F8
:109B200070B54379234C44F823204279231D03EB7D
:109B3000C202224C1579204A121BD4082DB10825E7
:109B4000022000EB04401EA130E005680A88C5F839
:109B5000082590F904208978002A4FEA411104DB96
:109B600002F1E02282F8001405E002F00F0202F197
:109B7000E02282F8141D90F904100122002909DB6B
:109B800001F01F0502FA05F54909890001F1E021FC
:109B9000C1F800514179002503EBC1010A714179F7
:109BA00043F83100032000EB04400EA101F0FCFB60
:109BB000284670BD402C002068E2020018E2020036
:109BC00052544320696E7374616E636520616C72D8
:109BD0006561647920696E697469616C697A65642C
:109BE0002E0000005254433A20696E697469616C1A
:109BF000697A65642E00000090F90400002809DBF2
:109C000000F01F02012191404009800000F1E02096
:109C1000C0F8001270470A46022100F07BB84FF4EA
:109C2000827100F0F1B8006801210160704700689E
:109C30000121416070472DE9F05F07460C464FF463
:109C4000A07000EB84001FFA80FA38684FF4803669
:109C5000A6409B4622F07F45C0F848633868C0F8AC
:109C600008633868D0F8048500EB8402D2F8409588
:109C7000C2F840855146386801F052FDA9EB080052
:109C800020F07F40012806D1102002F003F8514651
:109C9000386801F045FD3868D0F80485C0F84463A1
:109CA000A5EB080121F07F413868012900EB840011
:109CB00010D0C0F840553868D0F804156FF07F4CCC
:109CC0006A1A521E22F07F42ACEB0B03934217D369
:109CD00062B118E06D1CC0F84055102001F0DAFFA9
:109CE0003868D0F8040540450AD10CE000EB840048
:109CF0006D1CC0F840553868D0F80405884202D081
:109D00000D20BDE8F09F01223146384600F002F8F0
:109D10000020F6E70368C3F84413002A02D0006865
:109D2000C0F80413704700002DE9F84F0E4634497F
:109D3000804601EB5001C007097801D00F0901E00E
:109D400001F00F074FF00009424601204946FDF798
:109D50007AFBDFF8B0A004460D46052F4ED2DFE8AF
:109D600007F003161B282C00002E47D00121404687
:109D700003F040F88DF800906846FEF75FF9504612
:109D8000D0E904120C431543CAE9044532E00EB190
:109D9000022114E0002112E04EB10321404603F0FD
:109DA00029F84046BDE8F84F012103F0F3BB01213B
:109DB00005E0002E22D1042101E02EB1032140460E
:109DC000BDE8F84F03F016B80021404603F012F842
:109DD0000021404603F0DEFB8DF800906846FEF758
:109DE0002DF95046E243D0E904341A4024EA050133
:109DF000CAE904219DF80000FEF744F9BDE8F88F98
:109E0000C4350020C82B002010B5006842581AB194
:109E100001F086FC012010BD002010BD82688388FF
:109E20001A4003689A5C0A708168491C8160704717
:109E3000C26883881A4003689954C168491CC1608C
:109E400070470AB100F012BC00F0FABB70B50D46C5
:109E50000446B0F81414D0F810040122FEF7D6FA24
:109E600000B1057004F13C0204F5826104F1540074
:109E700072DF70BD10B50446C0B2FEF7B5F82046DB
:109E800010BD00000C484A8843889A4213D10A88C2
:109E9000A2F52063773B0ED18988C91E8AB28280E1
:109EA000064807491346401AC008032101EB004049
:109EB00004A101F084BA7047F02A002080E2020079
:109EC00018E2020044617461206C656E20697320A1
:109ED00073657420746F2030782558282564290014
:109EE00010B50949094800F059FC08B1FDF74CFFCD
:109EF000F721064800F046FC002803D0BDE81040DA
:109F0000FDF742BF10BD0000859E0200C82F002053
:109F100010B50B48FFF7FFFD094A083AD2E90434AF
:109F2000C018D2E9063244F10001C31A71EB0202F3
:109F300004D24FF08072801841F1000110BD000082
:109F4000082C002010B5C0B2FFF7F6FA04460078DE
:109F500001F05CFF01466078012801D0012000E09B
:109F6000002090EA010F08D00449D1E90401084318
:109F700003D1BDE8104003F049B810BDC82B002044
:109F80000146034802888A4200D000207047000042
:109F9000483400202DE9FC5F0E008346DDE90C47C4
:109FA000C6F1000098469246814600D40846012535
:109FB00003E000BF90FBFAF06D1C5045FADAA845AB
:109FC00000D9454624B1002E01DB780700D5641E78
:109FD000B80702D5B8F1000F0AD0F80708D13CB194
:109FE000A54205D220215846641EFFF789FAF6E7FC
:109FF000002E02DA4E462D2102E0780703D52B21F0
:10A000005846FFF77DFA07F0030002280BD1B8F19C
:10A01000000F08D13CB1A54205D230215846641E3C
:10A02000FFF76EFAF6E7CDE9004743465246314660
:10A03000584603F003FABDE8FC9F000070B50D46DA
:10A04000044600684FF4887101F0D8FD4FF4907118
:10A05000206801F0D3FD4FF49271206801F0CEFD2D
:10A060004FF4A271206801F0C9FD4FF4AC71206873
:10A0700001F0C4FD20681249C0F804132068690784
:10A0800040F30730090E002804DB00F1E02080F8DF
:10A09000001405E000F00F0000F1E02080F8141D2E
:10A0A000206840F30730002809DB00F01F0201217F
:10A0B00091404009800000F1E020C0F8001170BD1F
:10A0C00010034200024600201268530713D502F025
:10A0D0000300012802D002280CD105E0C2F383104E
:10A0E0000B68801C184404E00223086803EB9252BA
:10A0F0001044086001207047F0B58488A518944288
:10A1000000D82246A41AC288D6189A4200D813460C
:10A11000D21A4B880788BB420CD34088834209D8A7
:10A120008888A04206D3A84204D8C888904201D3A8
:10A13000B04201D90020F0BD0120F0BD0A4810B5A1
:10A14000807860B1002401E0022C06D02046FEF7A2
:10A150001FFF641C042CF7D310BD0324F6E7BDE8F1
:10A160001040FEF739BF0000202B00200348017982
:10A17000C90702D00078FFF791B87047202B002064
:10A18000F721018017214180002101714171FB21DC
:10A1900081711B21C1717047704700002DE9FF419B
:10A1A0000026244800F06FFA2248001F074600F0FE
:10A1B0006AFA214C2149A06800900D6800E00098DF
:10A1C0006946284004EB80000C30FFF77BFF002835
:10A1D000F5D101AA009901EA050304EB8303491CA8
:10A1E000DB6842F82030401C00910228F2D301982D
:10A1F00000F0030001280BD0022810D101980321A0
:10A2000001EB90500099BDF80A6001EB900005E069
:10A210000198BDF80A60C0F38310084400903846E6
:10A2200000F02EFA08B10098A06004B03046BDE8F6
:10A23000F0810000343C00201C380020642C0020F9
:10A240008AB0182253496846FDF710F95248069023
:10A2500052494FF48070CDE9070109900723504A15
:10A2600006A96846FDF76EFE08B1FDF78DFD4FF4B7
:10A270008041002001F004F908B1FDF785FD00F0F0
:10A2800069FFFDF7CBFD08B1FDF77EFD45490320D1
:10A29000FEF7BAFF08B1FDF777FD69460020FEF72B
:10A2A000BFFE08B1FDF770FD01F0F4F908B1FDF74C
:10A2B0006BFD01F0A5FB08B1FDF766FD00246946C2
:10A2C0000120009401F03CFA08B1FDF75DFD6846FD
:10A2D00001F0CEFA08B1FDF757FD9DF8080032A154
:10A2E00020F00F00401C20F0F00010308DF8080026
:10A2F0000F2202A87CDF08B1FDF746FD0094102074
:10A30000ADF800003C200194ADF80200ADF8044027
:10A310004FF4C870ADF8060068467ADF08B1FDF763
:10A3200033FDFFF7DDFD02F0BFFCFDF7B3FB1C21A1
:10A330006846FDF7B4F84FF4A030CDE900404FF483
:10A34000F02002901C48059003251C488DF80C5005
:10A350000690ADF80E408DF810406846FEF7B2FA50
:10A3600008B1FDF711FD16A0FDF736FB19481A4993
:10A37000401AC00805EB004018A101F015F8FDF7E0
:10A38000BDFB00BF00F0F4FE0028FBD101F096F900
:10A39000F8E70000E0D60200B42D0020B42E002023
:10A3A00079D00200159102004E6F726469635F55A7
:10A3B0004152545F42415300A9C402008F980200E9
:10A3C0000D0A5541525420737461727465642E0DE8
:10A3D0000A00000080E2020018E202004465627593
:10A3E00067206C6F6767696E6720666F72205541E2
:10A3F0005254206F766572205254542073746172E7
:10A400007465642E0000000070B5144682880E4604
:10A4100005462088111D0144921C994201D8FE2A4C
:10A4200001D90C2070BD521C32542088FF21401CE1
:10A4300080B2208031542088401C80B22080811955
:10A44000288802F0F6FF2188084480B22080AA887C
:10A4500042B1A96841B13044FDF708F82088A988C5
:10A4600008442080002070BD072070BD2DE9F04712
:10A47000C5881E1DB6FBF5F78946B6FBF5F1044607
:10A4800005FB176C407916686843DDF820A0F718C3
:10A49000001F874200D9C61A166001E02468491ED1
:10A4A0000029FBD1A5EB0C078846B74216D818E067
:10A4B00004EB0C00001D09EB0803BAF1000F3A464B
:10A4C00002D00146184600E01946FCF7CFFF246889
:10A4D000F61B4FF0000CB844B54201D9374600E0F6
:10A4E0002F46002EE4D1BDE8F087000030B50246CB
:10A4F00051B100F0D9FF0021074C08E034F82130B9
:10A500001568AB4202D11160002030BD491C814268
:10A51000F4D3052030BD000000000000F8B50F4660
:10A52000017814460546012901D1687830B12088A8
:10A53000821C9A4232D8012902D006E00720F8BDD9
:10A5400069780144891C994228D8181A801E86B25D
:10A55000ADF800602188B81C084469467DDF0028FA
:10A56000EDD12978022904D06878BDF80020904206
:10A5700005D3BDF80000B04201D809200AE0082048
:10A58000012905D16978B14202D8ADF8001001E087
:10A59000ADF80060BDF80010FE2901D90C20F8BD0F
:10A5A0002288491CB9542188491C89B221807854D9
:10A5B0002088401C2080BDF8001008442080002026
:10A5C000F8BD10B531B1B2FBF3F403FB14241CB198
:10A5D000092010BD0E2010BD016000214160816086
:10A5E0008281C381084610BD70B50C460546FCF754
:10A5F00011FE002802D021882868084470BD10B5DB
:10A600000A8849888A4203D1FCF746FE012010BD22
:10A61000002010BD70B50C460546FCF720FE002852
:10A6200002D061882868084470BD10B50A8849883E
:10A630008A4203D1FCF70AFE012010BD002010BDA4
:10A6400001F01F0301229A40D243490900EB810027
:10A65000114600F021B84A0950F8220001F01F020B
:10A6600001219140084000D00120704701F01F03F4
:10A6700001229A40490900EB8100114600F01CB804
:10A68000002100F00FB8012100F016B808B56A46A5
:10A69000FCF757FE009808BD08B56A46FCF737FE80
:10A6A000009808BD08B56A46FCF731FE08BD08B53C
:10A6B0006A46FCF713FE08BD08B56A46FCF71AFEA9
:10A6C000009808BD08B56A46FCF748FE009808BD2A
:10A6D00038B5044600258DF800506846FDF7AEFCFD
:10A6E00021686268086890420ED9401E08600178AF
:10A6F000238AE26801FB0325227A2168101AC0B27E
:10A700000A79824200D208719DF80000FDF7BAFC78
:10A71000284638BD38B5054600208DF800000C46A7
:10A720006846FDF78BFCE868298A201AB0FBF1F136
:10A730002A681068431C136001709DF80000FDF743
:10A74000A1FC38BD10B530B1017A42680368891A9E
:10A75000C9B21A6006E00E2010BD03681A68541CC6
:10A760001C601170491EC9B2F7D200680021017146
:10A77000084610BDC20800F007030120895C98401C
:10A780000840704728B1A1F11702E12A03D307203E
:10A7900070470E20704701800020704710B560B1EF
:10A7A0000161F72120F8021B20F8021BFB2100F8B1
:10A7B000021BFFF7E5FC002010BD0E2010BD0000BD
:10A7C000F0B5858893B00C46002D39D1018800265C
:10A7D0003F4F24293BD006DC102909D011290CD089
:10A7E000232958D14FE03A290BD0552953D129E0DC
:10A7F0000146204601F09CFE4DE0A01DFFF7C0FC85
:10A8000049E02246408934F8061F814200D80846B4
:10A810006080172800D217206080106970B16079BD
:10A8200060B1D7E90001CDE90301ADF80E506088B1
:10A83000ADF81000136903A9104698476671267198
:10A8400013B0F0BD0146204601F0C6FE23E0011D15
:10A850002C2206A8FCF70AFEBDF81800BDF81C2043
:10A8600004EBC0014A732269AAB1D7E90423CDE9F8
:10A870000423ADF81200487B8DF8140022692046AD
:10A8800004A9904707E0017A207B884200D2014664
:10A890002846FFF723F8A07A0028D1D0E18828467F
:10A8A000A5DF012580B11128CAD001F087F9024641
:10A8B0000848094913B0401AC00805EB0040BDE83C
:10A8C000F04006A100F074BDA672E572B8E7000082
:10A8D0002CD7020018E2020018E2020073645F62E3
:10A8E0006C655F67617474635F65786368616E67E8
:10A8F000655F6D74755F7265717565737428292065
:10A9000072657475726E65642025732E00000000F8
:10A9100020B10278DE2A03D0082070470E2070474D
:10A9200041800020704760B159B10278DE2A0AD018
:10A9300009684160DE2101704FF6FF7141800020FF
:10A9400070470E207047082070477FB505460029E4
:10A950004DD0002D4BD008780C46DE2847D1A88872
:10A960006188884202D1204602F002FE2888012830
:10A9700025D002283BD011283AD0512837D135F8BC
:10A98000040F6188884232D1A978A81C02292ED1EF
:10A99000017A042903D0062901D0052927D10021F5
:10A9A000009102228DF8002001914FF4C0720291B3
:10A9B0000391ADF80420007A05280FD010E0297A21
:10A9C0002046012913D1A988428891420FD1012143
:10A9D000017204B0BDE8704002F0CABDADF80410C9
:10A9E00028886946B0DF002801D0616888477FBDAC
:10A9F000A88861888842FAD14FF6FF7060807FBDD9
:10AA000000F180400068002800D00120704708B5A0
:10AA100000F18040002101600068009008BD000046
:10AA200070B50D4C0125207808B185260EE0002078
:10AA3000A06060602061E060084801F003F906460C
:10AA400001F02AF808B901F0E7F8257001F0DCF808
:10AA500000B1A570304670BDF43400209597020017
:10AA600038B500258DF800506846FDF7E7FA084C28
:10AA7000E068401EE060E06828B901F0C5F810B950
:10AA800001F0F0F8A5709DF80000FDF7FBFA38BD65
:10AA9000F4340020F0B505460478154889B0164610
:10AAA00040F82420124A08690832A2F10C0742F843
:10AAB0002400487F385520226846FCF7D7FC0494D0
:10AAC0002878385C48B10EB10A4A00E00022694695
:10AAD000281D01F063FB09B0F0BD0EB1064A00E08D
:10AAE0000022694605F10C0001F00CFAF3E70000C2
:10AAF000A42B0020F1D2020095D1020030B40378DB
:10AB0000054CE35C1BB130BC001D01F07DBB30BCCB
:10AB10000C3001F061BA0000A02B002030B40378A3
:10AB2000054CE35C1BB130BC001D01F0EFBB30BC39
:10AB30000C3001F0C7BA0000A02B00200FB408B5FC
:10AB40000399002904D004AA00926A4600F00FF885
:10AB500001B05DF814FB10B582680446002A05D0E8
:10AB6000D4E90403216898470020A06010BD2DE9B6
:10AB7000FC4791460C00804676D014F8011B39B191
:10AB800025290ED04046FEF7BBFC20780028F4D1E2
:10AB900098F80C00002867D04046BDE8FC47FFF756
:10ABA000DABF0020012221782B291BD02D2902D0C9
:10ABB000302908D102E040F0010001E040F002003D
:10ABC000641C002AEFD100252A290ED02178A1F19A
:10ABD00030020A2A11D205EB850201EB4205641C02
:10ABE000303DF1E740F00400EAE7D9F800100B1D12
:10ABF000C9F800300968641C0D44217800232E290F
:10AC00000BD114F8011FA1F130020A2A05D203EB7F
:10AC1000830201EB4203303BF3E76C290DD0682936
:10AC20000BD0692921D00BDC252918D0582931D027
:10AC300063290ED0642915D117E014F8011FECE741
:10AC4000702969D0732932D075291BD0782909D190
:10AC500020E0D9F80000011DC9F800100178404635
:10AC6000FEF74EFC641C90E76CE0D9F800100A1D5A
:10AC7000C9F800200968CDE900500A224046FFF7D4
:10AC800089F9EFE7D9F800100A1DC9F80020096812
:10AC90000A2206E0D9F800100A1DC9F80020096848
:10ACA0001022CDE90050404602F0C8FBDAE7D9F89F
:10ACB000001000270A1DC9F800200E68C00705D142
:10ACC00012E04046761C7F1CFEF71AFC3178002902
:10ACD000F7D104E0202140466D1EFEF711FCBD4275
:10ACE000C0D9002DF6D1BDE74EB13046FCF7E2FBEE
:10ACF000074604E0202140466D1EFEF701FCBD42E0
:10AD000006D9002DF6D103E04046761CFEF7F8FB8D
:10AD100031780029F8D1A5E7D9F80000011DC9F85C
:10AD20000010056830214046FEF7EAFB78214046D6
:10AD3000FEF7E6FB08200021CDE9000103461022C2
:10AD40002946B0E7BDE8FC872DE9FF411C46DDE957
:10AD50000A7815460E46684600F0B0F846EA450106
:10AD600041EA840141EA072242EA0841009A00EBE5
:10AD70008200C0F80017BDE8FF812DE9FF411C46A5
:10AD8000DDE90A7815460E46684600F0A5F846EA61
:10AD9000450141EA840141EA072242EA0841009A5A
:10ADA00000EB8200C0F80017BDE8FF812DE9FF41EC
:10ADB0001C46DDE90A7815460E46684600F09AF80A
:10ADC00046EA450141EA840141EA072242EA084194
:10ADD000009A00EB8200C0F80017BDE8FF812DE962
:10ADE000FF411C46DDE90A7815460E46684600F02C
:10ADF0008FF846EA450141EA840141EA072242EA26
:10AE00000841009A00EB8200C0F80017BDE8FF81FE
:10AE10001CB500220B46009211460192FFF7C6FFB7
:10AE20001CBD1CB500220B46009211460192FFF793
:10AE3000D6FF1CBD1CB5002100910B4601220191DB
:10AE40001146FFF7B3FF1CBD1CB5002100910B4656
:10AE5000012201911146FFF7C2FF1CBD13B50C463C
:10AE6000684600F039F8009900EB8101D1F800271D
:10AE700022F44032C1F80027009900EB8100D0F89D
:10AE8000001741EA0441C0F800171CBD3CB50A4C4C
:10AE9000D4E90034CDE900346B46441808E000BF23
:10AEA00053F82010D1F8205520C2C1F82055401C7D
:10AEB0008442F5D83CBD000054D702000168202927
:10AEC00002D24FF0A040704701F01F01016001481D
:10AED00070470000000300500168202902D24FF0A3
:10AEE000A040704701F01F01016001487047000059
:10AEF000000300500168202902D24FF0A0407047A3
:10AF000001F01F010160014870470000000300507C
:10AF10000168202902D24FF0A040704701F01F01C4
:10AF200001600148704700000003005042094FF0E3
:10AF3000000102D0012A05D102E04FF0FF3101E00B
:10AF40004FF6FF7100F01F00012282400A4201D03B
:10AF5000012070470020704701B56846FFF7BCFF2D
:10AF6000D0F810050099C84000F0010008BD01B5F7
:10AF70006846FFF7BFFF009A01219140C0F808150D
:10AF800008BD01B56846FFF7C3FF009A0121914053
:10AF9000C0F8081508BD38B501240090684631B1E5
:10AFA000FFF78CFF00998C40C0F8084538BDFFF7CB
:10AFB00085FF00998C40C0F80C4538BD034908B5A1
:10AFC0000844002101600068009008BD0060004056
:10AFD00002494058012800D000207047006000401E
:10AFE00030B5154A01460020D2F8104423460AE045
:10AFF000DB681D79854205D1401C0A28F6DB4FF03D
:10B00000FF3030BD1B68002BF2D1431CF9D0CB6858
:10B010001871D2F8103443B1DB68CC681B68236028
:10B02000D2F81024D268116030BDC2F81014C9687B
:10B0300000220A6030BD00001C3800207047FCF779
:10B040001DBB704708B5034A00924023024A00F036
:10B0500005F808BDD1CB020084360020F0B595B0CC
:10B060001C4615460F4608461A9E00F0EDFA1821B8
:10B0700009A8FCF714FA0E96CDE90954002308221A
:10B0800003A9384600F0F5FA05980690BDF81000BF
:10B09000ADF81C00BDF81200ADF81E0000208DF8C0
:10B0A00021000398082600F00300012802D002289E
:10B0B00018D032E003983346850AC0F3C2008DF8F9
:10B0C000200003980FA9C0F38314A200384600F0B3
:10B0D000D0FA09A8009006AB22460FA9284600F036
:10B0E0000FFA1AE00398840DC0F3C2008DF8200017
:10B0F000082C01D2254600E0082533462A460FA930
:10B10000384600F0B6FA2E44641B09AB06AA29465D
:10B110000FA800F05DF9002CEAD1384600F09AFA49
:10B1200015B0F0BD0A4A012902EBC00007D0022980
:10B1300007D0032907D0042907D000207047022038
:10B1400070470420704700797047407970470000CD
:10B1500018E2020010B5FFF772FF04210348FFF761
:10B160003FFF02490120C968487110BD08E2020092
:10B170002DE9F04F8DB0FEF7D3F918B100200DB0D6
:10B18000BDE8F08F7E4C4FF0000BC4F818B4BFF34D
:10B190004F8F7C49A06802900D68D846284004EB88
:10B1A00080000BE0D4F8180470B9616802988142FD
:10B1B00001D8A160E2E7284004EB80000C3002A92E
:10B1C000FEF780FF0028EDD1002005AA029901EAD0
:10B1D000050304EB8303491CDB6842F82030401C64
:10B1E00002910228F2D3059800F00300022802D051
:10B1F00001284DD0AAE005985022810D8946B2EB76
:10B20000905F00D850210E4666F39F50059008319C
:10B210005D4800F0D0F9070078D000F015FA4346F9
:10B22000082205A9384600F02CFA029908F1080A0C
:10B230002940681A8000001D864222D9504D0C35E5
:10B2400030B1C2B204EB8101301A90460C3104E0F7
:10B250002946F2B2002590462846C6B253463846E3
:10B2600000F00FFA0AEB080325B1324629463846AA
:10B2700000F007FA029909F1030001EB9000029037
:10B280003BE004EB81015346324638460C31EFE790
:10B290000598C0F38310062800D30620059960F3B3
:10B2A0008911C1F38310801C05918100364800F09C
:10B2B00082F907004AD000F0C7F94346082205A9E1
:10B2C000384600F0DEF908F1080800260FE0029881
:10B2D000434600EA0501401C04EB81010290042270
:10B2E00038460C3100F0CDF908F10408761C0598B9
:10B2F000C0F38310B042EAD847B1D4F81054D4F860
:10B30000180478B1384600F0A5F934E01EE0E8688A
:10B310004079012804D12A682846394612689047A6
:10B32000E8680568002DF2D1384600F093F98DF8F1
:10B3300000B06846FCF782FED4F8180408B90298F9
:10B34000A0609DF80000FCF79DFE14E0D4F81044C6
:10B3500005E02168204689688847E0680468002C79
:10B36000F7D10A480A49401AC008022101EB0040FF
:10B3700008A100F019F8FEF7D3F880F00100FEE60E
:10B380001C380020642C0020A0E2020080E20200B1
:10B3900018E202004261636B656E647320666C752F
:10B3A000736865640000000000231A4601F03ABD8E
:10B3B00008B5012300926A4601F034FD08BD1CB5B2
:10B3C000CDE9002302236A4601F02CFD1CBD0000DC
:10B3D0002DE9F0470E4680461C469246082940D883
:10B3E00094F80C90002020731946104601F04CFA96
:10B3F0000025B54206D218F805201BA12046FFF70C
:10B400009DFB03E01AA12046FFF798FB6D1C082D59
:10B41000EFD318A12046FFF791FB0025B54212D2C9
:10B4200018F805707E2F08D8FCF71CF80068C05D7E
:10B4300010F03E0F01D03A4600E02E220EA1204629
:10B44000FFF77CFB03E00DA12046FFF777FB6D1CA7
:10B45000082DE3D301222146504601F0F7F984F884
:10B460000C90BDE8F0870000202530327800000005
:10B47000202020007C000000256300002000000048
:10B48000064910B500200870054800F0E1F80028D2
:10B4900003D1044800F036F9002010BD1C3800200C
:10B4A000A0E2020038D9020002480349401AC0084D
:10B4B00070470000A0E2020018E2020013B56846DF
:10B4C000FFF714F808B100201CBD0248009950F89D
:10B4D00031001CBD18E2020070B508480125D0F803
:10B4E0001044057007E0E06845712168204649680E
:10B4F0008847E0680468002CF5D170BD1C38002036
:10B500002DE9FF4781460C9D00200C462F7B2873B8
:10B51000984616462946184601F0B6F9072E42D23B
:10B52000DFE806F004090F161F2A360049462846B0
:10B53000FFF704FB37E0494628462268FFF7FEFA8A
:10B5400031E0D4E9002349462846FFF7F7FA2AE01C
:10B55000A0680090D4E9002349462846FFF7EEFA98
:10B5600021E0D4E90201CDE90001D4E900234946F4
:10B570002846FFF7E3FA16E004F1080007C88DE853
:10B580000700D4E9002349462846FFF7D7FA0AE026
:10B5900004F108000FC88DE80F00D4E900234946E4
:10B5A0002846FFF7CBFA00222946404601F04EF923
:10B5B0002F73BDE8FF872DE9F041058A80462D1FD6
:10B5C0004819C01CB0FBF5F0C6B24046FFF780F842
:10B5D000041E19D00020207101206071E580002731
:10B5E0002546761EC4F800800BE04046FFF770F851
:10B5F00060B16179491C6171286005467F1CC0F803
:10B600000080B742F1D32046BDE8F081204600F02B
:10B6100002F80020F8E72DE9F041457901466B1E5C
:10B62000002201E00968521C9A42FBD30F680146D0
:10B63000002605E038460C68FFF76CF82146761CBA
:10B64000AE42F7D3BDE8F0810121001DFFF71EB81F
:10B65000FFF778B810B504460121001DFFF732F856
:10B6600010F0FF0F04D12046BDE81040FFF7D3BF14
:10B6700010BD1CB501920122009201AAFEF7F6FE50
:10B680001CBD1CB501920022009201AAFEF7EEFE3D
:10B690001CBD0000064910B500204870091D086057
:10B6A000BFF35F8F0349044800F01AFA002010BD71
:10B6B0004C2C0020D0D702007836002008B500209E
:10B6C0008DF800006846FCF7B9FCF1EE100A20F096
:10B6D0009F00E1EE100ABFF35F8F08494020C1F8D8
:10B6E00080029DF80000FCF7CDFC00F0D5F908B110
:10B6F00041DF08BD20BF40BF20BF08BD04E000E01F
:10B70000FCF742BB82680021916082681161826807
:10B7100051618268D16082685160806801607047C1
:10B7200008B5002242504058009008BD20B103499E
:10B7300009680160002070470E207047BCD90200E4
:10B740002DE9FE4307460E460846FFF7EFFF0028A7
:10B750007CD100240094019406208DF800704FF0F5
:10B760000108ADF8040002948DF80280694620209B
:10B77000326869DF3649374A891AC908012202EB63
:10B78000014530B100F01AFA024628463249FFF767
:10B790000FFE00948DF801808DF802400194029410
:10B7A0008DF8034069464020326869DF30B100F00F
:10B7B00005FA024628462949FFF7FAFD00948DF85C
:10B7C0000070F720ADF8020001940294694623202E
:10B7D000326869DF30B100F0F1F9024628462049AD
:10B7E000FFF7E6FD0094019402948DF8008069460D
:10B7F0000120326869DF30B100F0E0F902462846E6
:10B800001849FFF7D5FD4FF4B06000900194029401
:10B810006946A120326869DF30B100F0CFF90246F5
:10B8200028461149FFF7C4FD0094019402948DF855
:10B8300000406946A020326869DF30B100F0BEF9EF
:10B84000024628460949FFF7B3FD0020BDE8FE8304
:10B8500090E2020018E202005CE00200A4E00200B4
:10B86000F0E00200BCDF020008E0020068DF020036
:10B870002DE9F0410546076860DF804619491A48FE
:10B880002A68081AC608BA4219D9022000EB0644F1
:10B8900016A12046FFF788FD20463A461FA12B68D7
:10B8A000FFF78DFD4FF08050D0F80C012968800221
:10B8B00000F10050421A204625A1FFF779FDB8F1AA
:10B8C00000004FF001040AD000F078F9024604EBC2
:10B8D00006402AA1FFF76CFD4046BDE8F0812F48E5
:10B8E0000470F9E790E2020018E20200496E7375F5
:10B8F0006666696369656E742052414D20616C6CA7
:10B900006F636174656420666F722074686520538C
:10B910006F66744465766963652E00004368616EE6
:10B920006765207468652052414D2073746172749C
:10B93000206C6F636174696F6E2066726F6D20306A
:10B9400078257820746F20307825782E000000004C
:10B950004D6178696D756D2052414D2073697A652E
:10B9600020666F72206170706C69636174696F6EBC
:10B9700020697320307825782E00000073645F62A0
:10B980006C655F656E61626C6528292072657475EF
:10B99000726E65642025732E00000000BB2C002011
:10B9A00030B51548ADF5017D0078002821D04FF461
:10B9B000FA7500BFADF8005280A9684661DF38B162
:10B9C000052816D00DF5017DBDE83040FCF7DCB947
:10B9D0006C460A497DA800F083F806E0D0E9002112
:10B9E000204690477DA800F092F87F980028E1D08B
:10B9F000F4E70DF5017D30BDBB2C0020C0D902005D
:10BA00007CB5194C207808B108207CBD0120A070BD
:10BA1000002001F0A7F8112819D0002001F0BAF891
:10BA200012480026006801908DF800606846FCF717
:10BA300005FB0F4901A810DF05000AD00020207087
:10BA40009DF80000FCF71EFB2DB128467CBD0020B0
:10BA50007CBD0120F3E7A670667001F099F9012022
:10BA600001F098F8F3E70000B82C002054D9020048
:10BA7000057D02000EB50749684600F031F805E083
:10BA8000D0E900108847684600F041F80298002885
:10BA9000F6D10EBD70D90200014800787047000051
:10BAA000B82C00201FB568464BDF30B1052814D0F4
:10BAB00004B0BDE81040FCF767B9084901A800F0E0
:10BAC0000FF806E0D0E900210098904701A800F0A7
:10BAD0001EF803980028E6D0F4E71FBDDCD9020069
:10BAE000016009684160AFF3008010B5D0E9002122
:10BAF0005368994201D1002104E0D1E90034A34206
:10BB000002D01946816010BD08314160F0E78168BC
:10BB100000290BD0026892680A44826041684B6831
:10BB20009A4203D108314160FFF7DFBF704770B51B
:10BB30000D460646446804E0B2682946904718B1AD
:10BB4000246820680028F7D120682860256070BD2F
:10BB500040680068704741680868002801D00268A2
:10BB60000A60704702460020526806E08B4203D10B
:10BB700008681060012070471A461368002BF5D141
:10BB8000704700000C4A10B502F594730EE0991A44
:10BB9000C91001EBD171491002EBC1010C6884425C
:10BBA00001D90B4602E005D201F108029A42EED318
:10BBB000002010BD486810BDF0D7020000B5FFF7A7
:10BBC000E1FF002800D1014800BD0000DCD70200E1
:10BBD0004058002800D00120704708B5002242508C
:10BBE0004058009008BDD0F80403084000D0012060
:10BBF00070474058002800D00120704708B5002247
:10BC000042504058009008BD02480068002800D00B
:10BC1000012070470004014008480068012110F02D
:10BC2000010F06D14FF0E020C02280F800248430BC
:10BC3000C1670349012008607047000000E100E08F
:10BC4000180500400649024600200B790BB18520FB
:10BC500070470A6001220A7100224A717047000091
:10BC6000B42B0020022010B54107C1F808034FF49F
:10BC70008270FEF7CCFE0549012008600448016887
:10BC8000C1F300410029FAD110BD00000C000040B2
:10BC900018040040002802D001498001084770477D
:10BCA000A1D702002DE9F0410D46064600F046FD01
:10BCB0000028304615D0FDF789FC083800F0BEFD9D
:10BCC000032802D001280AD003E03046FFF744F9E8
:10BCD00028B103213046BDE8F041FFF7BFB802218B
:10BCE000F8E700F037FD002822D03046FDF76EFC63
:10BCF00004464FF4807000EB84000E4F81B207EBD6
:10BD00008400D0F8102542F00102C0F81025084642
:10BD1000FFF754F9002D0BD03046FDF757FC0649CC
:10BD200051F82000002803D00120A040C7F80403E8
:10BD3000BDE8F08100600040083500202DE9FC419D
:10BD4000DFF8BC80044608EB0400002790F93000BF
:10BD50001346C0170E46401C01D008274DE0B078AE
:10BD60001946C0F340022046FDF70CFC0546401C76
:10BD700042D0B07841071AD4C0070DD0684600946D
:10BD8000FFF7AAF8009900EB8101D1F8000720F035
:10BD90000200C1F8000707E00021737820460091F7
:10BDA0000A460191FEF7E9FF204600F0B9FCB078A1
:10BDB000800718D51348317800EB8500D0F810259E
:10BDC000114B1A40C0F810254FF47C524FF4403309
:10BDD00002EA042203EA01410A43D0F810150A439B
:10BDE000C0F8102509E008EB0500327810F8581F5C
:10BDF00041EA8211017000E004273846BDE8FC8169
:10BE00000835002000600040FFC0FCFF10B5FFF7C0
:10BE1000A3F8002800D0012010BD000070B51A4D15
:10BE200095F86A0008B1082070BD0024661E2046FF
:10BE3000FFF77CF810B1281980F83060641CE4B278
:10BE4000302CF4D300242046FDF78EFB641CE4B2B2
:10BE50000C2CF8D30C4800210C4C4166A0F868105B
:10BE60000B49C02081F8000401264020891FC1F839
:10BE700000014FF4BE70FFF7A1F8A004C4F804035A
:10BE800085F86A60002070BD083500200060004021
:10BE900006E000E0034890F86A00002800D0012086
:10BEA00070470000083500200121B1EB507F01D11F
:10BEB000012070470020704738B50D4600F030FD76
:10BEC000040014D000208DF800006846FCF7B6F896
:10BED000207928B19DF80000FCF7D4F8112038BD76
:10BEE0000120256020719DF80000FCF7CBF80020B0
:10BEF00038BD00000149024801F064B974350020E2
:10BF0000002000402DE9F0410546007916460F4615
:10BF100000EB40012D4A01EBC00102EB810494F8D3
:10BF20002A1011B10820BDE8F081294951F82010EC
:10BF30002868FFF7C1FF08B11120F4E73946284609
:10BF4000FCF7BAF866603869206030004FF00106EF
:10BF50002FD03F7F4FF48E712868FFF73EFE4FF4DD
:10BF6000A2712868FFF739FE28681A49C0F804133F
:10BF700028684FEA471140F30730002804DB00F13E
:10BF8000E02080F8001405E000F00F0000F1E02050
:10BF900080F8141D286840F30730002809DB00F002
:10BFA0001F0106FA01F14009800000F1E020C0F80D
:10BFB000001128680421C0F800150020A061E0618C
:10BFC00084F8290044F8140FA675ACE774350020F6
:10BFD0005CD70200800002002DE9F05F0546007981
:10BFE0004FF4017600EB400303EBC000344B03EB4E
:10BFF00080040020636813B12B68C3F80863A36949
:10C000004FF000096BB1E06938B1606810B1286881
:10C01000C0F804631120BDE8F09FE26101202161B6
:10C0200005E0C4F82490A261E160C4F81C9094F883
:10C030002910014302D1284600F057FD606800280E
:10C04000286803D0C0F804630020E4E74FF4A27628
:10C050003146FFF7C2FDB2464FF4927B594628683D
:10C06000FFF7B6FD06464FF484712868FFF7B0FD70
:10C07000804651462868FFF7ABFD074648EA0700AF
:10C080003043EBD056EA070007D12146286800F07C
:10C09000FDFCA169606A8142E0D8C4F818900EB135
:10C0A0000320B8E70FB10F20B5E794F8291001205D
:10C0B0000029296801D00860C6E74860C4E700008D
:10C0C000743500202DE9F05F054600790B4600EB42
:10C0D000400101EBC000244901EB8004284600F038
:10C0E00045F810B11120BDE8F09F62614FF00009E2
:10C0F000C4F82090A36084F828904FF48E784E46C0
:10C1000041462868FFF769FD28684FF0010AC0F82A
:10C1100008A02146286800F085FF606808BBD5F8B4
:10C1200000B067690FE000BF94F8280008B10F263F
:10C1300015E041465846FFF74BFD0028F4D0214654
:10C14000584600F06FFF206AB842F2D35746414686
:10C150002868FFF73DFD0028F9D02868C760C4F8BB
:10C1600014903046BFE7000074350020007900EBE2
:10C17000400101EBC000044901EB80004069002848
:10C1800000D00120704700007435002001490248AA
:10C1900001F0C6B8A0350020002000402DE9F04194
:10C1A0000546164600790F46154A00EBC00102EB22
:10C1B000810494F8201011B10820BDE8F0811149E4
:10C1C00051F820102868FFF777FE08B11120F4E736
:10C1D00039462846FBF7ABFF6660386920601EB120
:10C1E000397F2846FDF72AFF28680821C0F8001586
:10C1F0000020A061E0616061012184F82010DCE78B
:10C20000A035002060D702002DE9F05F04460079D8
:10C210000E4600EBC001DFF8F0A017460AEB8105DF
:10C220003046FFF741FEB0B168684FF000084FF4A8
:10C23000047910B12168C1F80893A8694FF0000B88
:10C2400080B1E86948B1686810B12068C0F804930B
:10C250001120BDE8F09F1020FBE7EF614FF00108CF
:10C260002E6102E0EE60C5E9067B00254FF488717F
:10C270002068FFF7C3FC4FF4A2712068FFF7BEFCF3
:10C280002068C0F83465C0F838752068B8F1000F30
:10C2900012D0D0F8001241F02001C0F8001220792D
:10C2A000D04600EBC0010AEB8100406838B120683D
:10C2B000C0F804932846CCE701210160EFE74FF472
:10C2C000887A4FF4A27951462068FFF792FC07461E
:10C2D00049462068FFF78DFC06464FF492712068AE
:10C2E000FFF787FC014647EA06000843EBD02279B6
:10C2F00002EBC20308EB8302C2F818B001B10325B8
:10C30000002ED7D00F25D5E7A03500202DE9F04726
:10C3100004460E460079274900EBC00001EB80057A
:10C3200017463046FFF7C0FD30B1204600F044F814
:10C3300020B11120BDE8F0871020FBE76F61AE60EF
:10C340004FF490774FF0000839462068FFF756FC0D
:10C350004FF4AC7631462068FFF750FC2068AA689D
:10C360006969C0F84425C0F8481520684FF00109F4
:10C37000C0F808906868D0B9BA4651462068FFF7FF
:10C3800038FC074631462068FFF733FC0743F4D0FA
:10C3900010B14FF00F0808E02068C0F80C9031464B
:10C3A0002068FFF726FC0028F9D00020686140468D
:10C3B000C0E70000A03500200079054900EBC0006F
:10C3C00001EB80004069002800D001207047000088
:10C3D000A03500202DE9F04105460078002828D13D
:10C3E000154816490026401AC008012101EB0047F4
:10C3F00010E02869805DFBF7F7FD040009D0112CDF
:10C40000F7D0384622460EA1FEF7D2FF2046FBF7B2
:10C41000BBFC761CA88AB042EBD8A98A28690844DC
:10C4200010F8010C0D2804D10A20FBF7DDFD1128BE
:10C43000FAD0BDE8F081000080E2020018E20200BC
:10C440004661696C656420726563656976696E67CB
:10C45000204E5553206D6573736167652E204572BC
:10C46000726F7220307825782E2000000349086012
:10C47000034801680029FCD07047000004E5014032
:10C4800000E4014010B550B103280CD10220FCF7A4
:10C49000AFFE002807D0BDE81040FBF775BCBDE833
:10C4A000104000F055BC10BD0078002807D10448AA
:10C4B0003B21408876DF002801D0FBF765BC704740
:10C4C000F02A0020F0B58BB0002601960D460446F8
:10C4D0008988406901AAFBF7B4FE0AA8CDE9086083
:10C4E0000227ADF82070ADF822602189A88808AA3B
:10C4F000ADDF002819D1A069002816D00998FCF7F3
:10C50000E2FC002811D0019E0EB1012030701821EC
:10C5100002A8FAF7C4FF8DF808700394A888ADF854
:10C5200010000596A16902A888470BB0F0BD000075
:10C5300070B58D88027900EBC5042273C97BA41DF8
:10C54000012902D0022904D101E0008800E04088DE
:10C55000208021886088814211D92846A5DF0126E4
:10C56000B0B1112816D0FFF729FB02460B480C4941
:10C57000401AC00806EB00400AA1FEF719FFA17996
:10C58000E079814208D92846BDE87040FDF7A6B998
:10C590006671F4E72671F2E770BD000018E2020050
:10C5A00018E2020073645F626C655F6761747463B4
:10C5B0005F65786368616E67655F6D74755F7265EE
:10C5C000717565737428292072657475726E65645F
:10C5D0002025732E000000007CB506468D88C88893
:10C5E00006EBC504A41D172800D21720218881421C
:10C5F00000D8084660800020207121882846B5DFD9
:10C6000060B1FFF7DBFA02460F481049401AC00834
:10C61000012101EB00400EA1FEF7CAFE607900285F
:10C6200010D1306900280DD01549D1E90201CDE9BA
:10C630000001ADF802506088ADF804003269694627
:10C64000304690477CBD000018E2020018E202006C
:10C6500073645F626C655F67617474735F65786350
:10C6600068616E67655F6D74755F7265706C79285F
:10C67000292072657475726E65642025732E000022
:10C680002CD70200F0B587B00C4605468E1D898870
:10C69000406906AAFBF7D5FD18216846FAF7FFFEA8
:10C6A0000195A088069AADF80800039231882B897D
:10C6B000002704F11200994202D17389022B0DD098
:10C6C000AA8991421ED1A96900291BD08DF800705A
:10C6D00004907089ADF81400A96911E0002A11D006
:10C6E000FCF7F1FB20B1069901200870022002E05E
:10C6F0000698077003208DF80000A969002901D071
:10C700006846884707B0F0BD0068012805D00228B8
:10C7100003D0042801D0002070470120704700009A
:10C7200010B50549C20800F00703885C01249C404D
:10C730002043885410BD00006C3500200449084493
:10C7400090F93000082801DB012070470020704775
:10C75000083500200449084490F93000082801D227
:10C760000120704700207047083500202DE9F84F60
:10C77000314F05464FF001090024381990F9601037
:10C78000491C46D090F86000294620F0C00630468B
:10C79000FDF7F0FF70B3204600F050F8824668467F
:10C7A0000096FEF799FB009900EB8100D0F8000796
:10C7B000C0F30148B8F1020F1DD002213046FEF748
:10C7C0004DFB68460096FEF787FB009A09FA02F1D6
:10C7D000C0F820153046FCF7F9FE57F820204AB182
:10C7E0005046BAF1030F11D0B8F1020F05D0B8F1DD
:10C7F000030F07D00DE00321E0E75046BAF1010F27
:10C8000004D006E05046BAF1020F02D1014630468C
:10C810009047641C042CB0D32A4602210020FEF766
:10C8200035FB002055F820100029A5D1401C022816
:10C83000F8D3BDE8F88F000008350020024908440D
:10C8400090F86000800970470835002010B50C464C
:10C85000017A052908D0407A38B1084808A1026851
:10C860002046FEF76BF900E01AB106A12046FEF75C
:10C8700065F92046BDE81040FEF76DB9942C002004
:10C88000257300000D0A000038B5C3880D46044624
:10C8900033B114A0009015A216A12846FEF74EF958
:10C8A000217A05291CD0607A48B1A088FEF73AFCAD
:10C8B000164951F8202016A12846FEF73FF9A08816
:10C8C0000021FEF7FBFD03461049207A143951F888
:10C8D000202001B02846BDE830400EA1FEF72EB959
:10C8E00038BD00001B5B306D000000001B5B313B5E
:10C8F00033316D0025734C6F67732064726F7070F5
:10C900006564202825642925730D0A00942C0020D5
:10C91000257300003C25733E2025733A200000005B
:10C920000349884201D10348704700207047000046
:10C9300000200040BC2B002070B50546FDF76FF9C4
:10C94000134C40B1D4E904024FF08071411842F118
:10C950000000C4E9041000212846FDF7ADF830B10D
:10C96000606820B1606800F0A9FA002060600121D1
:10C970002846FDF7A1F818B1FDF7CAFAC4E9060187
:10C98000284600F0E7FA2846BDE8704000F038B8C5
:10C99000002C00202DE9F04100260E70D0E9027431
:10C9A0000D468046FDF7B4FA381A002364EB010106
:10C9B0001A461B1A8A4115DAB0F5350F04D3FBF776
:10C9C00017FA0D49421800E03A464FF49603002149
:10C9D0000A48FDF730F910B10D2807D00AE0012010
:10C9E000BDE8F08100210548FDF75CF8404600F005
:10C9F00065FA28700020F3E7FFFFB400082C002040
:10CA0000F8B5204C064600251F48FFF7A1F810B3E3
:10CA1000D0E90210CA4372EA000224D0626882B1EF
:10CA20006368D3E90223891A984127D26068D0E964
:10CA30000210C94371EA000103D061681248FFF790
:10CA400076F800F0D1F907466946FFF7A3FFB0B1C9
:10CA5000606858B10DE0606800280FD13046BDE82D
:10CA6000F840FDF7E4B800F0BFF9CDE73046FDF738
:10CA7000DAF867609DF800000028C5D1F8BD656050
:10CA8000C2E70000002C002074D7020070B50546F4
:10CA900088690C4600284FF4847128460AD0FFF7B5
:10CAA0009CF8D5F81805626AE1688854606A401CF1
:10CAB000606270BDFFF791F8D5F8180570BD1FB51D
:10CAC00001238DF80030CDE90121D0E9001268463C
:10CAD00090471FBD1FB501238DF80030CDE901211E
