:020000040002F8
:10700000205F0020C1730200C9730200CB7302002D
:10701000CD730200CF730200D173020000000000A4
:10702000000000000000000000000000D373020018
:10703000D573020000000000D7730200D97302006C
:1070400009780200DB730200ED7B0200DB730200B3
:10705000DB730200DB7302006577020071780200C7
:10706000DB730200DB730200DB730200DB730200E0
:10707000DB730200DB730200DB730200DB730200D0
:10708000DB73020061780200DB730200DB73020035
:10709000DB730200DB730200197A0200DB7302006B
:1070A000DB730200DB730200DB730200DB730200A0
:1070B000DB730200DB730200000000000000000030
:1070C000DB730200DB730200DB730200DB73020080
:1070D000DB730200DB730200DB730200DB73020070
:1070E000DB730200DB730200DB73020000000000B0
:1070F00000000000DB73020000000000DB730200F0
:10710000000000000000000000000000000000007F
:10711000000000000000000000000000000000006F
:10712000000000000000000000000000000000005F
:10713000000000000000000000000000000000004F
:10714000000000000000000000000000000000003F
:10715000000000000000000000000000000000002F
:10716000000000000000000000000000000000001F
:10717000000000000000000000000000000000000F
:1071800000000000000000000000000000000000FF
:1071900000000000000000000000000000000000EF
:1071A00000000000000000000000000000000000DF
:1071B00000000000000000000000000000000000CF
:1071C00000000000000000000000000000000000BF
:1071D00000000000000000000000000000000000AF
:1071E000000000000000000000000000000000009F
:1071F000000000000000000000000000000000008F
:10720000DFF80CD000F070FA00480047BDA602007D
:10721000205F002030B450E8012F93B2C48923448A
:107220008489A34228BF1B1B0489A34202BFBFF36A
:107230002F8F002007E0C3EA020340E80134002C4E
:10724000E9D14FF001000A6030BC704750E8012FCF
:10725000C2EA024240E801210029F7D1704730B468
:1072600050E8022F1FFAA2F3C488A34202BFBFF363
:107270002F8F00200DE0C48923448489A34228BFB6
:107280001B1BC2EA034340E80234002CE8D14FF054
:1072900001000A6030BC704750E8022FC2EA224267
:1072A00040E802210029F7D17047034653E8022F36
:1072B000D988B2EB324F4FF0000017BF92B241EACB
:1072C000014142EA014104E05A68B2EB324F08BF83
:1072D000012043E80212002AE8D1704730B4044686
:1072E00054E8000F0D4644E80053002BF8D1156018
:1072F00030BC704730B4044654E8000F40EA010542
:1073000044E80053002BF7D1156030BC704730B40F
:10731000044654E8000F00EA010544E80053002B3E
:10732000F7D1156030BC704730B4044654E8000F04
:1073300080EA010544E80053002BF7D1156030BC0A
:10734000704730B4044654E8000F00EB010544E8F0
:107350000053002BF7D1156030BC704730B40446A1
:1073600054E8000FA0EB010544E80053002BF7D1CF
:10737000156030BC704770B404464FF0000054E80C
:10738000006F0D68AE4207BF44E80023012044E8C7
:1073900000630E60002B1CBF0020F0E770BC70473C
:1073A00030B4044654E8000F88422CBF451A054605
:1073B00044E80053002BF5D1156030BC7047000045
:1073C0000648804706480047FEE7FEE7FEE7FEE77F
:1073D000FEE7FEE7FEE7FEE7FEE7FEE71D7A0200B6
:1073E000017202002DE9F05F0546002092469B469F
:1073F00088460646814640241BE0284641464746CB
:10740000224600F003F953465A46C01A914110D360
:1074100011461846224600F016F82D1A67EB0108AF
:107420004F4622460120002100F00DF817EB00091D
:107430004E41201EA4F10104DFDC484631462A46B5
:107440004346BDE8F09F202A04DB203A00FA02F10F
:10745000002070479140C2F1200320FA03F3194342
:107460009040704700487047CCE2020040EA0103B8
:107470009B0703D009E008C9121F08C0042AFAD2EA
:1074800003E011F8013B00F8013B521EF9D27047AE
:10749000D2B201E000F8012B491EFBD27047002256
:1074A000F6E710B513460A4604461946FFF7F0FF03
:1074B000204610BD421C10F8011B0029FBD1801A88
:1074C0007047034611F8012B00F8012B002AF9D16F
:1074D000184670472DE9FE4F81EA030404F000448A
:1074E00021F0004100944FF0000B23F0004350EADC
:1074F00001045ED052EA03045BD0C3F30A54C1F323
:107500000A552C44A4F2F3340194A0FB0254C1F3B5
:10751000130141F48011C3F3130343F4801301FBFF
:10752000024400FB034E840A970A44EA815447EA66
:107530008357A4FB076802958D0A05FB07854FEA70
:10754000932C04FB0C542705029D4FEA065847EA8A
:107550001637B5EB08056EEB070C870E920E47EA5F
:10756000811742EA8312A7FB0201B6EB0B0164EB21
:1075700000042B0D43EA0C335E1844EB1C50DA4632
:107580005146E7FB0201C5F313044FEA0B3343EA0C
:1075900014534FEA0432019C43EA0603A4F10C049D
:1075A0000294009CCDE900B400F04FF803B0BDE8B0
:1075B000F08F00200146F9E70EB5C10F80EAE070B8
:1075C0000844CA07002140F233438DE80E000A4602
:1075D0000B4600F03AF803B000BDC1F30A5210B5F3
:1075E000C1F3130140F2FF3341F480119A4201DAF2
:1075F000002010BD40F233439A42A2F2334203DC32
:10760000524200F003F810BD904010BD202A04DB68
:10761000203A21FA02F00021704721FA02F3D0400B
:10762000C2F12002914008431946704710B5141E5C
:1076300073F1000408DA401C41F1000192185B412B
:107640001A4301D120F0010010BD2DE9F04D924602
:107650009B4611B1B1FA81F202E0B0FA80F2203219
:107660009046FFF7F0FE04460F4640EA0A0041EA62
:107670000B0153465A46084313D0114653EA010002
:1076800019D0C8F140025046FFF7C0FF05460E462C
:10769000504659464246FFF7D6FE084305D0012022
:1076A00004E020463946BDE8F08D0020054346EA57
:1076B000E0762C4337430A986305E40AA0EB080000
:1076C0000022FD0A44EA47540A3002D50020014650
:1076D000E9E7010510196941DDE90845001969412B
:1076E000BDE8F04DA2E70000064C074D06E0E0685B
:1076F00040F0010394E8070098471034AC42F6D3F9
:10770000FFF782FD50EA020070EA020070B58C18A3
:1077100010F8015B15F0070301D110F8013B2A11A5
:1077200006D110F8012B03E010F8016B01F8016B92
:107730005B1EF9D12B0705D40023521E0DD401F88E
:10774000013BFAE710F8013BCB1A921C03E013F857
:10775000015B01F8015B521EF9D5A142D8D300208C
:1077600070BD00002DE9FC410025DFF894800095F4
:107770004FF4807601242F460195304603F072FEC7
:1077800038B1D8F80403204203D0304603F060FE3D
:107790002543361D64007F1CB6B2082FEDD34FF48D
:1077A000BE74204603F05EFE48B1204603F050FE52
:1077B00045F000456A460221002003F0B1FD15F0B6
:1077C000FF0F16D0012600242E420ED008EB8401B4
:1077D000D1F81005D1F81015C0F30520094AC1F3FE
:1077E000014152F8242002B190477600641C082C15
:1077F000EAD3002D02DA684605F01EFBBDE8FC81E5
:10780000006000406035002070B54FF4807630464F
:1078100003F040FB114CB50560B1304603F041FB6D
:107820000120C5F80803607920B901206071216842
:10783000002088474FF48276304603F02BFB002867
:107840000AD0304603F02DFB0220C5F8080321685A
:10785000BDE870400120084770BD0000DC2B00200F
:1078600002490248091F0968006808476C2C00207B
:107870002DE9FE434FF48278404604F0B3F94C4FB3
:1078800000254C4C012600B3404604F0B3F994F8AF
:107890002E0010B194F82F10D1B18DF8005061680E
:1078A00001912189ADF80810E26832B1218B618322
:1078B00062602181E56010B102E0257400E03E6065
:1078C00021686846884784F82F5094F82E0060B3EA
:1078D0004FF48077384604F085F930B3384604F029
:1078E00089F9628B94F82D108A420AD9A2EB010023
:1078F00080B260832289A2EB0000626802EB400044
:1079000005E007D1E06828B184F82F60658304F0B2
:1079100057F904E08A4202D184F82F60658340461B
:1079200004F068F92248001D06604FF48877384655
:1079300004F058F948B1384604F05CF92574022087
:107940008DF800002168684688474FF48A773846EA
:1079500004F048F928B1384604F04CF92574BDE824
:10796000FE834FF000484FF48C7967691DE000BF3B
:10797000B7FA87F028FA00F109EB80058F43284613
:1079800004F030F988B1284604F034F9A5F58C7577
:10799000E8088DF8040045F38000401C8DF8006075
:1079A0008DF80500216868468847002FE0D1D6E7AA
:1079B000007000401C35002000F01EB970B50E4666
:1079C000144900EB400001EBC0051446E86A183585
:1079D00020B101280FD0022805D113E0284600F07D
:1079E0003FF9A04201D2002411E022463146284648
:1079F00000F06EF90BE0284600F032F9A042F4D214
:107A00000446F2E73146284600F035F904462046A0
:107A100070BD0000943C002004F09ABA30B54FF0DD
:107A200080520023D2E94C10082906D1CC06C4F8B4
:107A30000C31C4F81031614C2360082955D1604BDA
:107A40001B68604C23605E4B1B1D1B68241D23605C
:107A50005B4B08331B68241D2360594B0C331B6898
:107A6000241D2360564B10331B68241D2360544B88
:107A700014331B68241D2360514B18331B68514C71
:107A8000203423604E4B1C331B68241D23604C4B59
:107A900020331B68241D2360494B24331B68241D9D
:107AA0002360474B28331B68241D2360444B2C3331
:107AB0001B68241D2360424B30331B68414C40340B
:107AC00023603F4B34331B68241D23603C4B383309
:107AD0001B68241D23603A4B3C331B68241D236024
:107AE000374B40331B68241D2360082904D1030051
:107AF00002D1364C344B2360082904D1030002D153
:107B0000334CFB232360082908D1030006D1314BF5
:107B100092F858521C6865F303041C60082904D1CC
:107B2000030002D12C4C8B012360082906D12B487D
:107B30000168C90702D06FF001010160284801689F
:107B400041F470010160BFF34F8FBFF36F8FD2E933
:107B50004C104FF01022082906D1032804D9D2F87E
:107B60000802164920310860D2F80002002803DB21
:107B7000D2F8040200281FDA012004F0DDFF1221F0
:107B8000C2F8001217480368002BFCD0C2F8041298
:107B900001680029FCD0002004F0CEFFBFF34F8F16
:107BA0000F487C380168104A01F4E061114301601C
:107BB000BFF34F8F00BFFDE730BD00003805004028
:107BC0000404001020C50040488103008C5600408A
:107BD00018F50040E40E00404096024000040040CA
:107BE00088ED00E000E401400400FA050148006867
:107BF00000470000E42B002010B5124C0220206149
:107C0000606111A0A06104F17800E0614FF40070A0
:107C100020620020A06260620BA1A164E06204F512
:107C20001E71E1641021A065C4E91410E06509A18A
:107C3000E01DFFF746FC08A12046FFF742FC20208C
:107C4000A07110BD943C00205465726D696E616C2A
:107C5000000000005254540053454747455200006D
:107C60000269C1688A4203D88068401A104400E063
:107C7000501A401E70472DE9F047C46817468946E0
:107C800006464FF000083069A04201D9051B02E00A
:107C9000B168201A0D1AB0686D1E001BA84200D8EA
:107CA0000546BD4200D33D4670682A4620444946F9
:107CB000FFF7DCFBB0687F1B2C44A844A944A0421A
:107CC00000D10024F460002FDDD14046BDE8F087EC
:107CD0002DE9F04104468846D4E90207C51BE16856
:107CE000606816460844B54206D94146FFF7BEFB18
:107CF000B819E060BDE8F0812A464146FFF7B6FBBF
:107D0000761B08EB050132466068FFF7AFFBE660C3
:107D1000F0E70000014A024900F026B8DDA20200A7
:107D20007C2C002002E008C8121F08C1002AFAD1EA
:107D300070477047002001E001C1121F002AFBD1EB
:107D4000704700000121202803DA814005480140E6
:107D500003E0402802DA2038814009B10120704751
:107D600000207047FC06FFBD2DE9F04116460F4686
:107D70000446002503E03946B047641C6D1C20789A
:107D80000028F8D12846BDE8F08190F824000128A9
:107D900001D01F207047EE20704710B5012202214C
:107DA000002001F037FC08B1072810D1072202217A
:107DB000012001F02FFC08B1072808D100210A2278
:107DC000084601F027FC08B1072800D1002010BDAB
:107DD00000B5ABB0AC216846FFF761FB02218DF81E
:107DE000001000208DF8020006228DF80320ADF867
:107DF0004C100E4914918022229264220121239278
:107E00008DF87C100A4A29928DF87D10A021CDE9C9
:107E100024106946074800F0EBFC08B100F052F965
:107E20000121044800F0E1FC2BB000BDFA2A00203B
:107E300051CB02001030002010B50321044800F09F
:107E40009DFD002803D0BDE8104000F03BB910BDF7
:107E50001030002000B5B5B013212DA8FFF71FFB8F
:107E60002049D1E90201CDE92B011F4890F85400C7
:107E700074DFAC216846FFF712FB45F25720ADF8DE
:107E8000C8002BA834900520ADF8CC0032A8022100
:107E900009908DF8001000208DF8020006228DF860
:107EA0000320ADF84C1011491491802222926422D3
:107EB000012123928DF87C100D4A29928DF87D10B6
:107EC000A021CDE924106946074800F091FC08B1D3
:107ED00000F0F8F80121044800F087FCFFF7ACFF40
:107EE00035B000BD14DF020010300020FA2A002057
:107EF00051CB020000B5B5B013212DA8FFF7CFFA82
:107F00002049D1E90401CDE92B011F4890F8540024
:107F100074DFAC216846FFF7C2FA45F25720ADF88E
:107F2000C8002BA834900520ADF8CC0032A802215F
:107F300009908DF8001000208DF8020006228DF8BF
:107F40000320ADF84C101149149180222292642232
:107F5000012123928DF87C100D4A29928DF87D1015
:107F6000A021CDE924106946074800F041FC08B182
:107F700000F0A8F80121044800F037FCFFF75CFF8F
:107F800035B000BD14DF020010300020FA2A0020B6
:107F900051CB0200022001F019BA000070B5002494
:107FA000064D06E06868012110F8340004F0E8F896
:107FB000641C28788442F5D3002070BDF02B00208B
:107FC000F8B516460C4605460A2A01D20720F8BD28
:107FD00004F0CEF918B904F08FF90028F7D1134F47
:107FE000202113487D603C70BE60FFF758FA0020E6
:107FF000C7E904000F4E0DE005EBC40031680091A5
:1080000081788DF8011000780B4A694604F004F974
:108010000028DCD1641EE4B2EED2BDE8F840054889
:108020000021064A001D00F087B80000F02B002058
:108030001C360020BCDF0200ADA30200B19E02008E
:1080400072B603F093FC00BF03F0DCFA0028FBD10A
:1080500011481249401AC408012000EB044010A145
:1080600003F0ECFB11480068C00700D000BE0220FE
:1080700000EB04400EA103F0E1FBBFF34F8F0B4870
:10808000E43801680E4A01F4E06111430160BFF376
:108090004F8F00BFFDE70000F0EA020080EA020017
:1080A000466174616C206572726F7200F0ED00E0E1
:1080B00053797374656D20726573657400000000F8
:1080C0000400FA050EB500210091CDE901106A46C1
:1080D00044F20100FFF7B4FF0EBD10B58268C3681B
:1080E000934203D002F0CEF8002010BD052010BD51
:1080F00029B112B1531E134203D0092070470E203C
:1081000070470160838000218160C160084670472C
:1081100010B58268C3689A1A83889A4203D802F01D
:10812000BBF8002010BD042010BD0000014801F084
:1081300026BF0000302C002010B55AB100684FF067
:10814000FF3401294261C0E9024400D000210161ED
:10815000002010BD072010BD38B511480823582253
:10816000416800910F49006802F075FC002815D1A4
:108170000D4A69460D4801F007FF04000ED10121A8
:108180000A4801F07CFF0123094A1946074801F01B
:10819000CEFE0649012008390870204638BD00008F
:1081A000C4DF02004C36002005D00200302C002035
:1081B000FFFF7F00F8B50446002617460D468DF8F0
:1081C0000060684600F0D8F8D4E90201C04370EAC4
:1081D000010005D09DF8000000F0F2F80020F8BD85
:1081E00002F0CAF840197141C4E902019DF800008B
:1081F00000F0E6F8A761206900B125612146BDE8DD
:10820000F840002005F008BB38B5044600208DF882
:108210000000684600F0B0F8D4E90201C04370EAFB
:1082200001000DD04FF0FF30C4E902009DF80000BE
:1082300000F0C6F82146BDE83840012005F0ECBA50
:108240009DF8000000F0BCF8002038BD70B50A4E63
:1082500001460A48B578FFF740FF04464DB10020BB
:10826000B070711C0122C81D02F092FE08B1FFF728
:1082700029FF204670BD00004C2C0020A4360020B1
:10828000F0B5244E89B01F460D00044672603FD001
:10829000A888296882B22048FFF72AFF002835D134
:1082A000A889A96882B21C481030FFF721FF002876
:1082B0002CD1202219496846FFF7D8F8606906904A
:1082C000207C00B101208DF814008DF81C70607CBA
:1082D00000B10E208DF81500E0680290A0680390B0
:1082E00020680190606800900A480D4A694608308D
:1082F00002F01AFE002809D1B0702068401C05D099
:1083000004490122491CC81D02F042FE09B0F0BD1B
:108310000720FBE74C2C0020A4360020D8DF020009
:1083200035D9020010B501461048FFF7F1FE0400F0
:1083300019D10F480F4A0178515C19B1001D04F0A2
:10834000A1FB02E00C3004F077FA60B90849074855
:108350000839FFF7C2FE30B905490122083904483F
:1083600002F026FE0446204610BD0000B436002070
:10837000542C0020C82B002030B5EFF3108172B6CA
:108380000D4A9468012324B10370002900D162B61C
:1083900030BD93604FF0E023D3F88051074C254067
:1083A0001560C3F88041D3F8844154605A17C3F86C
:1083B000842100220270E8E7C4360020FC06FFBDDD
:1083C0000B498A68002A11D000280FD1EFF31080E2
:1083D00072B60B684FF0E022C2F800314B68C2F869
:1083E000043100228A60002800D162B67047000084
:1083F000C436002070B5054608680C46411C04D000
:1084000002F0FFFF206802F05FFF6068411C02D0AD
:10841000002102F047FF2968A069C1F82405607DAA
:10842000227D29681043C1F86C05D4E90012286840
:10843000C0F81425C0F80C15207D012814D1A068BF
:10844000411C02D0002102F02DFFE068411C04D045
:1084500002F0D7FFE06802F037FFD4E90212286883
:10846000C0F80825C0F8101570BD70B5054608683D
:108470000C46411C04D002F0CEFF206802F02EFF13
:108480006068411C02D0002102F015FF2968A06934
:10849000C1F82405607D217D2A680843C2F86C0577
:1084A000D4E900122868C0F80C15C0F81425207D06
:1084B000012814D1A068411C02D0002102F0FBFE6B
:1084C000E068411C04D002F0A6FFE06802F006FF5D
:1084D000D4E902122868C0F80825C0F8101570BD4C
:1084E00010B509780A4851B101290FD10068FFF78A
:1084F0008BFE00280AD0BDE81040FFF7E3BD002244
:1085000040F266610068FFF755FEF2E710BD00001B
:1085100014DF020070B5044690B0087B0D468DF85C
:108520003800202105A8FEF7BAFF42F61920ADF861
:1085300014000120ADF81800ADF81A000EA807903D
:10854000617C9DF82100A21D61F3041040F002003F
:108550008DF82100A87B8DF82700687B8DF8250019
:10856000A08805A901F06EFA00281CD1A968E1B124
:108570000FA800F0E0FE064614216846FEF78FFFC4
:1085800042F60810ADF80000E87B8DF806000FA851
:10859000ADF80A60ADF80E600490E08804F10E02B8
:1085A000694601F02FFC10B070BD0020E081FAE7B1
:1085B0000A4601461046AEDF704770B51500044606
:1085C00009D00020286034B1206820B1A07980074C
:1085D00003D0072070BD0E2070BD084600F0C8FB18
:1085E000C0B2142804D02179814203D8042070BD80
:1085F000052070BDE288216800FB02102860002081
:1086000070BD2DE9FC47002517880646158090F8B7
:108610002D001446894630B13A462146484600F0BE
:10862000CDFB051E09D1B0784FF00C0A18B3208895
:10863000C846001DB84202D95046BDE8FC876846CE
:1086400079DF0028F9D12088032108F8001020885C
:108650001921401C80B2208008F800102088401C9E
:1086600080B2208000EB0801BDF8000005F003FB9C
:10867000218808442080F0780222C8B1218896F928
:10868000033001F1030C4846BC45D5D8425421883B
:108690004FF0010C491C89B2218000F801C02188EB
:1086A000491C89B2218009F801302088401C2080B3
:1086B0007068B8B1218890F9003001F1030C484688
:1086C000BC45B9D8425421880A22491C89B221806C
:1086D00042542188491C89B2218009F80130208840
:1086E000401C2080308950B1CDE900474B4606221E
:1086F000022106F1080005F07FFB051E9DD1308A9E
:1087000050B1CDE900474B460722032106F1100086
:1087100005F072FB051E90D1308B50B1CDE90047BA
:108720004B461522142106F1180005F065FB051EC5
:1087300083D1306A30B13B462246494601F097FA70
:10874000051EDBD1706A30B13B462246494602F035
:10875000A5F8051ED2D196F82C0038B13B4622462A
:108760004946304604F07EFE051EC7D1307838B148
:108770003B4622464946304602F01AF9051EBDD155
:1087800028465AE718B504460020ADF80000134605
:108790006A46204600F006F8002802D0BDF8000026
:1087A000204418BD70B5E0B1DAB1002402E0045DE8
:1087B0002C44A4B2651C8D4206D21688A642F6D877
:1087C000061976789E42F2D18C420AD2A31C005D33
:1087D0009BB200B1401E0004000C02D01C188C4259
:1087E00001D9002070BD138070BD80F83010704733
:1087F0002DE9F0410D00044606D02CB195F87A0021
:108800000026012803D006E00E20BDE8F08195F88F
:108810009800012821D04FF00108A6702C2205F104
:108820007801201DFEF722FE84F83060D5F8A40000
:108830006063D5F8A800A0634FF6FF70A4F8240485
:1088400004F58260C4F82004C4F82664A4F82A64FD
:1088500084F82C64207810B104E00720D5E7FF20CD
:1088600084F8540004F155072046C4F81074FFF74B
:108870008CFAA4F8140404F2144239462846FFF78F
:10888000C0FE0028C1D104F23120C4F818042046EB
:10889000FFF77BFAA4F81C0404F21C4205F13C002B
:1088A000D4F81814FFF7ADFE0028AED184F851803B
:1088B000208BA4F8480084F83C80266484F850603B
:1088C000606900216064454604F13C02781E72DF55
:1088D00000289AD1257098E710B50288102A1BD07D
:1088E000112A20D0262A1DD1007A0C46012801D059
:1088F000022817D1A0780521401CB0FBF1F201FB42
:108900001201204600F03AF800280BD0A16B002994
:1089100008D0BDE810400847C27B012A02D18088F8
:10892000A1F8240410BD0C46002184F82E14808880
:10893000B4F824148842F5D120790028F2D101211D
:10894000DFE710B5044690F8540074DF012084F886
:108950002E04002084F8300484F8500006212046BC
:1089600001F0A8FC002808D1A178204600F006F804
:1089700010B1A16B01B18847002010BD2DE9F05F57
:10898000044600780F4698B1A7700025C4F8265415
:10899000A4F82A5484F82C54A079012608B1012F98
:1089A00009D0E07980B1012F05D0022F03D00BE070
:1089B0000820BDE8F09F616B21B184F82D64082088
:1089C000884701E084F82D5404F2274100200A5C16
:1089D0000AB1304603E0401C0628F8D300204FF0CF
:1089E00002084FF0030B012F06D0022F0CD0032FEB
:1089F0000FD0042F15D110E0A17929B194F82410DB
:108A000011B908B130460DE0E17911B108B1404625
:108A100008E0207A08B1584604E0607A08B10420E2
:108A200000E02846A070616B41B1032801D0042802
:108A300004D1607910B194F82E0498B184F82F54C1
:108A400004F13C0018210746FEF729FD84F83C603C
:108A500004F12C0004F0BEF958B194F82C0084F80D
:108A6000510008E084F8305484F82F6407208847C8
:108A7000E6E784F8516094F8240058B104F1280026
:108A800004F0A8F920B194F8280084F8520001E01D
:108A900084F8526084F85050A27804F2264104F51C
:108AA00082694FF0060A052A64D2DFE802F07C03EF
:108AB0000F22420084F83160C4F82054C4E9101534
:108AC00084F83C808020A4F8480055E084F8318088
:108AD00094F82420384612B10722027001E080F891
:108AE00000B0228A8281C4F820544160E168B960F4
:108AF00042E06069B860208BB88194F824003D465C
:108B00000028204602D084F83CA001E084F83C60B4
:108B100005F044F950B185F814800421204601F095
:108B2000C9FB38BB052184F8311021E084F831B04D
:108B30001EE0E069B860208CB88194F824003D46BE
:108B40000028204602D084F83CA001E084F83C6074
:108B500005F024F948B185F814800421204601F07D
:108B6000A9FB38B984F831A002E0042084F8310070
:108B7000C4F82094A07878B13A4604F15400D4F8AF
:108B8000201472DF00287FF414AF94F8301094F8AA
:108B9000540073DF0028F6D1616B11B194F83100F5
:108BA0008847002005E784F83150F5E7F7B594B021
:108BB000174605003CD0287C9DF8541000248842BC
:108BC00052D000264FF0010E0D9615A8ADF834E0F6
:108BD0000E90ADF83660E9880DAA4FF6FF70ACDF55
:108BE000040026D19DF854002874687CA0B30F9629
:108BF000109611961296E888ADF83C00BDF8360044
:108C0000ADF840000DA811900E981290A7F57F4086
:108C10008DF83EE0FE3805D039460FA8FFF7C8FCB6
:108C2000044621E0684600F09DF800256F460FE0FD
:108C30000E2017B0F0BD00BF07EB4506B08800F06E
:108C4000A1F8022803D144B10FA9B088AEDF6D1C92
:108C50000098A842F0D807E005E0B1880FA8FFF718
:108C6000A7FC0446F3E708242046E2E738B50D46A2
:108C7000040018D0BDB12868206028796074FF20F6
:108C8000207401208DF8020041F60F00ADF80000BD
:108C9000221D69460120A8DF002803D1294620466D
:108CA000FFF738FC38BD0E2038BD38B5002924D078
:108CB000002822D00288502A1FD10546487C0C4645
:108CC00000281AD0E9886289A81D914215D14189EE
:108CD000022912D1216800290FD00C3000F027FBA7
:108CE00008B1002000E001208DF80000A888ADF850
:108CF0000200226869462046904738BD70B50400DE
:108D000012D001461C221448FEF7B0FB1248134D46
:108D10000560206850B17ADF002806D1206801681C
:108D200029604068686005E00E2070BD0B487BDF5D
:108D30000028FAD108484FF6FF711438084A20F885
:108D4000041B0549343901600021FFF7F5F90028BB
:108D5000EBD0032070BD000084340020C02B002025
:108D600035DD02000149496800F062BFA0340020EF
:108D700010B5044600F018F808B1204610BD1420C4
:108D800010BD000070B50546002400F00DF838B1A4
:108D90002946044801F0A9FE08B1022400E001249C
:108DA000204670BDA8340020142801D3002070474D
:108DB0000146014801F099BEA43400207CB5054667
:108DC00008880C460930904201D90C207CBD6846C9
:108DD0006DDF0028FAD121880820685420881B21E3
:108DE000401C80B2208029542088401C80B2208002
:108DF0002844DDF801100160BDF80510818020884D
:108E0000801D80B220809DF80010490800D001210B
:108E100029542088401C208000207CBDF8B52B4DB3
:108E2000018804466E8821293BD015DC2848294A50
:108E30001029A0EB02004FEAD0004FF0030202EB32
:108E4000004013D0112925D0132929D100231A4617
:108E5000852130467FDF17E03B2932D052292AD0C6
:108E600056291DD18088132176DF0DE01AA102F06A
:108E7000E5FC072000F0F0FB08B1FFF723F9A1881B
:108E80006980184801F08EFF002809D0BDE8F8403D
:108E9000FFF718B914A102F0D1FC4FF6FF706880FB
:108EA000F8BD00200090A08869468FDF0028F7D029
:108EB000FFF708F9F8BD00231A4619463046B1DF1E
:108EC000E2E78088132176DFDEE70000F02A002049
:108ED000F0EA020080EA0200436F6E6E656374651B
:108EE0006400000004300020446973636F6E6E6597
:108EF000637465640000000010B51A4C0188606856
:108F000010290ED011292BD1401E606028D1FEF708
:108F100044FF002824D02168002921D0BDE810405A
:108F20000847D0B900210122084600F073FB08B1C0
:108F300007280FD107220221012000F06BFB08B1A6
:108F4000072807D104220221002000F063FB20B192
:108F5000072802D0216801B188476068401C606022
:108F600010BD0000B82B00202DE9F04701883B4ED2
:108F700040F2F3194FF6FF7510291BD011293ED08E
:108F8000122954D0502946D1C188F289841D9142BA
:108F900041D1618902293ED18688304601F024FA08
:108FA000050038D004F10C0000F0C1F9A8B329463F
:108FB00030464EE0C17B8788044601292BD1A84664
:108FC000284601F011FA050017D02F8000202872E2
:108FD000234843464A460168C5F80A104068C5F868
:108FE0000E0004F1100105F10A0001F0B9FA6872EF
:108FF000F08900280FD129462AE0042013E0808858
:1090000001F0F2F9040006D06068FFF7FDF808B13E
:1090100004F0F8F92580BDE8F087FFE76868FFF7FE
:10902000F3F80028F7D0BDE8F04704F0EBB98788E3
:109030000646384601F0D8F90400ECD02B464A46E3
:1090400006F1080104F10A0001F08AFA6072214673
:109050003846BDE8F04700F051BE000084340020DF
:10906000C02B00202DE9F04F044686880188424835
:1090700097B0834610290CD0112950D010301929EF
:109080006AD01A2974D1217A0C09042C4DD30122FB
:109090004CE0394D083DA868C0430B9069680BA8A7
:1090A00001F044FD0B990CA800F0C2FD2C220CA984
:1090B0006846FEF7DBF90027E946A84610E000BF46
:1090C00009EB47005FF00005B0F804A008EB85004D
:1090D0005146001D01F0FEFC6D1C1E2DF6D37F1CB9
:1090E0000098B842ECD8142E05D317B00420BDE880
:1090F000F04FFEF7E7BF3146584601F001FD31461B
:1091000008F1040001F0FCFCE07B022830D117B02C
:109110003146BDE8F04F1848001D01F0F1BC17B012
:109120003146BDE8F04F01F0D5BC0022314601F0D8
:10913000BCF8032C01D3012200E000220E48314686
:109140000C3001F0B2F8022C01D3012200E0002221
:1091500009483146083006E0217A002908D1617AB1
:10916000C1F3C002314617B0BDE8F04F01F09DB821
:1091700017B0BDE8F08F0000A8340020F0B585B02E
:1091800016460F4604001D4614D004AA194660690D
:10919000FFF713FA00280BD1A5F57F40FF380BD05D
:1091A000049848B1007848B13088F42808D90720DD
:1091B00005B0F0BD0E20FBE70520F9E70820F7E732
:1091C00000200090019002900390A088ADF800006C
:1091D00001208DF80200CDE9026769462846AEDF1E
:1091E000E6E7000070B5334D04008EB02DCD08AE1B
:1091F00086E82D005BD0E9B30868A061214608A885
:1092000062DF002851D1207801258DF83200ADF8B9
:109210003050A21C0CA92846A8DF002845D12021E7
:109220006846FEF73CF90220ADF8000020788DF882
:1092300002008DF80C509DF80D00F426ADF8046086
:1092400040F00C008DF81150ADF806508DF80D006F
:109250008DF81250608804F10C02694600F0F2FBB0
:10926000002822D120216846FEF719F90320ADF825
:10927000000000E01BE020788DF802008DF80C5013
:109280009DF80D008DF81150ADF8046040F010000D
:109290008DF81250ADF806508DF80D008DF8135072
:1092A0006088221D694600F0CDFB0EB070BD0E2017
:1092B000FBE700009CDF020070B588B0044600297F
:1092C00027D0002C25D008462188102923D05029EA
:1092D00027D057291DD10546A188406906AAFFF766
:1092E0006CF9002815D1069E3078002811D0A869A5
:1092F00000280ED018216846FEF7D1F801208DF81D
:1093000000000195A088ADF808000396A969684699
:10931000884708B070BD08B02146BDE8704003F032
:1093200037BC08B02146BDE8704003F011BD00789D
:1093300000F0010070470A780270497841700220FD
:10934000704700000149085C7047000051DF0200CF
:10935000084908B5085C0090684601F0F9FFD0F8AC
:1093600010050099C84010F0010000D0012080F0E5
:10937000010008BD51DF02002DE9FC410646C0078F
:109380004FF000050ED0104F00240122385D0095EB
:1093900000231146019501F021FF641C042CF4D335
:1093A00000F04EF8B0070DD5074E0024361D002200
:1093B000305D032300951146019501F00FFF641CF9
:1093C000042CF4D3BDE8FC814DDF0200094908B547
:1093D000085C0090684601F0BBFFD0F80425009BB4
:1093E0000121994021EA0203C0F808351140C0F874
:1093F0000C1508BD4DDF02000249085C012102F096
:1094000014B800004DDF02000249085C002102F0A0
:109410000CB800004DDF0200084908B5085C009058
:10942000684601F095FFD0F804050099C84010F097
:10943000010000D0012080F0010008BD4DDF0200D6
:1094400010B500242046FFF7D7FF641C042CF9D385
:1094500010BD10B500242046FFF7D6FF641C042C75
:10946000F9D310BD10B50246064B4FF0FF30002176
:109470005C5C944201D1084610BD491C0429F7D315
:1094800010BD000051DF020070B50C4E0C004FF013
:10949000000530600BD0012000F06AF808B102200E
:1094A00004E0002000F064F800B10B202070706828
:1094B00010B9FEF772FC0546284670BDB82B002097
:1094C00010B5002000F002FA08B1062806D10120EC
:1094D00000F0FCF908B1062800D1002010BD000002
:1094E0002DE9F0470D468146FFF7BCFF04460428EE
:1094F00036D2DFF874801B481C4EA8F10C0725B348
:10950000012D0ED0022D2BD104EB440030444578C0
:10951000002D25D0B968002922D02846BDE8F047A3
:10952000084704EB4401755C0E44717849B10E4A5A
:109530004FF48041093A8068FEF73CFE08B987F88D
:109540000390B17808F80410E2E78068FEF75CFE4B
:1095500004EB4401314418F804008D78A842D7D0B8
:10956000BDE8F08758DF0200502B00204434002073
:10957000042801D2FFF7ECBE0020704710B5014669
:109580000A2827D014DC1B480429408826D0072944
:109590002ED1A0F57F41FF392AD11748FFF7D1F925
:1095A000082825D0002823D0BDE81040FEF78ABD4A
:1095B0001248134A801AC008032202EB00400F2908
:1095C0000FD0102914D10FA102F038F9BDE81040D6
:1095D000FEF790BCBDE8104003F0DCBF132176DF3E
:1095E000DEE70AA102F02AF9BDE81040FEF732BC1E
:1095F00010BD0000F02A002010300020F0EA020028
:1096000080EA02006B657933204F4E006B6579323A
:10961000204F4E0070B50023042810D20D4D00EBF2
:109620004004012A02D101290CD00022094E00EB8E
:109630004000304461B1012906D0022906D0072339
:10964000184670BD0E30C2B22A55F9E74270F7E7EE
:109650008270F5E744340020044A01460020127964
:10966000D20702D0084600F04DB87047442B0020C6
:1096700070B506461E480024C0E90161B00720D538
:109680000025012211462846FFF7C4FF6D1C044641
:10969000042D02D2002CF4D013E094B940F23332FE
:1096A00004211448FEF78CFC04000AD1FEF776FC76
:1096B000040006D10F48104A0021001FFEF73CFDB0
:1096C0000446F00712D00120FFF756FE74B909488E
:1096D0000A4A00210C38FEF72FFD040006D1054888
:1096E000074A01210838FEF727FD0446204670BDD1
:1096F000442B002064DF0200C9990200D5A50200B6
:10970000957F02002DE9F05F6E4C054600266078DB
:10971000B34618B184F801B000F044FF6A4F4FF42B
:109720007A694FF4C87A4FF00108182D69D2DFE842
:1097300005F00C1313384754696E727B727BC58435
:1097400084848484B3B6B9BCC5C500F02BFF3868E7
:10975000FEF75AFD06465CE00020FFF75DFE00289C
:109760004FF0000008D0FFF747FE022D02D14FF462
:10977000E16008E0484606E0FFF746FE022D01D111
:10978000C82000E05046410CC0034FF47A728018A4
:1097900041F10001257052000023FDF723FE014630
:1097A0002AE00020FFF738FE00284FF0000004D028
:1097B000FFF722FE4FF44870E5E7FFF725FEDFE7ED
:1097C0000020FFF729FE00284FF0000002D0FFF72D
:1097D00013FECFE7FFF718FED4E70020FFF71CFECB
:1097E00000284FF0000002D0FFF706FE01E0FFF76F
:1097F0000BFE257040F6CD4100223868FEF7DAFCFA
:10980000064646E00020FFF7E1FD257008E0002055
:1098100051E025703DE084F801800120FFF7D6FD7E
:10982000002240F26661E8E784F801800120FFF73A
:10983000CDFD00224FF40051DFE77868FEF7E4FC2D
:109840000646D5F1110000D02EB10220FFF7D4FD5D
:1098500084F802B01DE0012816D980B2C82148431F
:10986000C117C90341EA5041C0034FF47A7280180E
:1098700041F1000152000023FDF7B4FD0146002232
:109880007868FEF797FC06460220FFF7BDFD84F8D6
:1098900002803046BDE8F09F00F084FEB9E700F09A
:1098A00081FEB4E700F07EFE04E000F07BFE0020C5
:1098B000FFF7AAFD0120FFF7A7FDAAE7FFF7C9FD03
:1098C000A7E70000442B002058DF0200012104F02C
:1098D000FBBA00002DE9F84F0546861C00208DF8E4
:1098E000000091460F464FF0010A6846FEF744FD1E
:1098F0001B4C04F21C4860683860D4E90101194F20
:10990000401A3968081A0EE00121404601F008F9B2
:1099100000F078FE0146404601F002F9D4E9010169
:10992000401A3968081A401C8642EDD8B9F1000F78
:1099300003D0052065F3891002E0062065F39F50EF
:1099400061683A68114004EB8101C8606068304486
:1099500060609DF80000FEF733FD5046BDE8F88FCB
:10996000743800208C2C002030B482680468531CAA
:109970008360A154D0E901128A4202D330BC01F0C5
:1099800034BB30BC704700000448816840688142A5
:1099900001D101207047002070470000743800207A
:1099A000034630B5074800210478426806E000BF4E
:1099B00002EBC10005789D4203D0491CA142F7DBB0
:1099C000002030BDF02B002000780221FFF788BD79
:1099D00005494FF0FF32082841F8202002D30844FF
:1099E00080F858207047000060350020F0B54FF037
:1099F000FF3512B10023082601E008230C260C4C89
:109A000005E000BF54F823707F1C04D05B1CB342F8
:109A1000F8D32846F0BD26185DB286F8305044F8D9
:109A20002310002AF5D1E11881F85800F1E7000071
:109A3000603500200249084490F93000704700006A
:109A4000603500202DE9F0438146887891B090463A
:109A50000C4600B901208DF83E002088ADF83C008E
:109A600000250095607C694603F07CFD6E46A07C75
:109A7000711C03F077FDE07B00289DF8020002D006
:109A800040F0080001E020F008008DF80200217C81
:109A900011B140F0100001E020F010008DF802003C
:109AA000217B11B140F0010001E020F001008DF8B0
:109AB0000200217D09B1022100E0012161F3420091
:109AC0008DF802001C2102A8FDF7E9FC607BC106AD
:109AD00001D4800617D50E950EAFE07C791C03F0FB
:109AE00041FD9DF83800079720F00F00401C20F042
:109AF000F00010308DF838009DF83A0020F0060094
:109B0000801C8DF83A00607B8DF80800A07B8DF8F2
:109B10000900142109A8FDF7C2FC0FA8CDE9090628
:109B2000A088ADF83000A06820B1E088ADF82C0026
:109B3000A0680D90A06998B301950088ADF8100059
:109B4000A06901AD01A94088ADF81200A069406884
:109B500006950390A069007B03F004FDA069691CD1
:109B6000407B03F0FFFCA069807A00289DF8060086
:109B700002D040F0080001E020F008008DF8060057
:109B8000A169C97A11B140F0100001E020F0100085
:109B90008DF80600A169097A19B140F0010002E0D0
:109BA0000DE020F001008DF80600A169897B09B164
:109BB000022100E0012161F342008DF80600E06916
:109BC00000B10590434609AA02A94846AADF11B090
:109BD000BDE8F08370B5084C050009D01034216849
:109BE000002907D008682060496828468847F6E7BA
:109BF0000834F4E770BD00004C350020054A01210F
:109C000020B1012805D19170FFF7E4BF5170002009
:109C1000FAE770474C35002010B5D0E90234D1E99D
:109C20000220D11AA04101D3012010BD002010BD97
:109C300073B58CB00646002000900D9880B10024CA
:109C40006D4621460DA800F050FF30B1009805EB9D
:109C5000400084800098401C0090641C142CF0D3B9
:109C60002C2269463046FDF701FC0EB070BD2DE98F
:109C7000F04117880646B81D14460D46984202D991
:109C80000C20BDE8F0813188072206290AD34FF461
:109C9000486C4FF6FF73614501D9994202D1708833
:109CA000062801D21046ECE7604501D99842F9D167
:109CB000994203D0984201D08142F3D80520E8555B
:109CC00020881221401C80B2208029542088401C0A
:109CD00080B220804119308803F0CDFF21880844EC
:109CE00080B220804119708803F0C5FF21880844A4
:109CF00020800020C5E7FEF7E5B9000038B54A7AB4
:109D00000F4B62B100220A725969002906D0012264
:109D10008DF80020ADF802006846884738BD0A7A01
:109D200062B19B684C68024619462046FEF742FA2B
:109D30000028F3D0BDE8384003F064BB5B68F1E76E
:109D40008434002070B588B0064600200590069047
:109D5000ADF81410ADF816100190029001AA05A9F3
:109D6000304690DF050021D002F096F903461148F5
:109D700011493246401AC108012000EB0140044657
:109D80000E4901F066FDBDF8042012B9BDF80600C9
:109D900028B1BDF80630204609A101F05AFDBDF8F2
:109DA00008201AB12046164901F04CFD08B028469B
:109DB00070BD000080EA020080EA0200D0E20200EA
:109DC00054686520726571756573746564205458B4
:109DD0002F5258207061636B6574206C656E6774D8
:109DE0006820697320746F6F206C6F6E67206279D2
:109DF0002025752F2575206F63746574732E000000
:109E00001CE30200F0B587B00C4607461646142145
:109E100001A8FDF744FBA07800B901208DF81A00D5
:109E20002088ADF8180006A80190A079694603F0D3
:109E300099FB6D46E079691C03F094FBE0780028FB
:109E40009DF8020002D040F0080001E020F0080078
:109E50008DF80200217911B140F0100001E020F0EE
:109E600010008DF80200617911B140F0010001E0AD
:109E700020F001008DF80200217A09B1022100E0F2
:109E8000012161F342008DF8020002956089ADF86E
:109E90000C00A089ADF80E00E089ADF81000206933
:109EA0000590324601A93846ABDF07B0F0BD00008F
:109EB00070B500240F4D10E0686800EBC4063078E0
:109EC00002F012FA7178012901D0012100E000218D
:109ED0004140307800F05CF9641C28788442EBDB68
:109EE000D5E90401084303D0BDE8704003F0B0BCDD
:109EF00070BD0000F02B002010B50021024800F0DA
:109F000020FE80F3100010BD903C00204FF4803202
:109F10008A400168C1F848230068C0F808237047E8
:109F20004FF4A07202EB810189B200F0A1B92DE9D2
:109F3000F04105460E464FF4A07000EB860081B25A
:109F400028684FF48034B440984622F07F47C0F828
:109F500008432868C0F84843286801F02BFE2868A9
:109F600000EB8600C0F840752868C0F84443B8F19B
:109F7000000F02D02868C0F80443BDE8F0810068F3
:109F8000D0F804057047000070B54379234C44F8BD
:109F900023204279231D03EBC202224C1579204A6B
:109FA000121BD4082DB10825022000EB04401EA18D
:109FB00030E005680A88C5F8082590F904208978FA
:109FC000002A4FEA411104DB02F1E02282F800147A
:109FD00005E002F00F0202F1E02282F8141D90F970
:109FE00004100122002909DB01F01F0502FA05F522
:109FF0004909890001F1E021C1F8005141790025AA
:10A0000003EBC1010A71417943F83100032000EBF1
:10A0100004400EA101F012FC284670BD682C0020FF
:10A02000D8EA020080EA020052544320696E737439
:10A03000616E636520616C726561647920696E6927
:10A040007469616C697A65642E0000005254433A69
:10A0500020696E697469616C697A65642E0000001C
:10A0600090F90400002809DB00F01F020121914053
:10A070004009800000F1E020C0F8001270470A4655
:10A08000022100F07BB84FF4827100F0F1B8006853
:10A0900001210160704700680121416070472DE98E
:10A0A000F05F07460C464FF4A07000EB84001FFAE7
:10A0B00080FA38684FF48036A6409B4622F07F45F0
:10A0C000C0F848633868C0F808633868D0F8048579
:10A0D00000EB8402D2F84095C2F8408551463868BA
:10A0E00001F068FDA9EB080020F07F40012806D1AF
:10A0F000102002F03DF85146386801F05BFD3868E9
:10A10000D0F80485C0F84463A5EB080121F07F4135
:10A110003868012900EB840010D0C0F84055386839
:10A12000D0F804156FF07F4C6A1A521E22F07F425D
:10A13000ACEB0B03934217D362B118E06D1CC0F86F
:10A140004055102002F014F83868D0F80405404556
:10A150000AD10CE000EB84006D1CC0F84055386853
:10A16000D0F80405884202D00D20BDE8F09F0122FE
:10A170003146384600F002F80020F6E70368C3F8DD
:10A180004413002A02D00068C0F80413704700008E
:10A190002DE9F84F0E463449804601EB5001C007C7
:10A1A000097801D00F0901E001F00F074FF0000915
:10A1B000424601204946FDF746F9DFF8B0A00446C3
:10A1C0000D46052F4ED2DFE807F003161B282C00A2
:10A1D000002E47D00121404603F02EFA8DF8009062
:10A1E0006846FEF7C9F85046D0E904120C431543FF
:10A1F000CAE9044532E00EB1022114E0002112E068
:10A200004EB10321404603F017FA4046BDE8F84F2F
:10A21000012103F0E1BD012105E0002E22D104213E
:10A2200001E02EB103214046BDE8F84F03F004BA27
:10A230000021404603F000FA0021404603F0CCFD27
:10A240008DF800906846FEF797F85046E243D0E953
:10A2500004341A4024EA0501CAE904219DF80000EB
:10A26000FEF7AEF8BDE8F88F1C360020F02B00207A
:10A2700010B5006842581AB101F09CFC012010BDD5
:10A28000002010BD826883881A4003689A5C0A70B7
:10A290008168491C81607047C26883881A400368DE
:10A2A0009954C168491CC16070470AB100F028BCCC
:10A2B00000F010BC70B50D460446B0F81414D0F888
:10A2C00010040122FEF75EFA00B1057004F13C02B1
:10A2D00004F5826104F1540072DF70BD10B50446CC
:10A2E000C0B2FEF71FF8204610BD00000C484A8897
:10A2F00043889A4213D10A88A2F52063773B0ED196
:10A300008988C91E8AB28280064807491346401AC6
:10A31000C008032101EB004004A101F09ABA704784
:10A32000F02A0020F0EA020080EA02004461746131
:10A33000206C656E2069732073657420746F203003
:10A34000782558282564290010B50949094800F0E6
:10A350006FFC08B1FDF7B6FEF721064800F05CFC83
:10A36000002803D0BDE81040FDF7ACBE10BD0000D2
:10A37000EDA20200F02F002010B50B48FFF7FFFD03
:10A38000094A083AD2E90434C018D2E9063244F145
:10A390000001C31A71EB020204D24FF080728018E0
:10A3A00041F1000110BD0000302C002010B5C0B2FA
:10A3B000FFF7F6FA0446007801F096FF0146607850
:10A3C000012801D0012000E0002090EA010F08D010
:10A3D0000449D1E90401084303D1BDE8104003F06A
:10A3E00037BA10BDF02B00200146034802888A428C
:10A3F00000D0002070470000703400202DE9FC5F81
:10A400000E008346DDE90C47C6F1000098469246EF
:10A41000814600D40846012503E000BF90FBFAF016
:10A420006D1C5045FADAA84500D9454624B1002EE6
:10A4300001DB780700D5641EB80702D5B8F1000F1C
:10A440000AD0F80708D13CB1A54205D220215846D0
:10A45000641EFFF789FAF6E7002E02DA4E462D2138
:10A4600002E0780703D52B215846FFF77DFA07F065
:10A47000030002280BD1B8F1000F08D13CB1A5426E
:10A4800005D230215846641EFFF76EFAF6E7CDE993
:10A490000047434652463146584603F0F1FBBDE8BB
:10A4A000FC9F000070B50D46044600684FF48871AB
:10A4B00001F012FE4FF49071206801F00DFE4FF490
:10A4C0009271206801F008FE4FF4A271206801F03B
:10A4D00003FE4FF4AC71206801F0FEFD20681249C4
:10A4E000C0F804132068690740F30730090E0028FC
:10A4F00004DB00F1E02080F8001405E000F00F001C
:10A5000000F1E02080F8141D206840F30730002897
:10A5100009DB00F01F02012191404009800000F199
:10A52000E020C0F8001170BD100342000246002078
:10A530001268530713D502F00300012802D0022845
:10A540000CD105E0C2F383100B68801C184404E0B2
:10A550000223086803EB9252104408600120704700
:10A56000F0B58488A518944200D82246A41AC2885F
:10A57000D6189A4200D81346D21A4B880788BB4295
:10A580000CD34088834209D88888A04206D3A842C9
:10A5900004D8C888904201D3B04201D90020F0BD50
:10A5A0000120F0BD0A4810B5807860B1002401E0B8
:10A5B000022C06D02046FEF71FFF641C042CF7D3A4
:10A5C00010BD0324F6E7BDE81040FEF739BF0000D8
:10A5D000442B002003480179C90702D00078FFF717
:10A5E00091B87047442B0020F7210180172141804A
:10A5F000002101714171FB2181711B21C1717047E3
:10A60000704700002DE9FF410026244800F085FA3C
:10A610002248001F074600F080FA214C2149A0681B
:10A6200000900D6800E000986946284004EB800027
:10A630000C30FFF77BFF0028F5D101AA009901EA51
:10A64000050304EB8303491CDB6842F82030401CFF
:10A6500000910228F2D3019800F0030001280BD0EA
:10A66000022810D10198032101EB90500099BDF808
:10A670000A6001EB900005E00198BDF80A60C0F3A4
:10A68000831008440090384600F044FA08B100985E
:10A69000A06004B03046BDE8F08100008C3C002092
:10A6A000743800208C2C002010B501F073FF0028B6
:10A6B00003D0BDE81040FDF705BD10BD8AB01822DB
:10A6C00058496846FCF7D2FE5748069057494FF460
:10A6D0008070CDE9070109900723554A06A968460D
:10A6E000FDF7CEFD08B1FDF7EDFC4FF480410020F1
:10A6F00001F010F908B1FDF7E5FC00F075FFFDF77A
:10A700002BFD08B1FDF7DEFC46484A4A0121183806
:10A71000FDF712FD08B1FDF7D5FC47490320FEF710
:10A72000A7FF08B1FDF7CEFC69460020FEF7ACFE9E
:10A7300008B1FDF7C7FC01F0F7F908B1FDF7C2FC5D
:10A7400001F0CCFB08B1FDF7BDFC002469460120F7
:10A75000009401F063FA08B1FDF7B4FC684601F01B
:10A76000F5FA08B1FDF7AEFC9DF8080033A120F022
:10A770000F00401C20F0F00010308DF808000F2270
:10A7800002A87CDF08B1FDF79DFC00941020ADF815
:10A7900000003C200194ADF80200ADF804404FF4F5
:10A7A000C870ADF8060068467ADF08B1FDF78AFC8C
:10A7B000FFF7CAFD02F09AFEFDF70AFB1C2168466E
:10A7C000FCF76DFE4FF4A030CDE900404FF4F020CF
:10A7D00002901E48059003251D488DF80C500690E8
:10A7E000ADF80E408DF810406846FEF787FA08B1C4
:10A7F000FDF768FC02F080FD16A0FDF78BFA1A4801
:10A800001A49401AC00805EB004019A101F016F8DA
:10A81000FDF712FB00F0F6FE0028FBD101F098F9DD
:10A82000F8E700002CDF0200DC2D0020DC2E0020E9
:10A83000BDD80200A9A602007D9502004E6F726489
:10A8400069635F554152545F4241530075CB02002A
:10A85000F79C02000D0A55415254207374617274C2
:10A8600065642E0D0A000000F0EA020080EA020092
:10A870004465627567206C6F6767696E6720666FF5
:10A88000722055415254206F7665722052545420E4
:10A89000737461727465642E0000000070B5144614
:10A8A00082880E4605462088111D0144921C99425B
:10A8B00001D8FE2A01D90C2070BD521C32542088C8
:10A8C000FF21401C80B2208031542088401C80B27F
:10A8D00020808119288803F0CEF92188084480B2AD
:10A8E0002080AA8842B1A96841B13044FCF7BEFD7E
:10A8F0002088A98808442080002070BD072070BDF2
:10A900002DE9F047C5881E1DB6FBF5F78946B6FB55
:10A91000F5F1044605FB176C407916686843DDF8CD
:10A9200020A0F718001F874200D9C61A166001E060
:10A930002468491E0029FBD1A5EB0C078846B742C5
:10A9400016D818E004EB0C00001D09EB0803BAF15F
:10A95000000F3A4602D00146184600E01946FCF7BF
:10A9600085FD2468F61B4FF0000CB844B54201D9B0
:10A97000374600E02F46002EE4D1BDE8F087000006
:10A9800030B5024651B100F0D9FF0021074C08E074
:10A9900034F821301568AB4202D11160002030BD7F
:10A9A000491C8142F4D3052030BD000000000000A6
:10A9B000F8B50F46017814460546012901D168789B
:10A9C00030B12088821C9A4232D8012902D006E098
:10A9D0000720F8BD69780144891C994228D8181AC3
:10A9E000801E86B2ADF800602188B81C0844694614
:10A9F0007DDF0028EDD12978022904D06878BDF8E0
:10AA00000020904205D3BDF80000B04201D80920D3
:10AA10000AE00820012905D16978B14202D8ADF8D1
:10AA2000001001E0ADF80060BDF80010FE2901D96A
:10AA30000C20F8BD2288491CB9542188491C89B2D0
:10AA4000218078542088401C2080BDF800100844E4
:10AA500020800020F8BD10B531B1B2FBF3F403FB48
:10AA600014241CB1092010BD0E2010BD016000216E
:10AA7000416081608281C381084610BD70B50C467B
:10AA80000546FCF7C7FB002802D021882868084447
:10AA900070BD10B50A8849888A4203D1FCF7FCFBD7
:10AAA000012010BD002010BD70B50C460546FCF716
:10AAB000D6FB002802D061882868084470BD10B514
:10AAC0000A8849888A4203D1FCF7C0FB012010BDE7
:10AAD000002010BD01F01F0301229A40D243490912
:10AAE00000EB8100114600F021B84A0950F822001D
:10AAF00001F01F0201219140084000D00120704761
:10AB000001F01F0301229A40490900EB8100114620
:10AB100000F01CB8002100F00FB8012100F016B8B9
:10AB200008B56A46FCF70DFC009808BD08B56A46F2
:10AB3000FCF7EDFB009808BD08B56A46FCF7E7FB9B
:10AB400008BD08B56A46FCF7C9FB08BD08B56A46EA
:10AB5000FCF7D0FB009808BD08B56A46FCF7FEFB81
:10AB6000009808BD38B5044600258DF800506846A9
:10AB7000FDF702FC21686268086890420ED9401E09
:10AB800008600178238AE26801FB0325227A2168A4
:10AB9000101AC0B20A79824200D208719DF80000F2
:10ABA000FDF70EFC284638BD38B5054600208DF867
:10ABB00000000C466846FDF7DFFBE868298A201A8A
:10ABC000B0FBF1F12A681068431C136001709DF816
:10ABD0000000FDF7F5FB38BD10B530B1017A4268D1
:10ABE0000368891AC9B21A6006E00E2010BD036816
:10ABF0001A68541C1C601170491EC9B2F7D2006853
:10AC000000210171084610BDC20800F007030120B1
:10AC1000895C98400840704728B1A1F11702E12AE9
:10AC200003D3072070470E20704701800020704733
:10AC300010B560B10161F72120F8021B20F8021B5A
:10AC4000FB2100F8021BFFF7CFFC002010BD0E20F7
:10AC500010BD0000F0B5858893B00C46002D39D1A9
:10AC6000018800263F4F24293BD006DC102909D05B
:10AC700011290CD0232958D14FE03A290BD055295E
:10AC800053D129E00146204601F0B8FF4DE0A01D58
:10AC9000FFF7AAFC49E02246408934F8061F8142AA
:10ACA00000D808466080172800D2172060801069FD
:10ACB00070B1607960B1D7E90001CDE90301ADF869
:10ACC0000E506088ADF81000136903A9104698472C
:10ACD0006671267113B0F0BD0146204601F0E2FF17
:10ACE00023E0011D2C2206A8FCF7C0FBBDF81800CC
:10ACF000BDF81C2004EBC0014A732269AAB1D7E950
:10AD00000423CDE90423ADF81200487B8DF814002C
:10AD10002269204604A9904707E0017A207B8842F7
:10AD200000D201462846FFF70DF8A07A0028D1D0BE
:10AD3000E1882846A5DF012580B11128CAD001F09D
:10AD4000ABF902460848094913B0401AC00805EBA0
:10AD50000040BDE8F04006A100F074BDA672E572A7
:10AD6000B8E7000084DF020080EA020080EA020007
:10AD700073645F626C655F67617474635F65786359
:10AD800068616E67655F6D74755F72657175657317
:10AD90007428292072657475726E65642025732E7F
:10ADA0000000000020B10278DE2A03D0082070479E
:10ADB0000E20704741800020704760B159B1027881
:10ADC000DE2A0AD009684160DE2101704FF6FF716A
:10ADD0004180002070470E207047082070477FB5E3
:10ADE000054600294DD0002D4BD008780C46DE28B2
:10ADF00047D1A8886188884202D1204602F0DAFF54
:10AE00002888012825D002283BD011283AD0512883
:10AE100037D135F8040F6188884232D1A978A81C4F
:10AE200002292ED1017A042903D0062901D005294F
:10AE300027D10021009102228DF8002001914FF4CA
:10AE4000C07202910391ADF80420007A05280FD05A
:10AE500010E0297A2046012913D1A988428891421D
:10AE60000FD10121017204B0BDE8704002F0A2BF11
:10AE7000ADF8041028886946B0DF002801D0616869
:10AE800088477FBDA88861888842FAD14FF6FF7055
:10AE900060807FBD00F180400068002800D0012064
:10AEA000704708B500F18040002101600068009003
:10AEB00008BD000070B50D4C0125207808B185262D
:10AEC0000EE00020A06060602061E060084801F0B2
:10AED00027F9064601F04EF808B901F00BF9257084
:10AEE00001F000F900B1A570304670BD4C3500206E
:10AEF000FD9B020038B500258DF800506846FDF72F
:10AF00003BFA084CE068401EE060E06828B901F0B8
:10AF1000E9F810B901F014F9A5709DF80000FDF7EB
:10AF20004FFA38BD4C350020F0B505460478154879
:10AF300089B0164640F82420124A08690832A2F166
:10AF40000C0742F82400487F385520226846FCF759
:10AF50008DFA04942878385C48B10EB10A4A00E0B2
:10AF600000226946281D01F07FFC09B0F0BD0EB13A
:10AF7000064A00E00022694605F10C0001F028FBBA
:10AF8000F3E70000CC2B002035DB0200D9D902000A
:10AF900030B40378054CE35C1BB130BC001D01F0FC
:10AFA00099BC30BC0C3001F07DBB0000C82B0020E8
:10AFB00030B40378054CE35C1BB130BC001D01F0DC
:10AFC0000BBD30BC0C3001F0E3BB0000C82B0020EF
:10AFD0000FB408B50399002904D004AA00926A4668
:10AFE00000F00FF801B05DF814FB10B5826804465C
:10AFF000002A05D0D4E90403216898470020A06006
:10B0000010BD2DE9FC4791460C00804676D014F81F
:10B01000011B39B125290ED04046FEF7A5FC20784A
:10B020000028F4D198F80C00002867D04046BDE80D
:10B03000FC47FFF7DABF0020012221782B291BD023
:10B040002D2902D0302908D102E040F0010001E0B2
:10B0500040F00200641C002AEFD100252A290ED0FE
:10B060002178A1F130020A2A11D205EB850201EB09
:10B070004205641C303DF1E740F00400EAE7D9F8EE
:10B0800000100B1DC9F800300968641C0D442178BC
:10B0900000232E290BD114F8011FA1F130020A2A36
:10B0A00005D203EB830201EB4203303BF3E76C294B
:10B0B0000DD068290BD0692921D00BDC252918D0A7
:10B0C000582931D063290ED0642915D117E014F81E
:10B0D000011FECE7702969D0732932D075291BD084
:10B0E000782909D120E0D9F80000011DC9F8001025
:10B0F00001784046FEF738FC641C90E76CE0D9F814
:10B1000000100A1DC9F800200968CDE900500A2284
:10B110004046FFF773F9EFE7D9F800100A1DC9F8A8
:10B12000002009680A2206E0D9F800100A1DC9F8B3
:10B13000002009681022CDE90050404602F0A0FD31
:10B14000DAE7D9F8001000270A1DC9F800200E68B8
:10B15000C00705D112E04046761C7F1CFEF704FCB8
:10B1600031780029F7D104E0202140466D1EFEF71A
:10B17000FBFBBD42C0D9002DF6D1BDE74EB1304634
:10B18000FCF798F9074604E0202140466D1EFEF7C3
:10B19000EBFBBD4206D9002DF6D103E04046761CFC
:10B1A000FEF7E2FB31780029F8D1A5E7D9F80000D5
:10B1B000011DC9F80010056830214046FEF7D4FB98
:10B1C00078214046FEF7D0FB08200021CDE90001A0
:10B1D000034610222946B0E7BDE8FC872DE9FF4170
:10B1E0001C46DDE90A7815460E46684600F0B0F8C0
:10B1F00046EA450141EA840141EA072242EA084160
:10B20000009A00EB8200C0F80017BDE8FF812DE92D
:10B21000FF411C46DDE90A7815460E46684600F0F7
:10B22000A5F846EA450141EA840141EA072242EADB
:10B230000841009A00EB8200C0F80017BDE8FF81CA
:10B240002DE9FF411C46DDE90A7815460E466846A1
:10B2500000F09AF846EA450141EA840141EA0722F2
:10B2600042EA0841009A00EB8200C0F80017BDE8EE
:10B27000FF812DE9FF411C46DDE90A7815460E469F
:10B28000684600F08FF846EA450141EA840141EA48
:10B29000072242EA0841009A00EB8200C0F800173A
:10B2A000BDE8FF811CB500220B46009211460192B9
:10B2B000FFF7C6FF1CBD1CB500220B4600921146CD
:10B2C0000192FFF7D6FF1CBD1CB5002100910B4673
:10B2D000012201911146FFF7B3FF1CBD1CB50021EF
:10B2E00000910B46012201911146FFF7C2FF1CBDE0
:10B2F00013B50C46684600F039F8009900EB81015F
:10B30000D1F8002722F44032C1F80027009900EB61
:10B310008100D0F8001741EA0441C0F800171CBDB5
:10B320003CB50A4CD4E90034CDE900346B464418EE
:10B3300008E000BF53F82010D1F8205520C2C1F812
:10B340002055401C8442F5D83CBD0000ACDF020013
:10B350000168202902D24FF0A040704701F01F0180
:10B360000160014870470000000300500168202977
:10B3700002D24FF0A040704701F01F010160014868
:10B3800070470000000300500168202902D24FF0EE
:10B39000A040704701F01F010160014870470000A4
:10B3A000000300500168202902D24FF0A0407047EE
:10B3B00001F01F01016001487047000000030050C8
:10B3C00042094FF0000102D0012A05D102E04FF0FE
:10B3D000FF3101E04FF6FF7100F01F0001228240B3
:10B3E0000A4201D0012070470020704701B568462D
:10B3F000FFF7BCFFD0F810050099C84000F001002D
:10B4000008BD01B56846FFF7BFFF009A01219140D2
:10B41000C0F8081508BD01B56846FFF7C3FF009ADC
:10B4200001219140C0F8081508BD38B501240090ED
:10B43000684631B1FFF78CFF00998C40C0F8084591
:10B4400038BDFFF785FF00998C40C0F80C4538BD2A
:10B45000034908B50844002101600068009008BD58
:10B460000060004002494058012800D00020704789
:10B470000060004030B5154A01460020D2F8104463
:10B4800023460AE0DB681D79854205D1401C0A2865
:10B49000F6DB4FF0FF3030BD1B68002BF2D1431CB0
:10B4A000F9D0CB681871D2F8103443B1DB68CC689E
:10B4B0001B682360D2F81024D268116030BDC2F836
:10B4C0001014C96800220A6030BD000074380020E2
:10B4D0007047FCF771BA704708B5034A00924023E1
:10B4E000024A00F005F808BD15D40200DC36002041
:10B4F000F0B595B01C4615460F4608461A9E00F05A
:10B50000EDFA182109A8FBF7CAFF0E96CDE90954F8
:10B510000023082203A9384600F0F5FA05980690A2
:10B52000BDF81000ADF81C00BDF81200ADF81E000B
:10B5300000208DF821000398082600F00300012860
:10B5400002D0022818D032E003983346850AC0F3AF
:10B55000C2008DF8200003980FA9C0F38314A20045
:10B56000384600F0D0FA09A8009006AB22460FA991
:10B57000284600F00FFA1AE00398840DC0F3C200C9
:10B580008DF82000082C01D2254600E0082533461E
:10B590002A460FA9384600F0B6FA2E44641B09ABC0
:10B5A00006AA29460FA800F05DF9002CEAD138461A
:10B5B00000F09AFA15B0F0BD0A4A012902EBC0006A
:10B5C00007D0022907D0032907D0042907D000207B
:10B5D0007047022070470420704700797047407917
:10B5E0007047000080EA020010B5FFF772FF0421E7
:10B5F0000348FFF73FFF02490120C968487110BDA9
:10B6000070EA02002DE9F04F8DB0FEF7BDF918B1D8
:10B6100000200DB0BDE8F08F7E4C4FF0000BC4F859
:10B6200018B4BFF34F8F7C49A06802900D68D846CC
:10B63000284004EB80000BE0D4F8180470B961686E
:10B640000298814201D8A160E2E7284004EB800023
:10B650000C3002A9FEF76AFF0028EDD1002005AAF0
:10B66000029901EA050304EB8303491CDB6842F8F5
:10B670002030401C02910228F2D3059800F003000C
:10B68000022802D001284DD0AAE005985022810D51
:10B690008946B2EB905F00D850210E4666F39F506A
:10B6A000059008315D4800F0D0F9070078D000F02F
:10B6B00015FA4346082205A9384600F02CFA0299EB
:10B6C00008F1080A2940681A8000001D864222D924
:10B6D000504D0C3530B1C2B204EB8101301A9046A6
:10B6E0000C3104E02946F2B2002590462846C6B245
:10B6F0005346384600F00FFA0AEB080325B13246EC
:10B700002946384600F007FA029909F1030001EBD7
:10B71000900002903BE004EB8101534632463846EC
:10B720000C31EFE70598C0F38310062800D30620FC
:10B73000059960F38911C1F38310801C0591810084
:10B74000364800F082F907004AD000F0C7F94346B6
:10B75000082205A9384600F0DEF908F1080800269D
:10B760000FE00298434600EA0501401C04EB81010A
:10B770000290042238460C3100F0CDF908F104089B
:10B78000761C0598C0F38310B042EAD847B1D4F8CC
:10B790001054D4F8180478B1384600F0A5F934E014
:10B7A0001EE0E8684079012804D12A682846394615
:10B7B00012689047E8680568002DF2D1384600F01D
:10B7C00093F98DF800B06846FCF7D6FDD4F818045C
:10B7D00008B90298A0609DF80000FCF7F1FD14E0A4
:10B7E000D4F8104405E02168204689688847E0685D
:10B7F0000468002CF7D10A480A49401AC0080221FF
:10B8000001EB004008A100F019F8FEF7BDF880F048
:10B810000100FEE6743800208C2C002010EB0200A2
:10B82000F0EA020080EA02004261636B656E6473B5
:10B8300020666C75736865640000000000231A467A
:10B8400001F012BF08B5012300926A4601F00CFF17
:10B8500008BD1CB5CDE9002302236A4601F004FFB0
:10B860001CBD00002DE9F0470E4680461C4692465E
:10B87000082940D894F80C900020207319461046EF
:10B8800001F068FB0025B54206D218F805201BA17F
:10B890002046FFF79DFB03E01AA12046FFF798FB27
:10B8A0006D1C082DEFD318A12046FFF791FB002552
:10B8B000B54212D218F805707E2F08D8FBF7D2FDDA
:10B8C0000068C05D10F03E0F01D03A4600E02E2225
:10B8D0000EA12046FFF77CFB03E00DA12046FFF7F9
:10B8E00077FB6D1C082DE3D301222146504601F061
:10B8F00013FB84F80C90BDE8F0870000202530325F
:10B9000078000000202020007C000000256300005B
:10B9100020000000064910B500200870054800F01E
:10B92000E1F8002803D1044800F036F9002010BDEA
:10B930007438002010EB020098E10200024803492D
:10B94000401AC0087047000010EB020080EA0200B5
:10B9500013B56846FFF714F808B100201CBD024873
:10B96000009950F831001CBD80EA020070B508480B
:10B970000125D0F81044057007E0E06845712168A2
:10B98000204649688847E0680468002CF5D170BDFE
:10B99000743800202DE9FF4781460C9D00200C469D
:10B9A0002F7B2873984616462946184601F0D2FA8E
:10B9B000072E42D2DFE806F004090F161F2A3600D0
:10B9C00049462846FFF704FB37E0494628462268E7
:10B9D000FFF7FEFA31E0D4E9002349462846FFF795
:10B9E000F7FA2AE0A0680090D4E9002349462846E7
:10B9F000FFF7EEFA21E0D4E90201CDE90001D4E934
:10BA0000002349462846FFF7E3FA16E004F1080050
:10BA100007C88DE80700D4E9002349462846FFF708
:10BA2000D7FA0AE004F108000FC88DE80F00D4E946
:10BA3000002349462846FFF7CBFA00222946404614
:10BA400001F06AFA2F73BDE8FF872DE9F041058AFE
:10BA500080462D1F4819C01CB0FBF5F0C6B2404609
:10BA6000FFF780F8041E19D00020207101206071BA
:10BA7000E58000272546761EC4F800800BE040468E
:10BA8000FFF770F860B16179491C61712860054663
:10BA90007F1CC0F80080B742F1D32046BDE8F0819A
:10BAA000204600F002F80020F8E72DE9F041457942
:10BAB00001466B1E002201E00968521C9A42FBD32A
:10BAC0000F680146002605E038460C68FFF76CF861
:10BAD0002146761CAE42F7D3BDE8F0810121001D5E
:10BAE000FFF71EB8FFF778B810B504460121001D16
:10BAF000FFF732F810F0FF0F04D12046BDE81040E8
:10BB0000FFF7D3BF10BD1CB501920122009201AA1C
:10BB1000FEF7F6FE1CBD1CB501920022009201AAA0
:10BB2000FEF7EEFE1CBD0000064910B5002048706F
:10BB3000091D0860BFF35F8F0349044800F03EFA17
:10BB4000002010BD742C002030E00200D036002010
:10BB500008B500208DF800006846FCF70DFCF1EEFA
:10BB6000100A20F09F00E1EE100ABFF35F8F084932
:10BB70004020C1F880029DF80000FCF721FC00F095
:10BB8000F9F908B141DF08BD20BF40BF20BF08BDA3
:10BB900004E000E0FCF796BA8268002191608268B8
:10BBA0001161826851618268D160826851608068E9
:10BBB0000160704708B5002242504058009008BD0F
:10BBC000024A1060101D0160704700002C76004092
:10BBD000030103481844C0F81425C0F81015704735
:10BBE0000070004002494058002800D001207047F2
:10BBF00000700040034908B5084400220260006854
:10BC0000009008BD0070004020B103490968016040
:10BC1000002070470E2070471CE202002DE9FE4311
:10BC200007460E460846FFF7EFFF00287CD10024A8
:10BC30000094019406208DF800704FF00108ADF8D3
:10BC4000040002948DF8028069462020326869DF82
:10BC50003649374A891AC908012202EB014530B139
:10BC600000F01AFA024628463249FFF7EBFD00942D
:10BC70008DF801808DF80240019402948DF8034004
:10BC800069464020326869DF30B100F005FA0246AB
:10BC900028462949FFF7D6FD00948DF80070F7205B
:10BCA000ADF802000194029469462320326869DFEE
:10BCB00030B100F0F1F9024628462049FFF7C2FDF5
:10BCC0000094019402948DF8008069460120326846
:10BCD00069DF30B100F0E0F9024628461849FFF765
:10BCE000B1FD4FF4B0600090019402946946A12028
:10BCF000326869DF30B100F0CFF9024628461149B9
:10BD0000FFF7A0FD0094019402948DF8004069466D
:10BD1000A020326869DF30B100F0BEF90246284643
:10BD20000949FFF78FFD0020BDE8FE8300EB02000C
:10BD300080EA0200BCE8020004E9020050E90200C7
:10BD40001CE8020068E80200C8E702002DE9F041A3
:10BD50000546076860DF804619491A482A68081AAC
:10BD6000C608BA4219D9022000EB064416A12046A3
:10BD7000FFF764FD20463A461FA12B68FFF769FDD7
:10BD80004FF08050D0F80C012968800200F100507B
:10BD9000421A204625A1FFF755FDB8F100004FF0EB
:10BDA00001040AD000F078F9024604EB06402AA10B
:10BDB000FFF748FD4046BDE8F0812F480470F9E7E1
:10BDC00000EB020080EA0200496E737566666963E3
:10BDD00069656E742052414D20616C6C6F636174B3
:10BDE000656420666F722074686520536F667444C2
:10BDF00065766963652E00004368616E676520742F
:10BE000068652052414D207374617274206C6F63B9
:10BE10006174696F6E2066726F6D203078257820AE
:10BE2000746F20307825782E000000004D6178690D
:10BE30006D756D2052414D2073697A6520666F7271
:10BE4000206170706C69636174696F6E2069732022
:10BE5000307825782E00000073645F626C655F6542
:10BE60006E61626C6528292072657475726E6564F6
:10BE70002025732E00000000E32C002030B515486B
:10BE8000ADF5017D0078002821D04FF4FA7500BF90
:10BE9000ADF8005280A9684661DF38B1052816D098
:10BEA0000DF5017DBDE83040FCF70CB96C460A4940
:10BEB0007DA800F083F806E0D0E9002120469047F5
:10BEC0007DA800F092F87F980028E1D0F4E70DF506
:10BED000017D30BDE32C002020E202007CB5194C2E
:10BEE000207808B108207CBD0120A070002001F05E
:10BEF0005BFA112819D0002001F06EFA12480026D2
:10BF0000006801908DF800606846FCF735FA0F492B
:10BF100001A810DF05000AD0002020709DF8000065
:10BF2000FCF74EFA2DB128467CBD00207CBD0120D7
:10BF3000F3E7A670667001F04DFB012001F04CFAAA
:10BF4000F3E70000E02C0020B4E102004180020091
:10BF50000EB50749684600F031F805E0D0E9001059
:10BF60008847684600F041F802980028F6D10EBDD7
:10BF7000D0E102000148007870470000E02C00206A
:10BF80001FB568464BDF30B1052814D004B0BDE8BA
:10BF90001040FCF797B8084901A800F00FF806E038
:10BFA000D0E900210098904701A800F01EF80398FE
:10BFB0000028E6D0F4E71FBD3CE2020001600968FA
:10BFC0004160AFF3008010B5D0E900215368994279
:10BFD00001D1002104E0D1E90034A34202D0194686
:10BFE000816010BD08314160F0E7816800290BD005
:10BFF000026892680A44826041684B689A4203D1A1
:10C0000008314160FFF7DFBF704770B50D46064647
:10C01000446804E0B2682946904718B12468206853
:10C020000028F7D120682860256070BD406800684E
:10C03000704741680868002801D002680A607047AC
:10C0400002460020526806E08B4203D10868106067
:10C05000012070471A461368002BF5D17047000085
:10C060000C4A10B502F594730EE0991AC91001EB51
:10C07000D171491002EBC1010C68844201D90B4611
:10C0800002E005D201F108029A42EED3002010BD71
:10C09000486810BD50E0020000B5FFF7E1FF00283E
:10C0A00000D1014800BD00003CE0020040580028DB
:10C0B00000D00120704708B500224250405800903F
:10C0C00008BDD0F80403084000D001207047405854
:10C0D000002800D00120704708B500224250405887
:10C0E000009008BD02480068002800D00120704779
:10C0F0000004014008480068012110F0010F06D13A
:10C100004FF0E020C02280F800248430C16703494A
:10C11000012008607047000000E100E018050040C1
:10C120000649024600200B790BB1852070470A6052
:10C1300001220A7100224A7170470000DC2B0020A6
:10C14000022010B54107C1F808034FF48270FEF7D2
:10C15000A8FE05490120086004480168C1F30041B8
:10C160000029FAD110BD00000C0000401804004066
:10C17000002802D0014980010847704701E0020011
:10C180002DE9F0410D46064600F03EFE00283046FF
:10C1900015D0FDF74FFC083800F0B6FE032802D09A
:10C1A00001280AD003E03046FFF720F928B1032127
:10C1B0003046BDE8F041FFF79BB80221F8E700F0F8
:10C1C0002FFE002822D03046FDF734FC04464FF401
:10C1D000807000EB84000E4F81B207EB8400D0F832
:10C1E000102542F00102C0F810250846FFF730F98B
:10C1F000002D0BD03046FDF71DFC064951F82000FC
:10C20000002803D00120A040C7F80403BDE8F08156
:10C2100000600040603500202DE9FC41DFF8BC8063
:10C22000044608EB0400002790F930001346C017BD
:10C230000E46401C01D008274DE0B0781946C0F3E7
:10C2400040022046FDF7D2FB0546401C42D0B078A4
:10C2500041071AD4C0070DD068460094FFF786F84E
:10C26000009900EB8101D1F8000720F00200C1F82D
:10C27000000707E000217378204600910A460191EB
:10C28000FEF7C5FF204600F0B1FDB078800718D555
:10C290001348317800EB8500D0F81025114B1A4077
:10C2A000C0F810254FF47C524FF4403302EA0422C8
:10C2B00003EA01410A43D0F810150A43C0F81025DB
:10C2C00009E008EB0500327810F8581F41EA8211A6
:10C2D000017000E004273846BDE8FC81603500208D
:10C2E00000600040FFC0FCFF10B5FFF77FF800289A
:10C2F00000D0012010BD000070B51A4D95F86A00FD
:10C3000008B1082070BD0024661E2046FFF758F8CB
:10C3100010B1281980F83060641CE4B2302CF4D3DA
:10C3200000242046FDF754FB641CE4B20C2CF8D327
:10C330000C4800210C4C4166A0F868100B49C02045
:10C3400081F8000401264020891FC1F800014FF444
:10C35000BE70FFF77DF8A004C4F8040385F86A6096
:10C36000002070BD603500200060004006E000E065
:10C37000034890F86A00002800D0012070470000B0
:10C38000603500200121B1EB507F01D101207047C1
:10C390000020704738B50D4600F028FE040014D088
:10C3A00000208DF800006846FBF7E6FF207928B1F1
:10C3B0009DF80000FCF704F8112038BD012025602D
:10C3C00020719DF80000FBF7FBFF002038BD000046
:10C3D0002DE9F041254C064612200D46C4F808030D
:10C3E0002348017C022918D0027C01464FF4807852
:10C3F00091F82E10012A12D00222C4F8042301273A
:10C400000774466005810022C26021B3458390F81D
:10C410002D103046FFF7D4FB25E0122002E0C26861
:10C420002AB10220C4F804031120BDE8F081C660DF
:10C43000058361B947463846FFF7D4FB0028FAD098
:10C440003846FFF7D7FB29463046FFF7B9FB0220F5
:10C45000C4F8040307E029463046FFF7B1FB404625
:10C46000FFF7C8FB27600020DFE7000000700040F6
:10C470001C350020204A10B5137C0BB1112010BDD3
:10C4800002EB40031C7F1CB912F82D4F641C147082
:10C49000CA791A770A7A5A770A784B78302402F0E8
:10C4A000030204EA03131A438B784FF4E06404EAAE
:10C4B00003231A43CB784FF4805404EA03331A431E
:10C4C0000B794FF4E02404EA03431A434B794FF409
:10C4D000801404EA03531A438B79240104EA0363AA
:10C4E000064C1A4304EB0013C3F818250A7AC979DD
:10C4F000FFF76EFB002010BD1C35002000700040CF
:10C500002DE9F0411F4C054694F82C0010B108208D
:10C51000BDE8F08144F8101B1B4928780860091D0C
:10C5200068780860E878A0770127277700202070D6
:10C5300060776060154EE0776FF00040C6F8080342
:10C540004FF48270FFF756FBB015FFF753FB4FF423
:10C550008A70FFF74FFBA8780D49400181F800046D
:10C560008020C91FC1F800010220C6F80403A07F83
:10C5700010B10120C6F804030348F038076000201A
:10C58000C6E700001C350020F07500400070004038
:10C5900007E000E0084900200A7C012A01D00820B9
:10C5A000704791F82E30054A01210BB11160704798
:10C5B000024A121DFAE700001C35002000700040FE
:10C5C0000149024801F020BACC350020002000408B
:10C5D0002DE9F0410546007916460F4600EB400173
:10C5E0002D4A01EBC00102EB810494F82A1011B12D
:10C5F0000820BDE8F081294951F820102868FFF78C
:10C60000C9FE08B11120F4E739462846FBF7F2FECF
:10C6100066603869206030004FF001062FD03F7F00
:10C620004FF48E712868FFF746FD4FF4A271286819
:10C63000FFF741FD28681A49C0F8041328684FEA3B
:10C64000471140F30730002804DB00F1E02080F8B8
:10C65000001405E000F00F0000F1E02080F8141D48
:10C66000286840F30730002809DB00F01F0106FAB4
:10C6700001F14009800000F1E020C0F800112868B5
:10C680000421C0F800150020A061E06184F82900B1
:10C6900044F8140FA675ACE7CC350020B4DF0200D7
:10C6A000800002002DE9F05F054600794FF4017625
:10C6B00000EB400303EBC000344B03EB800400208D
:10C6C000636813B12B68C3F80863A3694FF00009CE
:10C6D0006BB1E06938B1606810B12868C0F80463D4
:10C6E0001120BDE8F09FE2610120216105E0C4F85E
:10C6F0002490A261E160C4F81C9094F829100143D1
:10C7000002D1284600F057FD60680028286803D051
:10C71000C0F804630020E4E74FF4A2763146FFF747
:10C72000CAFCB2464FF4927B59462868FFF7BEFC1C
:10C7300006464FF484712868FFF7B8FC80465146DE
:10C740002868FFF7B3FC074648EA07003043EBD000
:10C7500056EA070007D12146286800F0FDFCA169D0
:10C76000606A8142E0D8C4F818900EB10320B8E79F
:10C770000FB10F20B5E794F829100120002929688E
:10C7800001D00860C6E74860C4E70000CC3500204F
:10C790002DE9F05F054600790B4600EB400101EB07
:10C7A000C000244901EB8004284600F045F810B190
:10C7B0001120BDE8F09F62614FF00009C4F820909D
:10C7C000A36084F828904FF48E784E46414628683E
:10C7D000FFF771FC28684FF0010AC0F808A0214655
:10C7E000286801F041F8606808BBD5F800B06769B7
:10C7F0000FE000BF94F8280008B10F2615E041466D
:10C800005846FFF753FC0028F4D02146584601F063
:10C810002BF8206AB842F2D3574641462868FFF702
:10C8200045FC0028F9D02868C760C4F81490304649
:10C83000BFE70000CC350020007900EB400101EBA0
:10C84000C000044901EB80004069002800D00120AD
:10C8500070470000CC3500200149024801F082B940
:10C86000F8350020002000402DE9F041054616462D
:10C8700000790F46154A00EBC00102EB810494F8E1
:10C88000201011B10820BDE8F081114951F82010A5
:10C890002868FFF77FFD08B11120F4E739462846E4
:10C8A000FBF7E3FD6660386920601EB1397F2846DA
:10C8B000FDF7F8FD28680821C0F800150020A061E8
:10C8C000E0616061012184F82010DCE7F835002088
:10C8D000B8DF02002DE9F05F044600790E4600EB58
:10C8E000C001DFF8F0A017460AEB81053046FFF7DC
:10C8F00049FDB0B168684FF000084FF4047910B1F9
:10C900002168C1F80893A8694FF0000B80B1E8696D
:10C9100048B1686810B12068C0F804931120BDE8E0
:10C92000F09F1020FBE7EF614FF001082E6102E05D
:10C93000EE60C5E9067B00254FF488712068FFF79B
:10C94000CBFB4FF4A2712068FFF7C6FB2068C0F84C
:10C950003465C0F838752068B8F1000F12D0D0F8EF
:10C96000001241F02001C0F800122079D04600EBFF
:10C97000C0010AEB8100406838B12068C0F8049318
:10C980002846CCE701210160EFE74FF4887A4FF4A5
:10C99000A27951462068FFF79AFB0746494620686E
:10C9A000FFF795FB06464FF492712068FFF78FFB67
:10C9B000014647EA06000843EBD0227902EBC203A6
:10C9C00008EB8302C2F818B001B10325002ED7D0BE
:10C9D0000F25D5E7F83500202DE9F04704460E462F
:10C9E0000079274900EBC00001EB8005174630466F
:10C9F000FFF7C8FC30B1204600F044F820B1112008
:10CA0000BDE8F0871020FBE76F61AE604FF49077D0
:10CA10004FF0000839462068FFF75EFB4FF4AC7614
:10CA200031462068FFF758FB2068AA686969C0F89A
:10CA30004425C0F8481520684FF00109C0F8089057
:10CA40006868D0B9BA4651462068FFF740FB0746F0
:10CA500031462068FFF73BFB0743F4D010B14FF09D
:10CA60000F0808E02068C0F80C9031462068FFF7F6
:10CA70002EFB0028F9D0002068614046C0E7000086
:10CA8000F83500200079054900EBC00001EB80007B
:10CA90004069002800D0012070470000F8350020D0
:10CAA0002DE9F04105460078002828D1154816499F
:10CAB0000026401AC008012101EB004710E0286958
:10CAC000805DFBF72FFC040009D0112CF7D038460D
:10CAD00022460EA1FEF7B6FE2046FBF7F3FA761CBF
